{
  "_format": "hh-sol-artifact-1",
  "contractName": "WeightedPool2TokensFactory",
  "sourceName": "contracts/WeightedPool2TokensFactory.sol",
  "abi": [
    {
      "inputs": [
        {
          "internalType": "contract IVault",
          "name": "vault",
          "type": "address"
        }
      ],
      "stateMutability": "nonpayable",
      "type": "constructor"
    },
    {
      "anonymous": false,
      "inputs": [
        {
          "indexed": true,
          "internalType": "address",
          "name": "pool",
          "type": "address"
        }
      ],
      "name": "PoolCreated",
      "type": "event"
    },
    {
      "inputs": [
        {
          "internalType": "string",
          "name": "name",
          "type": "string"
        },
        {
          "internalType": "string",
          "name": "symbol",
          "type": "string"
        },
        {
          "internalType": "contract IERC20[]",
          "name": "tokens",
          "type": "address[]"
        },
        {
          "internalType": "uint256[]",
          "name": "weights",
          "type": "uint256[]"
        },
        {
          "internalType": "uint256",
          "name": "swapFeePercentage",
          "type": "uint256"
        },
        {
          "internalType": "bool",
          "name": "oracleEnabled",
          "type": "bool"
        },
        {
          "internalType": "address",
          "name": "owner",
          "type": "address"
        }
      ],
      "name": "create",
      "outputs": [
        {
          "internalType": "address",
          "name": "",
          "type": "address"
        }
      ],
      "stateMutability": "nonpayable",
      "type": "function"
    },
    {
      "inputs": [],
      "name": "getCreationCode",
      "outputs": [
        {
          "internalType": "bytes",
          "name": "",
          "type": "bytes"
        }
      ],
      "stateMutability": "view",
      "type": "function"
    },
    {
      "inputs": [],
      "name": "getCreationCodeContracts",
      "outputs": [
        {
          "internalType": "address",
          "name": "contractA",
          "type": "address"
        },
        {
          "internalType": "address",
          "name": "contractB",
          "type": "address"
        }
      ],
      "stateMutability": "view",
      "type": "function"
    },
    {
      "inputs": [],
      "name": "getPauseConfiguration",
      "outputs": [
        {
          "internalType": "uint256",
          "name": "pauseWindowDuration",
          "type": "uint256"
        },
        {
          "internalType": "uint256",
          "name": "bufferPeriodDuration",
          "type": "uint256"
        }
      ],
      "stateMutability": "view",
      "type": "function"
    },
    {
      "inputs": [],
      "name": "getVault",
      "outputs": [
        {
          "internalType": "contract IVault",
          "name": "",
          "type": "address"
        }
      ],
      "stateMutability": "view",
      "type": "function"
    },
    {
      "inputs": [
        {
          "internalType": "address",
          "name": "pool",
          "type": "address"
        }
      ],
      "name": "isPoolFromFactory",
      "outputs": [
        {
          "internalType": "bool",
          "name": "",
          "type": "bool"
        }
      ],
      "stateMutability": "view",
      "type": "function"
    }
  ],
  "bytecode": "0x61014060405234801561001157600080fd5b506040516200666238038062006662833981016040819052610032916101b2565b8060405180602001610043906101a4565b601f1982820381018352601f909101166040528051819060006002820460a081905280830360e081905281855290915083610088816100ed602090811b61032a17901c565b60601b6001600160601b03191660805282850180518382526100b4826100ed602090811b61032a17901c565b6001600160601b0319606091821b811660c0529690935290529590951b90911661010052505050426276a7000161012052506101e09050565b80517f602038038060206000396000f3fefefefefefefefefefefefefefefefefefefe808352600091602081018484f090845291506101396001600160a01b03831615156101ac61013f565b50919050565b8161014d5761014d81610151565b5050565b62461bcd60e51b6000908152602060045260076024526642414c23000030600a808404818106603090810160081b95839006959095019082900491820690940160101b939093010160c81b604452606490fd5b6159838062000cdf83390190565b6000602082840312156101c3578081fd5b81516001600160a01b03811681146101d9578182fd5b9392505050565b60805160601c60a05160c05160601c60e0516101005160601c61012051610a9d620002426000398061028452806102ad52508061030852508061038452508061025b52806104005250806103a552508061023a52806103dc5250610a9d6000f3fe608060405234801561001057600080fd5b50600436106100615760003560e01c8062c194db146100665780631596019b14610084578063174481fa146100a45780632da47c40146100ba5780636634b753146100d05780638d928af8146100f0575b600080fd5b61006e6100f8565b60405161007b9190610901565b60405180910390f35b610097610092366004610795565b610117565b60405161007b91906108c8565b6100ac610238565b60405161007b9291906108dc565b6100c261027e565b60405161007b9291906109fa565b6100e36100de366004610779565b6102e8565b60405161007b91906108f6565b610097610306565b60606101126040518060200160405280600081525061037c565b905090565b600080600061012461027e565b91509150610130610593565b604051806101800160405280610144610306565b6001600160a01b031681526020018c81526020018b81526020018a60008151811061016b57fe5b60200260200101516001600160a01b031681526020018a60018151811061018e57fe5b60200260200101516001600160a01b03168152602001896000815181106101b157fe5b60200260200101518152602001896001815181106101cb57fe5b602002602001015181526020018881526020018481526020018381526020018715158152602001866001600160a01b03168152509050610229816040516020016102159190610914565b604051602081830303815290604052610455565b9b9a5050505050505050505050565b7f00000000000000000000000000000000000000000000000000000000000000007f00000000000000000000000000000000000000000000000000000000000000009091565b600080427f00000000000000000000000000000000000000000000000000000000000000008110156102da57807f000000000000000000000000000000000000000000000000000000000000000003925062278d0091506102e3565b60009250600091505b509091565b6001600160a01b031660009081526020819052604090205460ff1690565b7f000000000000000000000000000000000000000000000000000000000000000090565b80517f602038038060206000396000f3fefefefefefefefefefefefefefefefefefefe808352600091602081018484f090845291506103766001600160a01b03831615156101ac6104b5565b50919050565b8051604080517f00000000000000000000000000000000000000000000000000000000000000007f0000000000000000000000000000000000000000000000000000000000000000818101858101848101602090810190965280855293957f00000000000000000000000000000000000000000000000000000000000000009592947f000000000000000000000000000000000000000000000000000000000000000094938801866000828a3c846000888301883c50602089810190898501016104478183866104c7565b505050505050505050919050565b60008061046183610505565b6001600160a01b038116600081815260208190526040808220805460ff191660011790555192935090917f83a48fbcfc991335314e74d0496aab6a1987e992ddc85dddbcc4d6dd6ef2e9fc9190a292915050565b816104c3576104c381610540565b5050565b5b602081106104e7578151835260209283019290910190601f19016104c8565b905182516020929092036101000a6000190180199091169116179052565b600060606105128361037c565b905060008151602083016000f090506001600160a01b038116610539573d6000803e3d6000fd5b9392505050565b62461bcd60e51b6000908152602060045260076024526642414c23000030600a808404818106603090810160081b95839006959095019082900491820690940160101b939093010160c81b604452606490fd5b60405180610180016040528060006001600160a01b03168152602001606081526020016060815260200160006001600160a01b0316815260200160006001600160a01b03168152602001600081526020016000815260200160008152602001600081526020016000815260200160001515815260200160006001600160a01b031681525090565b803561062581610a4f565b92915050565b600082601f83011261063b578081fd5b813561064e61064982610a2f565b610a08565b81815291506020808301908481018184028601820187101561066f57600080fd5b60005b8481101561069757813561068581610a4f565b84529282019290820190600101610672565b505050505092915050565b600082601f8301126106b2578081fd5b81356106c061064982610a2f565b8181529150602080830190848101818402860182018710156106e157600080fd5b60005b84811015610697578135845292820192908201906001016106e4565b8035801515811461062557600080fd5b600082601f830112610720578081fd5b813567ffffffffffffffff811115610736578182fd5b610749601f8201601f1916602001610a08565b915080825283602082850101111561076057600080fd5b8060208401602084013760009082016020015292915050565b60006020828403121561078a578081fd5b813561053981610a4f565b600080600080600080600060e0888a0312156107af578283fd5b873567ffffffffffffffff808211156107c6578485fd5b6107d28b838c01610710565b985060208a01359150808211156107e7578485fd5b6107f38b838c01610710565b975060408a0135915080821115610808578485fd5b6108148b838c0161062b565b965060608a0135915080821115610829578485fd5b506108368a828b016106a2565b9450506080880135925061084d8960a08a01610700565b915061085c8960c08a0161061a565b905092959891949750929550565b6001600160a01b03169052565b15159052565b60008151808452815b818110156108a257602081850181015186830182015201610886565b818111156108b35782602083870101525b50601f01601f19169290920160200192915050565b6001600160a01b0391909116815260200190565b6001600160a01b0392831681529116602082015260400190565b901515815260200190565b600060208252610539602083018461087d565b60006020825261092860208301845161086a565b60208301516101808060408501526109446101a085018361087d565b91506040850151601f19858403016060860152610961838261087d565b9250506060850151610976608086018261086a565b50608085015161098960a086018261086a565b5060a085015160c085015260c085015160e085015260e08501516101008181870152808701519150506101208181870152808701519150506101408181870152808701519150506101606109df81870183610877565b86015190506109f08583018261086a565b5090949350505050565b918252602082015260400190565b60405181810167ffffffffffffffff81118282101715610a2757600080fd5b604052919050565b600067ffffffffffffffff821115610a45578081fd5b5060209081020190565b6001600160a01b0381168114610a6457600080fd5b5056fea264697066735822122009defd7adac275147679c06e2744be7f0998a9605b026449f0c43867f9602dac64736f6c634300070100336102a06040527f6e71edae12b1b97f4d1f60370fef10105fa2faae0126114a169c64845d6126c9610120523480156200003757600080fd5b5060405162005983380380620059838339810160408190526200005a9162000832565b6101008101516101208201516020808401516040808601518651825180840190935260018352603160f81b838601526101608801513360805260601b6001600160601b03191660a05283519394919390928592839283918791620000c59160039190850190620006c5565b508051620000db906004906020840190620006c5565b505060058054601260ff1990911617905550815160209283012060c052805191012060e052507f8b73c3c69bb8fe3d512ecc4cf759cc79239f7b179b0ffacaa9a75d522b39400f6101005260601b6001600160601b03191661014052506200014e90506276a70083111561019462000430565b6200016262278d0082111561019562000430565b429091016101608190520161018052610140810151620001829062000445565b60e08101516200019290620004a1565b80516040516309b2760f60e01b81526000916001600160a01b0316906309b2760f90620001c59060029060040162000a38565b602060405180830381600087803b158015620001e057600080fd5b505af1158015620001f5573d6000803e3d6000fd5b505050506040513d601f19601f820116820180604052508101906200021b919062000819565b6040805160028082526060808301845293945090916020830190803683370190505090508260600151816000815181106200025257fe5b60200260200101906001600160a01b031690816001600160a01b0316815250508260800151816001815181106200028557fe5b6001600160a01b0392831660209182029290920101528351166366a9c7d283836002604051908082528060200260200182016040528015620002d1578160200160208202803683370190505b506040518463ffffffff1660e01b8152600401620002f2939291906200099c565b600060405180830381600087803b1580156200030d57600080fd5b505af115801562000322573d6000803e3d6000fd5b5050506101a083905250606080840180516001600160601b031990831b81166101c052608086015190921b9091166101e0525162000360906200051f565b61026052608083015162000374906200051f565b6102805260a08301516200039590662386f26fc10000111561012e62000430565b620003b7662386f26fc100008460c00151101561012e6200043060201b60201c565b6000620003db8460c001518560a00151620005c160201b620012df1790919060201c565b9050620003f5670de0b6b3a7640000821461013462000430565b60a0840180516102005260c0850180516102205251905110156200041b5760016200041e565b60005b60ff16610240525062000a8992505050565b8162000441576200044181620005de565b5050565b62000461816009546200063160201b620012f81790919060201c565b6009556040517f3e350b41e86a8e10f804ade6d35340d620be35569cc75ac943e8bb14ab80ead1906200049690839062000991565b60405180910390a150565b620004b664e8d4a5100082101560cb62000430565b620004ce67016345785d8a000082111560ca62000430565b620004ea816009546200065060201b620013061790919060201c565b6009556040517fa9ba3ffe0b6c366b81232caab38605a0699ad5398d6cce76f91ee809e322dafc906200049690839062000a4d565b600080826001600160a01b031663313ce5676040518163ffffffff1660e01b815260040160206040518083038186803b1580156200055c57600080fd5b505afa15801562000571573d6000803e3d6000fd5b505050506040513d601f19601f820116820180604052508101906200059791906200096e565b60ff1690506000620005b66012836200066f60201b620013141760201c565b600a0a949350505050565b6000828201620005d5848210158362000430565b90505b92915050565b62461bcd60e51b6000908152602060045260076024526642414c23000030600a808404818106603090810160081b95839006959095019082900491820690940160101b939093010160c81b604452606490fd5b6000620005d5826055856200068760201b6200132a179092919060201c565b6000620005d582605685620006b060201b62001351179092919060201c565b60006200068183831115600162000430565b50900390565b60006001821b19841682846200069f576000620006a2565b60015b60ff16901b17949350505050565b6001600160401b03811b1992909216911b1790565b828054600181600116156101000203166002900490600052602060002090601f016020900481019282601f106200070857805160ff191683800117855562000738565b8280016001018555821562000738579182015b82811115620007385782518255916020019190600101906200071b565b50620007469291506200074a565b5090565b5b808211156200074657600081556001016200074b565b80516001600160a01b0381168114620005d857600080fd5b80518015158114620005d857600080fd5b600082601f8301126200079b578081fd5b81516001600160401b03811115620007b1578182fd5b6020620007c7601f8301601f1916820162000a56565b92508183528481838601011115620007de57600080fd5b60005b82811015620007fe578481018201518482018301528101620007e1565b82811115620008105760008284860101525b50505092915050565b6000602082840312156200082b578081fd5b5051919050565b60006020828403121562000844578081fd5b81516001600160401b03808211156200085b578283fd5b818401915061018080838703121562000872578384fd5b6200087d8162000a56565b90506200088b868462000761565b81526020830151828111156200089f578485fd5b620008ad878286016200078a565b602083015250604083015182811115620008c5578485fd5b620008d3878286016200078a565b604083015250620008e8866060850162000761565b6060820152620008fc866080850162000761565b608082015260a0838101519082015260c0808401519082015260e08084015190820152610100808401519082015261012080840151908201526101409150620009488683850162000779565b8282015261016091506200095f8683850162000761565b91810191909152949350505050565b60006020828403121562000980578081fd5b815160ff81168114620005d5578182fd5b901515815260200190565b60006060820185835260206060818501528186518084526080860191508288019350845b81811015620009e857620009d5855162000a7d565b83529383019391830191600101620009c0565b505084810360408601528551808252908201925081860190845b8181101562000a2a5762000a17835162000a7d565b8552938301939183019160010162000a02565b509298975050505050505050565b602081016003831062000a4757fe5b91905290565b90815260200190565b6040518181016001600160401b038111828210171562000a7557600080fd5b604052919050565b6001600160a01b031690565b60805160a05160601c60c05160e05161010051610120516101405160601c61016051610180516101a0516101c05160601c6101e05160601c6102005161022051610240516102605161028051614e2262000b6160003980611d73525080611d9a5250806124a752806124db5280612517525080611dc75280611e63525080611dee5280611e415280611e9152505080610cf65250806108ae5250806114bd525080611499525080610c4452508061105d5250806116e952508061172b52508061170a525080610c20525080610bab5250614e226000f3fe608060405234801561001057600080fd5b50600436106102535760003560e01c806370a0823111610146578063a457c2d7116100c3578063c0ff1a1511610087578063c0ff1a15146104f7578063d505accf146104ff578063d5c096c414610512578063dd62ed3e14610525578063f89f27ed14610538578063ffd088eb1461054057610253565b8063a457c2d7146104ae578063a9059cbb146104c1578063aaabadc5146104d4578063b10be739146104dc578063b48b5b40146104ef57610253565b8063893d20e81161010a578063893d20e81461046e5780638d928af81461048357806395d89b411461048b5780639b02cdde146104935780639d2c110c1461049b57610253565b806370a082311461040157806374f3b009146104145780637ecebe0014610435578063851c1bb31461044857806387ec68171461045b57610253565b80633644e515116101d457806355c676281161019857806355c676281461038a5780636028bfd41461039257806360d1507c146103b3578063679aefce146103d95780636b843239146103e157610253565b80633644e5151461033a57806338e9922e1461034257806338fff2d014610355578063395093511461035d5780634a6b0b151461037057610253565b80631dccd8301161021b5780631dccd830146102d757806323b872dd146102f7578063292c914a1461030a578063313ce567146103125780633331bc361461032757610253565b806306fdde0314610258578063095ea7b31461027657806316c38b3c1461029657806318160ddd146102ab5780631c0de051146102c0575b600080fd5b610260610548565b60405161026d9190614cf3565b60405180910390f35b6102896102843660046143db565b6105de565b60405161026d9190614b48565b6102a96102a4366004614649565b6105f5565b005b6102b3610609565b60405161026d9190614b6b565b6102c861060f565b60405161026d93929190614b53565b6102ea6102e536600461458f565b610638565b60405161026d9190614b10565b610289610305366004614326565b61075b565b6102a96107cf565b61031a610803565b60405161026d9190614d5f565b6102a9610335366004614a1a565b61080c565b6102b3610884565b6102a9610350366004614a02565b610893565b6102b36108ac565b61028961036b3660046143db565b6108d0565b61037861090b565b60405161026d96959493929190614c41565b6102b3610966565b6103a56103a0366004614681565b610973565b60405161026d929190614d46565b6103c66103c1366004614a02565b6109a4565b60405161026d9796959493929190614c11565b6102b36109ed565b6103f46103ef3660046144d1565b610a12565b60405161026d9190614acc565b6102b361040f3660046142d2565b610ac8565b610427610422366004614681565b610ae7565b60405161026d929190614b23565b6102b36104433660046142d2565b610b8c565b6102b361045636600461477d565b610ba7565b6103a5610469366004614681565b610bf9565b610476610c1e565b60405161026d9190614ab8565b610476610c42565b610260610c66565b6102b3610cc7565b6102b36104a9366004614907565b610ccd565b6102896104bc3660046143db565b610e7c565b6102896104cf3660046143db565b610eba565b610476610ec7565b6102b36104ea3660046148d4565b610ed1565b6102b3610f66565b6102b3610f6c565b6102a961050d366004614366565b611028565b610427610520366004614681565b611171565b6102b36105333660046142ee565b611291565b6102ea6112ce565b6102b36112d8565b60038054604080516020601f60026000196101006001881615020190951694909404938401819004810282018101909252828152606093909290918301828280156105d45780601f106105a9576101008083540402835291602001916105d4565b820191906000526020600020905b8154815290600101906020018083116105b757829003601f168201915b5050505050905090565b60006105eb338484611366565b5060015b92915050565b6105fd6113ce565b610606816113fc565b50565b60025490565b600080600061061c61147a565b159250610627611497565b91506106316114bb565b9050909192565b606081516001600160401b038111801561065157600080fd5b5060405190808252806020026020018201604052801561067b578160200160208202803683370190505b50905060006106886114df565b905060005b83518110156107545773__$7d2aa5f7ef8d6b62e49cb3fca3aaf3d8f4$__6379eaef8260088684815181106106be57fe5b6020026020010151856040518463ffffffff1660e01b81526004016106e593929190614cb7565b60206040518083038186803b1580156106fd57600080fd5b505af4158015610711573d6000803e3d6000fd5b505050506040513d601f19601f8201168201806040525081019061073591906148ef565b83828151811061074157fe5b602090810291909101015260010161068d565b5050919050565b6000806107688533611291565b905061078c336001600160a01b03871614806107845750838210155b61019e6114ec565b6107978585856114fe565b336001600160a01b038616148015906107b257506000198114155b156107c4576107c48533858403611366565b506001949350505050565b6107d76115de565b6107df6113ce565b6107e960016115f1565b60006107f3610609565b111561080157610801611631565b565b60055460ff1690565b610827818310801561082057506104008211155b60646114ec565b600061083c6001600080600080600080611679565b9050825b8281101561087e57600081815260086020526040902054610860906116d9565b6108765760008181526008602052604090208290555b600101610840565b50505050565b600061088e6116e5565b905090565b61089b6113ce565b6108a36115de565b61060681611782565b7f000000000000000000000000000000000000000000000000000000000000000090565b3360008181526001602090815260408083206001600160a01b038716845290915281205490916105eb91859061090690866112df565b611366565b60008060008060008060006009549050610924816117eb565b965061092f816117f7565b955061093a81611804565b945061094581611811565b93506109508161181e565b925061095b8161182b565b915050909192939495565b600061088e60095461182b565b6000606061098386516002611838565b610998898989898989896118456118ff61197d565b97509795505050505050565b60008060008060008060006109bf610400891061013b6114ec565b60006109ca89611a9c565b90506109d581611aae565b959f949e50929c50909a509850965090945092505050565b600061088e6109fa610609565b610a0c610a05610f6c565b6002611b11565b90611b35565b606081516001600160401b0381118015610a2b57600080fd5b50604051908082528060200260200182016040528015610a55578160200160208202803683370190505b5090506000610a626114df565b9050610a6c6141bc565b60005b8451811015610ac057848181518110610a8457fe5b60200260200101519150610aa18260000151848460200151611b86565b848281518110610aad57fe5b6020908102919091010152600101610a6f565b505050919050565b6001600160a01b0381166000908152602081905260409020545b919050565b60608088610b11610af6610c42565b6001600160a01b0316336001600160a01b03161460cd6114ec565b610b26610b1c6108ac565b82146101f46114ec565b610b2f87611c1f565b6000606080610b438d8d8d8d8d8d8d611845565b925092509250610b538c84611c81565b610b5c826118ff565b610b65816118ff565b610b6d61147a565b15610b7a57610b7a611631565b909c909b509950505050505050505050565b6001600160a01b031660009081526006602052604090205490565b60007f000000000000000000000000000000000000000000000000000000000000000082604051602001610bdc929190614a75565b604051602081830303815290604052805190602001209050919050565b60006060610c0986516002611838565b61099889898989898989611c8b611d0c61197d565b7f000000000000000000000000000000000000000000000000000000000000000090565b7f000000000000000000000000000000000000000000000000000000000000000090565b60048054604080516020601f60026000196101006001881615020190951694909404938401819004810282018101909252828152606093909290918301828280156105d45780601f106105a9576101008083540402835291602001916105d4565b600a5490565b6000610cd76115de565b8360800151610ce7610af6610c42565b610cf2610b1c6108ac565b60007f00000000000000000000000000000000000000000000000000000000000000006001600160a01b031686602001516001600160a01b03161490506000610d3a82611d6a565b90506000610d488315611d6a565b90506000610d5584611dbe565b90506000610d638515611dbe565b9050610d6f8985611e12565b9850610d7b8884611e12565b9750610da48a60a0015186610d905789610d92565b8a5b87610d9d578b610d9f565b8a5b611e1e565b60008a516001811115610db357fe5b1415610e21576000610dd1610dc6610966565b60608d015190611f1f565b9050610df3610ded828d6060015161131490919063ffffffff16565b86611e12565b60608c01526000610e078c8c8c8787611f63565b9050610e138186611f82565b985050505050505050610e74565b610e2f8a6060015184611e12565b60608b01526000610e438b8b8b8686611f8e565b9050610e4f8186611fa1565b9050610e6b610e64610e5f610966565b611fad565b8290611fd3565b97505050505050505b509392505050565b600080610e893385611291565b9050808310610ea357610e9e33856000611366565b610eb0565b610eb03385858403611366565b5060019392505050565b60006105eb3384846114fe565b600061088e612015565b600073__$7d2aa5f7ef8d6b62e49cb3fca3aaf3d8f4$__630397bee0600884610ef86114df565b6040518463ffffffff1660e01b8152600401610f1693929190614c6b565b60206040518083038186803b158015610f2e57600080fd5b505af4158015610f42573d6000803e3d6000fd5b505050506040513d601f19601f820116820180604052508101906105ef91906148ef565b61040090565b60006060610f78610c42565b6001600160a01b031663f94d4668610f8e6108ac565b6040518263ffffffff1660e01b8152600401610faa9190614b6b565b60006040518083038186803b158015610fc257600080fd5b505afa158015610fd6573d6000803e3d6000fd5b505050506040513d6000823e601f3d908101601f19168201604052610ffe9190810190614406565b5091505061100b81611c1f565b606061101561208f565b905061102181836120fd565b9250505090565b6110368442111560d16114ec565b6001600160a01b038716600090815260066020908152604080832054905190929161108d917f0000000000000000000000000000000000000000000000000000000000000000918c918c918c9188918d9101614b93565b60405160208183030381529060405280519060200120905060006110b08261216f565b90506000600182888888604051600081526020016040526040516110d79493929190614bf3565b6020604051602081039080840390855afa1580156110f9573d6000803e3d6000fd5b5050604051601f190151915061113b90506001600160a01b0382161580159061113357508b6001600160a01b0316826001600160a01b0316145b6101f86114ec565b6001600160a01b038b1660009081526006602052604090206001850190556111648b8b8b611366565b5050505050505050505050565b60608088611180610af6610c42565b61118b610b1c6108ac565b6111936115de565b600061119d610609565b61120d576111ad8b8b8b8861218b565b945090506111c2620f424082101560cc6114ec565b6111d06000620f4240612214565b6111df89620f42408303612214565b6111e884611d0c565b604080516002808252606082018352909160208301908036833701905050925061127b565b61121688611c1f565b611249878960008151811061122757fe5b60200260200101518a60018151811061123c57fe5b6020026020010151611e1e565b6112588b8b8b8b8b8b8b611c8b565b909550935090506112698982612214565b61127284611d0c565b61127b836118ff565b611283611631565b505097509795505050505050565b600061129b610c42565b6001600160a01b0316826001600160a01b031614156112bd57506000196105ef565b6112c7838361221e565b90506105ef565b606061088e61208f565b6201de2090565b60008282016112f184821015836114ec565b9392505050565b60006112f18383605561132a565b60006112f183836056611351565b60006113248383111560016114ec565b50900390565b60006001821b1984168284611340576000611343565b60015b60ff16901b17949350505050565b6001600160401b03811b1992909216911b1790565b6001600160a01b0380841660008181526001602090815260408083209487168084529490915290819020849055517f8c5be1e5ebec7d5bd14f71427d1e84f3dd0314c0f7b2291e5b200ac8c7c3b925906113c1908590614b6b565b60405180910390a3505050565b60006113e56000356001600160e01b031916610ba7565b90506106066113f48233612249565b6101916114ec565b801561141c5761141761140d611497565b42106101936114ec565b611431565b6114316114276114bb565b42106101a96114ec565b6007805460ff19168215151790556040517f9e3a5e37224532dea67b89face185703738a228a6e8a23dee546960180d3be649061146f908390614b48565b60405180910390a150565b60006114846114bb565b42118061088e57505060075460ff161590565b7f000000000000000000000000000000000000000000000000000000000000000090565b7f000000000000000000000000000000000000000000000000000000000000000090565b600061088e600954611811565b816114fa576114fa81612332565b5050565b6115156001600160a01b03841615156101986114ec565b61152c6001600160a01b03831615156101996114ec565b611537838383612385565b6001600160a01b03831660009081526020819052604090205461155d90826101a061238a565b6001600160a01b03808516600090815260208190526040808220939093559084168152205461158c90826112df565b6001600160a01b0380841660008181526020819052604090819020939093559151908516907fddf252ad1be2c89b69c2b068fc378daa952ba7f163c4a11628f55a4df523b3ef906113c1908590614b6b565b6108016115e961147a565b6101926114ec565b6009546115fe90826112f8565b6009556040517f3e350b41e86a8e10f804ade6d35340d620be35569cc75ac943e8bb14ab80ead19061146f908390614b48565b60095461163d8161181e565b1561060657611657611650600a546123a0565b82906123e0565b905061167361166c611667610609565b6123a0565b82906123ed565b60095550565b600061168582826123fb565b61169084601f6123ff565b61169b866054612410565b6116a688606a6123ff565b6116b18a609f612410565b6116bc8c60b56123ff565b6116c78e60ea612410565b17171717171798975050505050505050565b60006105ef828261241d565b60007f00000000000000000000000000000000000000000000000000000000000000007f00000000000000000000000000000000000000000000000000000000000000007f0000000000000000000000000000000000000000000000000000000000000000611752612427565b30604051602001611767959493929190614bc7565b60405160208183030381529060405280519060200120905090565b61179564e8d4a5100082101560cb6114ec565b6117ab67016345785d8a000082111560ca6114ec565b6009546117b89082611306565b6009556040517fa9ba3ffe0b6c366b81232caab38605a0699ad5398d6cce76f91ee809e322dafc9061146f908390614b6b565b60006105ef828261242b565b60006105ef82601661242b565b60006105ef82602c61241d565b60006105ef82604b612452565b60006105ef82605561245a565b60006105ef826056612464565b6114fa81831460676114ec565b6000606080606061185461208f565b905061185e61147a565b156118a657611874878960008151811061122757fe5b6000611880828a6120fd565b90506118918983600a54848b612471565b92506118a08984611314612555565b506118c7565b60408051600280825260608201835290916020830190803683370190505091505b6118d28882876125e7565b90945092506118e48884611314612555565b6118ee81896120fd565b600a55509750975097945050505050565b6119268160008151811061190f57fe5b60200260200101516119216001611d6a565b612673565b8160008151811061193357fe5b6020026020010181815250506119618160018151811061194f57fe5b60200260200101516119216000611d6a565b8160018151811061196e57fe5b60200260200101818152505050565b333014611a3b576000306001600160a01b03166000366040516119a1929190614a8d565b6000604051808303816000865af19150503d80600081146119de576040519150601f19603f3d011682016040523d82523d6000602084013e6119e3565b606091505b5050905080600081146119f257fe5b60046000803e6000516001600160e01b0319166343adbafb60e01b8114611a1d573d6000803e3d6000fd5b506020600460003e604060205260243d03602460403e601c3d016000f35b611a4486611c1f565b60006060611a5b8b8b8b8b8b8b8b8b63ffffffff16565b5091509150611a6d818463ffffffff16565b8051601f1982018390526343adbafb603f1983015260200260231982016044820181fd5b505050505050505050565b60009081526008602052604090205490565b6000806000806000806000611ac288612693565b9650611acd886126a0565b9550611ad8886126ad565b9450611ae3886126ba565b9350611aee886126c7565b9250611af9886126d4565b9150611b04886116d9565b9050919395979092949650565b60008282026112f1841580611b2e575083858381611b2b57fe5b04145b60036114ec565b6000611b4482151560046114ec565b82611b51575060006105ef565b670de0b6b3a764000083810290611b7490858381611b6b57fe5b041460056114ec565b828181611b7d57fe5b049150506105ef565b6040516334171a8560e01b815260009073__$7d2aa5f7ef8d6b62e49cb3fca3aaf3d8f4$__906334171a8590611bc790600890889088908890600401614c8c565b60206040518083038186803b158015611bdf57600080fd5b505af4158015611bf3573d6000803e3d6000fd5b505050506040513d601f19601f82011682018060405250810190611c1791906148ef565b949350505050565b611c4681600081518110611c2f57fe5b6020026020010151611c416001611d6a565b611b11565b81600081518110611c5357fe5b60200260200101818152505061196181600181518110611c6f57fe5b6020026020010151611c416000611d6a565b6114fa82826126e1565b60006060806060611c9a61208f565b90506000611ca8828a6120fd565b90506060611cbb8a84600a54858c612471565b9050611cca8a82611314612555565b60006060611cd98c868b61279d565b91509150611cea8c826112df612555565b611cf4858d6120fd565b600a55909e909d50909b509950505050505050505050565b611d3381600081518110611d1c57fe5b6020026020010151611d2e6001611d6a565b612815565b81600081518110611d4057fe5b60200260200101818152505061196181600181518110611d5c57fe5b6020026020010151611d2e60005b600081611d97577f00000000000000000000000000000000000000000000000000000000000000006105ef565b507f0000000000000000000000000000000000000000000000000000000000000000919050565b600081611deb577f00000000000000000000000000000000000000000000000000000000000000006105ef565b507f0000000000000000000000000000000000000000000000000000000000000000919050565b60006112f18383611b11565b600954611e2a8161181e565b8015611e3557508343115b1561087e576000611e887f0000000000000000000000000000000000000000000000000000000000000000857f000000000000000000000000000000000000000000000000000000000000000086612848565b90506000611ebf7f000000000000000000000000000000000000000000000000000000000000000086611eba866117f7565b61287d565b90506000611ecc84611811565b90506000611ed985611804565b90506000611ef282848787611eed8b6117eb565b6128a4565b9050808314611a9157611f0586826128fb565b9550611f118642612909565b600955505050505050505050565b6000828202611f39841580611b2e575083858381611b2b57fe5b80611f485760009150506105ef565b670de0b6b3a764000060001982015b046001019150506105ef565b6000611f76858486858a60600151612917565b90505b95945050505050565b60006112f18383612673565b6000611f76858486858a60600151612992565b60006112f18383612815565b6000670de0b6b3a76400008210611fc55760006105ef565b50670de0b6b3a76400000390565b6000611fe282151560046114ec565b82611fef575060006105ef565b670de0b6b3a76400008381029061200990858381611b6b57fe5b826001820381611f5757fe5b600061201f610c42565b6001600160a01b031663aaabadc56040518163ffffffff1660e01b815260040160206040518083038186803b15801561205757600080fd5b505afa15801561206b573d6000803e3d6000fd5b505050506040513d601f19601f8201168201806040525081019061088e91906147a5565b6040805160028082526060808301845292839291906020830190803683370190505090506120bd6001611dbe565b816000815181106120ca57fe5b6020026020010181815250506120e06000611dbe565b816001815181106120ed57fe5b6020908102919091010152905090565b670de0b6b3a764000060005b835181101561215f5761215561214e85838151811061212457fe5b602002602001015185848151811061213857fe5b6020026020010151612a0890919063ffffffff16565b8390612a57565b9150600101612109565b506105ef600082116101376114ec565b60006121796116e5565b82604051602001610bdc929190614a9d565b60006060600061219a84612a83565b90506121b560008260038111156121ad57fe5b1460ce6114ec565b60606121c085612a99565b90506121ce81516002611838565b6121d781611c1f565b60606121e161208f565b905060006121ef82846120fd565b905060006121fe826002611b11565b600a929092555099919850909650505050505050565b6114fa8282612aaf565b6001600160a01b03918216600090815260016020908152604080832093909416825291909152205490565b600073ba1ba1ba1ba1ba1ba1ba1ba1ba1ba1ba1ba1ba1b612268610c1e565b6001600160a01b031614158015612283575061228383612b3d565b156122ab57612290610c1e565b6001600160a01b0316336001600160a01b03161490506105ef565b6122b3612015565b6001600160a01b0316639be2a8848484306040518463ffffffff1660e01b81526004016122e293929190614b74565b60206040518083038186803b1580156122fa57600080fd5b505afa15801561230e573d6000803e3d6000fd5b505050506040513d601f19601f820116820180604052508101906112c79190614665565b62461bcd60e51b6000908152602060045260076024526642414c23000030600a808404818106603090810160081b95839006959095019082900491820690940160101b939093010160c81b604452606490fd5b505050565b600061239984841115836114ec565b5050900390565b6000806123ac83612b6f565b905060008082136123c557652d79883d200082036123cf565b652d79883d200082015b655af3107a40009005949350505050565b60006112f1838383612bd3565b60006112f183836016612bd3565b1b90565b661fffffffffffff91909116901b90565b623fffff91909116901b90565b1c637fffffff1690565b4690565b600082821c623fffff16621fffff81136124455780611c17565b623fffff19179392505050565b1c6103ff1690565b1c60019081161490565b1c6001600160401b031690565b604080516002808252606080830184529283929190602083019080368337019050509050826124a1579050611f79565b612514877f0000000000000000000000000000000000000000000000000000000000000000815181106124d057fe5b6020026020010151877f00000000000000000000000000000000000000000000000000000000000000008151811061250457fe5b6020026020010151878787612bea565b817f00000000000000000000000000000000000000000000000000000000000000008151811061254057fe5b60209081029190910101529695505050505050565b61258b8360008151811061256557fe5b60200260200101518360008151811061257a57fe5b60200260200101518363ffffffff16565b8360008151811061259857fe5b6020026020010181815250506125c9836001815181106125b457fe5b60200260200101518360018151811061257a57fe5b836001815181106125d657fe5b602002602001018181525050505050565b6000606060006125f684612a83565b9050600081600381111561260657fe5b141561262157612617868686612c62565b925092505061266b565b600181600381111561262f57fe5b141561263f576126178685612d13565b600281600381111561264d57fe5b141561265e57612617868686612d45565b612669610150612332565b505b935093915050565b600061268282151560046114ec565b81838161268b57fe5b049392505050565b60006105ef8260ea61242b565b60006105ef8260b5612db2565b60006105ef82609f61242b565b60006105ef82606a612db2565b60006105ef82605461242b565b60006105ef82601f612db2565b6126f86001600160a01b038316151561019b6114ec565b61270482600083612385565b6001600160a01b03821660009081526020819052604090205461272a90826101a161238a565b6001600160a01b0383166000908152602081905260409020556002546127509082612de5565b6002556040516000906001600160a01b038416907fddf252ad1be2c89b69c2b068fc378daa952ba7f163c4a11628f55a4df523b3ef90612791908590614b6b565b60405180910390a35050565b6000606060006127ac84612a83565b905060018160038111156127bc57fe5b14156127cd57612617868686612df3565b60028160038111156127db57fe5b14156127ec57612617868686612e4a565b60038160038111156127fa57fe5b141561280a576126178685612ecd565b612669610136612332565b600061282482151560046114ec565b82612831575060006105ef565b81600184038161283d57fe5b0460010190506105ef565b6000806128686128588486611fd3565b6128628789611fd3565b90611fd3565b9050612873816123a0565b9695505050505050565b60008061288a8486611fd3565b90506000612897826123a0565b9390930395945050505050565b6000806128c0858585426128b78b611a9c565b93929190612ef2565b90506078428890031015806128d557866128de565b6128de87612f44565b600081815260086020526040902092909255509695505050505050565b60006112f18383604b612f51565b60006112f18383602c612f61565b600061293961292e87670429d069189e0000612a57565b8311156101306114ec565b600061294587846112df565b905060006129538883611fd3565b905060006129618887611b35565b9050600061296f8383612f73565b905061298461297d82611fad565b8990612a57565b9a9950505050505050505050565b60006129b46129a985670429d069189e0000612a57565b8311156101316114ec565b60006129ca6129c38685611314565b8690611fd3565b905060006129d88588611fd3565b905060006129e68383612f73565b905060006129fc82670de0b6b3a7640000611314565b90506129848a82611f1f565b600080612a158484612f9f565b90506000612a2f612a2883612710611f1f565b60016112df565b905080821015612a44576000925050506105ef565b612a4e8282611314565b925050506105ef565b6000828202612a71841580611b2e575083858381611b2b57fe5b670de0b6b3a764000090049392505050565b6000818060200190518101906105ef91906147c1565b6060818060200190518101906112f19190614886565b612abb60008383612385565b600254612ac890826112df565b6002556001600160a01b038216600090815260208190526040902054612aee90826112df565b6001600160a01b0383166000818152602081905260408082209390935591519091907fddf252ad1be2c89b69c2b068fc378daa952ba7f163c4a11628f55a4df523b3ef90612791908590614b6b565b6000612b4f631c74c91760e11b610ba7565b8214806105ef5750612b676350dd6ed960e01b610ba7565b909114919050565b6000612b7f6000831360646114ec565b670c7d713b49da000082138015612b9d5750670f43fc2c04ee000082125b15612bc357670de0b6b3a7640000612bb4836130a0565b81612bbb57fe5b059050610ae2565b612bcc826131be565b9050610ae2565b623fffff828116821b90821b198416179392505050565b6000838311612bfb57506000611f79565b6000612c078585611fd3565b90506000612c1d670de0b6b3a764000088611b35565b9050612c31826709b6e64a8ec6000061355d565b91506000612c3f8383612f73565b90506000612c56612c4f83611fad565b8b90612a57565b90506129848187612a57565b60006060612c6e6115de565b600080612c7a85613574565b91509150612c8c6002821060646114ec565b6040805160028082526060808301845292602083019080368337019050509050612ced888381518110612cbb57fe5b6020026020010151888481518110612ccf57fe5b602002602001015185612ce0610609565b612ce8610966565b613596565b50818381518110612cfa57fe5b6020908102919091010152919791965090945050505050565b600060606000612d228461364c565b90506060612d388683612d33610609565b613662565b9196919550909350505050565b60006060612d516115de565b60606000612d5e85613713565b91509150612d6e82516002611838565b612d7782611c1f565b6000612d94888885612d87610609565b612d8f610966565b61372b565b509050612da58282111560cf6114ec565b9791965090945050505050565b600082821c661fffffffffffff16660fffffffffffff8113612dd45780611c17565b661fffffffffffff19179392505050565b60006112f18383600161238a565b60006060806000612e0385613713565b91509150612e1382516002611838565b612e1c82611c1f565b6000612e39888885612e2c610609565b612e34610966565b613874565b509050612da58282101560d06114ec565b60006060600080612e5a85613574565b91509150612e6c6002821060646114ec565b6040805160028082526060808301845292602083019080368337019050509050612ced888381518110612e9b57fe5b6020026020010151888481518110612eaf57fe5b602002602001015185612ec0610609565b612ec8610966565b6139ad565b600060606000612edc8461364c565b90506060612d388683612eed610609565b613a7c565b600080612efe876116d9565b830390506000818702612f10896126a0565b0190506000828702612f218a6126ba565b0190506000838702612f328b6126d4565b01905061298489848a858b868c611679565b60006105ef826001613b0d565b6103ff811b1992909216911b1790565b637fffffff811b1992909216911b1790565b600080612f808484612f9f565b90506000612f93612a2883612710611f1f565b9050611f7982826112df565b600081612fb55750670de0b6b3a76400006105ef565b82612fc2575060006105ef565b612fd3600160ff1b841060066114ec565b82612ff9770bce5086492111aea88f4bb1ca6bcf584181ea8059f76532841060076114ec565b826000670c7d713b49da00008313801561301a5750670f43fc2c04ee000083125b1561305157600061302a846130a0565b9050670de0b6b3a764000080820784020583670de0b6b3a76400008305020191505061305f565b8161305b846131be565b0290505b670de0b6b3a76400009005613097680238fd42c5cf03ffff198212801590613090575068070c1cc73b00c800008213155b60086114ec565b61287381613b15565b670de0b6b3a7640000026000806a0c097ce7bc90715b34b9f160241b808401906ec097ce7bc90715b34b9f0fffffffff19850102816130db57fe5b05905060006a0c097ce7bc90715b34b9f160241b82800205905081806a0c097ce7bc90715b34b9f160241b81840205915060038205016a0c097ce7bc90715b34b9f160241b82840205915060058205016a0c097ce7bc90715b34b9f160241b82840205915060078205016a0c097ce7bc90715b34b9f160241b82840205915060098205016a0c097ce7bc90715b34b9f160241b828402059150600b8205016a0c097ce7bc90715b34b9f160241b828402059150600d8205016a0c097ce7bc90715b34b9f160241b828402059150600f826002919005919091010295945050505050565b6000670de0b6b3a76400008212156131fa576131f0826a0c097ce7bc90715b34b9f160241b816131ea57fe5b056131be565b6000039050610ae2565b60007e1600ef3172e58d2e933ec884fde10064c63b5372d805e203c0000000000000831261324b57770195e54c5dd42177f53a27172fa9ec630262827000000000830592506806f05b59d3b2000000015b73011798004d755d3c8bc8e03204cf44619e0000008312613283576b1425982cf597cd205cef7380830592506803782dace9d9000000015b606492830292026e01855144814a7ff805980ff008400083126132cb576e01855144814a7ff805980ff008400068056bc75e2d63100000840205925068ad78ebc5ac62000000015b6b02df0ab5a80a22c61ab5a7008312613306576b02df0ab5a80a22c61ab5a70068056bc75e2d6310000084020592506856bc75e2d631000000015b693f1fce3da636ea5cf850831261333d57693f1fce3da636ea5cf85068056bc75e2d631000008402059250682b5e3af16b18800000015b690127fa27722cc06cc5e2831261337457690127fa27722cc06cc5e268056bc75e2d6310000084020592506815af1d78b58c400000015b68280e60114edb805d0383126133a95768280e60114edb805d0368056bc75e2d631000008402059250680ad78ebc5ac6200000015b680ebc5fb4174612111083126133d457680ebc5fb4174612111068056bc75e2d631000009384020592015b6808f00f760a4b2db55d8312613409576808f00f760a4b2db55d68056bc75e2d6310000084020592506802b5e3af16b1880000015b6806f5f1775788937937831261343e576806f5f177578893793768056bc75e2d63100000840205925068015af1d78b58c40000015b6806248f33704b2866038312613472576806248f33704b28660368056bc75e2d63100000840205925067ad78ebc5ac620000015b6805c548670b9510e7ac83126134a6576805c548670b9510e7ac68056bc75e2d6310000084020592506756bc75e2d6310000015b600068056bc75e2d63100000840168056bc75e2d6310000080860302816134c957fe5b059050600068056bc75e2d63100000828002059050818068056bc75e2d63100000818402059150600382050168056bc75e2d63100000828402059150600582050168056bc75e2d63100000828402059150600782050168056bc75e2d63100000828402059150600982050168056bc75e2d63100000828402059150600b820501600202606485820105979650505050505050565b60008183101561356d57816112f1565b5090919050565b6000808280602001905181019061358b9190614850565b909590945092505050565b600080806135a8856128628189611314565b90506135c16709b6e64a8ec600008210156101326114ec565b60006135df6135d8670de0b6b3a76400008a611b35565b8390612f73565b905060006135ef612c4f83611fad565b905060006135fc8a611fad565b9050600061360a8383611f1f565b905060006136188483611314565b9050613624828a611f1f565b965061363a6136338389611314565b82906112df565b97505050505050509550959350505050565b6000818060200190518101906112f19190614823565b606060006136708484611b35565b9050606085516001600160401b038111801561368b57600080fd5b506040519080825280602002602001820160405280156136b5578160200160208202803683370190505b50905060005b8651811015613709576136ea838883815181106136d457fe5b6020026020010151612a5790919063ffffffff16565b8282815181106136f657fe5b60209081029190910101526001016136bb565b5095945050505050565b606060008280602001905181019061358b91906147dd565b600060608085516001600160401b038111801561374757600080fd5b50604051908082528060200260200182016040528015613771578160200160208202803683370190505b5090506000805b8951811015613836576137d18a828151811061379057fe5b60200260200101516128628a84815181106137a757fe5b60200260200101518d85815181106137bb57fe5b602002602001015161131490919063ffffffff16565b8382815181106137dd57fe5b60200260200101818152505061382c6138258a83815181106137fb57fe5b602002602001015185848151811061380f57fe5b6020026020010151611f1f90919063ffffffff16565b83906112df565b9150600101613778565b50600060606138498b8b8b87878c613eea565b91509150600061386261385b84611fad565b8a90611f1f565b9c919b50909950505050505050505050565b600060608085516001600160401b038111801561389057600080fd5b506040519080825280602002602001820160405280156138ba578160200160208202803683370190505b5090506000805b89518110156139625761391a8a82815181106138d957fe5b6020026020010151610a0c8a84815181106138f057fe5b60200260200101518d858151811061390457fe5b60200260200101516112df90919063ffffffff16565b83828151811061392657fe5b6020026020010181815250506139586138258a838151811061394457fe5b60200260200101518584815181106136d457fe5b91506001016138c1565b50600060606139758b8b8b87878c61406e565b915091506000670de0b6b3a76400008311613991576000613862565b6138626139a684670de0b6b3a7640000611314565b8a90612a57565b600080806139bf8561286281896112df565b90506139d86729a2241af62c00008211156101336114ec565b60006139ef6135d8670de0b6b3a76400008a611fd3565b90506000613a0f613a0883670de0b6b3a7640000611314565b8b90611f1f565b90506000613a1c8a611fad565b90506000613a2a8383611f1f565b90506000613a388483611314565b90506000613a58613a51670de0b6b3a76400008c611314565b8490611fd3565b83810398509050613a6982826112df565b9850505050505050509550959350505050565b60606000613a8a8484611fd3565b9050606085516001600160401b0381118015613aa557600080fd5b50604051908082528060200260200182016040528015613acf578160200160208202803683370190505b50905060005b865181101561370957613aee8388838151811061380f57fe5b828281518110613afa57fe5b6020908102919091010152600101613ad5565b016103ff1690565b6000613b44680238fd42c5cf03ffff198312158015613b3d575068070c1cc73b00c800008313155b60096114ec565b6000821215613b6f57613b5982600003613b15565b6a0c097ce7bc90715b34b9f160241b81612bbb57fe5b60006806f05b59d3b20000008312613baf57506806f05b59d3b1ffffff1990910190770195e54c5dd42177f53a27172fa9ec630262827000000000613be5565b6803782dace9d90000008312613be157506803782dace9d8ffffff19909101906b1425982cf597cd205cef7380613be5565b5060015b6064929092029168056bc75e2d6310000068ad78ebc5ac620000008412613c355768ad78ebc5ac61ffffff199093019268056bc75e2d631000006e01855144814a7ff805980ff008400082020590505b6856bc75e2d6310000008412613c71576856bc75e2d630ffffff199093019268056bc75e2d631000006b02df0ab5a80a22c61ab5a70082020590505b682b5e3af16b188000008412613cab57682b5e3af16b187fffff199093019268056bc75e2d63100000693f1fce3da636ea5cf85082020590505b6815af1d78b58c4000008412613ce5576815af1d78b58c3fffff199093019268056bc75e2d63100000690127fa27722cc06cc5e282020590505b680ad78ebc5ac62000008412613d1e57680ad78ebc5ac61fffff199093019268056bc75e2d6310000068280e60114edb805d0382020590505b68056bc75e2d631000008412613d575768056bc75e2d630fffff199093019268056bc75e2d63100000680ebc5fb4174612111082020590505b6802b5e3af16b18800008412613d90576802b5e3af16b187ffff199093019268056bc75e2d631000006808f00f760a4b2db55d82020590505b68015af1d78b58c400008412613dc95768015af1d78b58c3ffff199093019268056bc75e2d631000006806f5f177578893793782020590505b68056bc75e2d631000008481019085906002908280020505918201919050600368056bc75e2d631000008783020505918201919050600468056bc75e2d631000008783020505918201919050600568056bc75e2d631000008783020505918201919050600668056bc75e2d631000008783020505918201919050600768056bc75e2d631000008783020505918201919050600868056bc75e2d631000008783020505918201919050600968056bc75e2d631000008783020505918201919050600a68056bc75e2d631000008783020505918201919050600b68056bc75e2d631000008783020505918201919050600c68056bc75e2d631000008783020505918201919050606468056bc75e2d63100000848402058502059695505050505050565b6000606085516001600160401b0381118015613f0557600080fd5b50604051908082528060200260200182016040528015613f2f578160200160208202803683370190505b509050670de0b6b3a7640000915060005b8851811015614062576000868281518110613f5757fe5b6020026020010151861115613fe4576000613f80613f7488611fad565b8c85815181106136d457fe5b90506000613f94828b86815181106137bb57fe5b90506000613fb4613fad670de0b6b3a76400008a611314565b8390611fd3565b9050818103868681518110613fc557fe5b6020908102919091010152613fda83826112df565b9350505050613ffb565b878281518110613ff057fe5b602002602001015190505b60006140248b848151811061400c57fe5b6020026020010151610a0c848e87815181106137bb57fe5b905061405661404f8b858151811061403857fe5b602002602001015183612a0890919063ffffffff16565b8690612a57565b94505050600101613f40565b50965096945050505050565b6000606085516001600160401b038111801561408957600080fd5b506040519080825280602002602001820160405280156140b3578160200160208202803683370190505b509050670de0b6b3a7640000915060005b8851811015614062576000858783815181106140dc57fe5b6020026020010151111561415c576000614101613f7488670de0b6b3a7640000611314565b90506000614115828b86815181106137bb57fe5b905060006141238289611f1f565b90506141396141328383611314565b84906112df565b93508086868151811061414857fe5b602002602001018181525050505050614173565b87828151811061416857fe5b602002602001015190505b600061419c8b848151811061418457fe5b6020026020010151610a0c848e878151811061390457fe5b90506141b061404f8b858151811061403857fe5b945050506001016140c4565b604080518082019091526000808252602082015290565b80356105ef81614dbc565b600082601f8301126141ee578081fd5b81516142016141fc82614d93565b614d6d565b81815291506020808301908481018184028601820187101561422257600080fd5b60005b8481101561424157815184529282019290820190600101614225565b505050505092915050565b600082601f83011261425c578081fd5b81356001600160401b03811115614271578182fd5b614284601f8201601f1916602001614d6d565b915080825283602082850101111561429b57600080fd5b8060208401602084013760009082016020015292915050565b8035600281106105ef57600080fd5b8035600381106105ef57600080fd5b6000602082840312156142e3578081fd5b81356112f181614dbc565b60008060408385031215614300578081fd5b823561430b81614dbc565b9150602083013561431b81614dbc565b809150509250929050565b60008060006060848603121561433a578081fd5b833561434581614dbc565b9250602084013561435581614dbc565b929592945050506040919091013590565b600080600080600080600060e0888a031215614380578485fd5b873561438b81614dbc565b9650602088013561439b81614dbc565b95506040880135945060608801359350608088013560ff811681146143be578384fd5b9699959850939692959460a0840135945060c09093013592915050565b600080604083850312156143ed578182fd5b82356143f881614dbc565b946020939093013593505050565b60008060006060848603121561441a578081fd5b83516001600160401b0380821115614430578283fd5b818601915086601f830112614443578283fd5b81516144516141fc82614d93565b80828252602080830192508086018b828387028901011115614471578788fd5b8796505b8487101561449c57805161448881614dbc565b845260019690960195928101928101614475565b5089015190975093505050808211156144b3578283fd5b506144c0868287016141de565b925050604084015190509250925092565b600060208083850312156144e3578182fd5b82356001600160401b038111156144f8578283fd5b8301601f81018513614508578283fd5b80356145166141fc82614d93565b818152838101908385016040808502860187018a1015614534578788fd5b8795505b848610156145815780828b03121561454e578788fd5b61455781614d6d565b6145618b846142c3565b815282880135888201528452600195909501949286019290810190614538565b509098975050505050505050565b600060208083850312156145a1578182fd5b82356001600160401b038111156145b6578283fd5b8301601f810185136145c6578283fd5b80356145d46141fc82614d93565b818152838101908385016060808502860187018a10156145f2578788fd5b8795505b848610156145815780828b03121561460c578788fd5b61461581614d6d565b61461f8b846142c3565b815282880135888201526040808401359082015284526001959095019492860192908101906145f6565b60006020828403121561465a578081fd5b81356112f181614dd1565b600060208284031215614676578081fd5b81516112f181614dd1565b600080600080600080600060e0888a03121561469b578081fd5b873596506020808901356146ae81614dbc565b965060408901356146be81614dbc565b955060608901356001600160401b03808211156146d9578384fd5b818b0191508b601f8301126146ec578384fd5b81356146fa6141fc82614d93565b8082825285820191508585018f878886028801011115614718578788fd5b8795505b8386101561473a57803583526001959095019491860191860161471c565b509850505060808b0135955060a08b0135945060c08b0135925080831115614760578384fd5b505061476e8a828b0161424c565b91505092959891949750929550565b60006020828403121561478e578081fd5b81356001600160e01b0319811681146112f1578182fd5b6000602082840312156147b6578081fd5b81516112f181614dbc565b6000602082840312156147d2578081fd5b81516112f181614ddf565b6000806000606084860312156147f1578081fd5b83516147fc81614ddf565b60208501519093506001600160401b03811115614817578182fd5b6144c0868287016141de565b60008060408385031215614835578182fd5b825161484081614ddf565b6020939093015192949293505050565b600080600060608486031215614864578081fd5b835161486f81614ddf565b602085015160409095015190969495509392505050565b60008060408385031215614898578182fd5b82516148a381614ddf565b60208401519092506001600160401b038111156148be578182fd5b6148ca858286016141de565b9150509250929050565b6000602082840312156148e5578081fd5b6112f183836142c3565b600060208284031215614900578081fd5b5051919050565b60008060006060848603121561491b578081fd5b83356001600160401b0380821115614931578283fd5b8186019150610120808389031215614947578384fd5b61495081614d6d565b905061495c88846142b4565b815261496b88602085016141d3565b602082015261497d88604085016141d3565b6040820152606083013560608201526080830135608082015260a083013560a08201526149ad8860c085016141d3565b60c08201526149bf8860e085016141d3565b60e082015261010080840135838111156149d7578586fd5b6149e38a82870161424c565b9183019190915250976020870135975060409096013595945050505050565b600060208284031215614a13578081fd5b5035919050565b60008060408385031215614a2c578182fd5b50508035926020909101359150565b6000815180845260208085019450808401835b83811015614a6a57815187529582019590820190600101614a4e565b509495945050505050565b9182526001600160e01b031916602082015260240190565b6000828483379101908152919050565b61190160f01b81526002810192909252602282015260420190565b6001600160a01b0391909116815260200190565b6020808252825182820181905260009190848201906040850190845b81811015614b0457835183529284019291840191600101614ae8565b50909695505050505050565b6000602082526112f16020830184614a3b565b600060408252614b366040830185614a3b565b8281036020840152611f798185614a3b565b901515815260200190565b92151583526020830191909152604082015260600190565b90815260200190565b9283526001600160a01b03918216602084015216604082015260600190565b9586526001600160a01b0394851660208701529290931660408501526060840152608083019190915260a082015260c00190565b9485526020850193909352604084019190915260608301526001600160a01b0316608082015260a00190565b93845260ff9290921660208401526040830152606082015260800190565b968752602087019590955260408601939093526060850191909152608084015260a083015260c082015260e00190565b9586526020860194909452604085019290925260608401521515608083015260a082015260c00190565b83815260608101614c7b84614db2565b602082019390935260400152919050565b84815260808101614c9c85614db2565b84602083015283604083015282606083015295945050505050565b838152825160a0820190614cca81614db2565b806020840152506020840151604083015260408401516060830152826080830152949350505050565b6000602080835283518082850152825b81811015614d1f57858101830151858201604001528201614d03565b81811115614d305783604083870101525b50601f01601f1916929092016040019392505050565b600083825260406020830152611c176040830184614a3b565b60ff91909116815260200190565b6040518181016001600160401b0381118282101715614d8b57600080fd5b604052919050565b60006001600160401b03821115614da8578081fd5b5060209081020190565b6003811061060657fe5b6001600160a01b038116811461060657600080fd5b801515811461060657600080fd5b6004811061060657600080fdfea26469706673582212202f5a0d50ed6b3a5ae7e6f6d67f6e840e5e16c185e33342464ff7a1e82afd1ea664736f6c63430007010033",
  "linkReferences": {
    "@balancer-labs/v2-pool-utils/contracts/oracle/QueryProcessor.sol": {
      "QueryProcessor": [
        {
          "length": 20,
          "start": 7896
        },
        {
          "length": 20,
          "start": 10005
        },
        {
          "length": 20,
          "start": 13272
        }
      ]
    }
  },
  "deployedLinkReferences": {}
}