{
  "_format": "hh-sol-artifact-1",
  "contractName": "MockWeightedMath",
  "sourceName": "contracts/test/MockWeightedMath.sol",
  "abi": [
    {
      "inputs": [
        {
          "internalType": "uint256[]",
          "name": "balances",
          "type": "uint256[]"
        },
        {
          "internalType": "uint256[]",
          "name": "normalizedWeights",
          "type": "uint256[]"
        },
        {
          "internalType": "uint256[]",
          "name": "amountsOut",
          "type": "uint256[]"
        },
        {
          "internalType": "uint256",
          "name": "bptTotalSupply",
          "type": "uint256"
        },
        {
          "internalType": "uint256",
          "name": "swapFee",
          "type": "uint256"
        }
      ],
      "name": "bptInForExactTokensOut",
      "outputs": [
        {
          "internalType": "uint256",
          "name": "",
          "type": "uint256"
        }
      ],
      "stateMutability": "pure",
      "type": "function"
    },
    {
      "inputs": [
        {
          "internalType": "uint256",
          "name": "balance",
          "type": "uint256"
        },
        {
          "internalType": "uint256",
          "name": "normalizedWeight",
          "type": "uint256"
        },
        {
          "internalType": "uint256",
          "name": "previousInvariant",
          "type": "uint256"
        },
        {
          "internalType": "uint256",
          "name": "currentInvariant",
          "type": "uint256"
        },
        {
          "internalType": "uint256",
          "name": "protocolSwapFeePercentage",
          "type": "uint256"
        }
      ],
      "name": "calculateDueTokenProtocolSwapFeeAmount",
      "outputs": [
        {
          "internalType": "uint256",
          "name": "",
          "type": "uint256"
        }
      ],
      "stateMutability": "pure",
      "type": "function"
    },
    {
      "inputs": [
        {
          "internalType": "uint256",
          "name": "tokenBalance",
          "type": "uint256"
        },
        {
          "internalType": "uint256",
          "name": "tokenNormalizedWeight",
          "type": "uint256"
        },
        {
          "internalType": "uint256",
          "name": "bptAmountIn",
          "type": "uint256"
        },
        {
          "internalType": "uint256",
          "name": "bptTotalSupply",
          "type": "uint256"
        },
        {
          "internalType": "uint256",
          "name": "swapFee",
          "type": "uint256"
        }
      ],
      "name": "exactBPTInForTokenOut",
      "outputs": [
        {
          "internalType": "uint256",
          "name": "",
          "type": "uint256"
        }
      ],
      "stateMutability": "pure",
      "type": "function"
    },
    {
      "inputs": [
        {
          "internalType": "uint256[]",
          "name": "currentBalances",
          "type": "uint256[]"
        },
        {
          "internalType": "uint256",
          "name": "bptAmountIn",
          "type": "uint256"
        },
        {
          "internalType": "uint256",
          "name": "totalBPT",
          "type": "uint256"
        }
      ],
      "name": "exactBPTInForTokensOut",
      "outputs": [
        {
          "internalType": "uint256[]",
          "name": "",
          "type": "uint256[]"
        }
      ],
      "stateMutability": "pure",
      "type": "function"
    },
    {
      "inputs": [
        {
          "internalType": "uint256[]",
          "name": "balances",
          "type": "uint256[]"
        },
        {
          "internalType": "uint256[]",
          "name": "normalizedWeights",
          "type": "uint256[]"
        },
        {
          "internalType": "uint256[]",
          "name": "amountsIn",
          "type": "uint256[]"
        },
        {
          "internalType": "uint256",
          "name": "bptTotalSupply",
          "type": "uint256"
        },
        {
          "internalType": "uint256",
          "name": "swapFee",
          "type": "uint256"
        }
      ],
      "name": "exactTokensInForBPTOut",
      "outputs": [
        {
          "internalType": "uint256",
          "name": "",
          "type": "uint256"
        }
      ],
      "stateMutability": "pure",
      "type": "function"
    },
    {
      "inputs": [
        {
          "internalType": "uint256",
          "name": "tokenBalanceIn",
          "type": "uint256"
        },
        {
          "internalType": "uint256",
          "name": "tokenWeightIn",
          "type": "uint256"
        },
        {
          "internalType": "uint256",
          "name": "tokenBalanceOut",
          "type": "uint256"
        },
        {
          "internalType": "uint256",
          "name": "tokenWeightOut",
          "type": "uint256"
        },
        {
          "internalType": "uint256",
          "name": "tokenAmountOut",
          "type": "uint256"
        }
      ],
      "name": "inGivenOut",
      "outputs": [
        {
          "internalType": "uint256",
          "name": "",
          "type": "uint256"
        }
      ],
      "stateMutability": "pure",
      "type": "function"
    },
    {
      "inputs": [
        {
          "internalType": "uint256[]",
          "name": "normalizedWeights",
          "type": "uint256[]"
        },
        {
          "internalType": "uint256[]",
          "name": "balances",
          "type": "uint256[]"
        }
      ],
      "name": "invariant",
      "outputs": [
        {
          "internalType": "uint256",
          "name": "",
          "type": "uint256"
        }
      ],
      "stateMutability": "pure",
      "type": "function"
    },
    {
      "inputs": [
        {
          "internalType": "uint256",
          "name": "tokenBalanceIn",
          "type": "uint256"
        },
        {
          "internalType": "uint256",
          "name": "tokenWeightIn",
          "type": "uint256"
        },
        {
          "internalType": "uint256",
          "name": "tokenBalanceOut",
          "type": "uint256"
        },
        {
          "internalType": "uint256",
          "name": "tokenWeightOut",
          "type": "uint256"
        },
        {
          "internalType": "uint256",
          "name": "tokenAmountIn",
          "type": "uint256"
        }
      ],
      "name": "outGivenIn",
      "outputs": [
        {
          "internalType": "uint256",
          "name": "",
          "type": "uint256"
        }
      ],
      "stateMutability": "pure",
      "type": "function"
    },
    {
      "inputs": [
        {
          "internalType": "uint256",
          "name": "tokenBalance",
          "type": "uint256"
        },
        {
          "internalType": "uint256",
          "name": "tokenNormalizedWeight",
          "type": "uint256"
        },
        {
          "internalType": "uint256",
          "name": "bptAmountOut",
          "type": "uint256"
        },
        {
          "internalType": "uint256",
          "name": "bptTotalSupply",
          "type": "uint256"
        },
        {
          "internalType": "uint256",
          "name": "swapFee",
          "type": "uint256"
        }
      ],
      "name": "tokenInForExactBPTOut",
      "outputs": [
        {
          "internalType": "uint256",
          "name": "",
          "type": "uint256"
        }
      ],
      "stateMutability": "pure",
      "type": "function"
    }
  ],
  "bytecode": "0x608060405234801561001057600080fd5b50611f11806100206000396000f3fe608060405234801561001057600080fd5b50600436106100a35760003560e01c8063567853711161007657806398f59bca1161005b57806398f59bca14610528578063c2546cc3146106d8578063fab3b9d71461070d576100a3565b806356785371146103cc5780635b55b24a146104f3576100a3565b80631b02e9a8146100a85780631c855fa6146100ef5780632e752149146101e75780634b114ddf14610397575b600080fd5b6100dd600480360360a08110156100be57600080fd5b5080359060208101359060408101359060608101359060800135610742565b60408051918252519081900360200190f35b6101976004803603606081101561010557600080fd5b81019060208101813564010000000081111561012057600080fd5b82018360208201111561013257600080fd5b8035906020019184602083028401116401000000008311171561015457600080fd5b919080806020026020016040519081016040528093929190818152602001838360200280828437600092019190915250929550508235935050506020013561075d565b60408051602080825283518183015283519192839290830191858101910280838360005b838110156101d35781810151838201526020016101bb565b505050509050019250505060405180910390f35b6100dd600480360360a08110156101fd57600080fd5b81019060208101813564010000000081111561021857600080fd5b82018360208201111561022a57600080fd5b8035906020019184602083028401116401000000008311171561024c57600080fd5b919080806020026020016040519081016040528093929190818152602001838360200280828437600092019190915250929594936020810193503591505064010000000081111561029c57600080fd5b8201836020820111156102ae57600080fd5b803590602001918460208302840111640100000000831117156102d057600080fd5b919080806020026020016040519081016040528093929190818152602001838360200280828437600092019190915250929594936020810193503591505064010000000081111561032057600080fd5b82018360208201111561033257600080fd5b8035906020019184602083028401116401000000008311171561035457600080fd5b9190808060200260200160405190810160405280939291908181526020018383602002808284376000920191909152509295505082359350505060200135610772565b6100dd600480360360a08110156103ad57600080fd5b508035906020810135906040810135906060810135906080013561078e565b6100dd600480360360408110156103e257600080fd5b8101906020810181356401000000008111156103fd57600080fd5b82018360208201111561040f57600080fd5b8035906020019184602083028401116401000000008311171561043157600080fd5b919080806020026020016040519081016040528093929190818152602001838360200280828437600092019190915250929594936020810193503591505064010000000081111561048157600080fd5b82018360208201111561049357600080fd5b803590602001918460208302840111640100000000831117156104b557600080fd5b91908080602002602001604051908101604052809392919081815260200183836020028082843760009201919091525092955061079d945050505050565b6100dd600480360360a081101561050957600080fd5b50803590602081013590604081013590606081013590608001356107b2565b6100dd600480360360a081101561053e57600080fd5b81019060208101813564010000000081111561055957600080fd5b82018360208201111561056b57600080fd5b8035906020019184602083028401116401000000008311171561058d57600080fd5b91908080602002602001604051908101604052809392919081815260200183836020028082843760009201919091525092959493602081019350359150506401000000008111156105dd57600080fd5b8201836020820111156105ef57600080fd5b8035906020019184602083028401116401000000008311171561061157600080fd5b919080806020026020016040519081016040528093929190818152602001838360200280828437600092019190915250929594936020810193503591505064010000000081111561066157600080fd5b82018360208201111561067357600080fd5b8035906020019184602083028401116401000000008311171561069557600080fd5b91908080602002602001604051908101604052809392919081815260200183836020028082843760009201919091525092955050823593505050602001356107c2565b6100dd600480360360a08110156106ee57600080fd5b50803590602081013590604081013590606081013590608001356107d2565b6100dd600480360360a081101561072357600080fd5b50803590602081013590604081013590606081013590608001356107e2565b600061075186868686866107f1565b90505b95945050505050565b606061076a848484610875565b949350505050565b6000806107828787878787610927565b50979650505050505050565b60006107518686868686610a80565b60006107a98383610aed565b90505b92915050565b6000806107828787878787610b5f565b6000806107828787878787610c22565b6000806107828787878787610d53565b60006107518686868686610e22565b600061081361080885670429d069189e0000610e8f565b831115610131610ec5565b60006108296108228685610ed7565b8690610eed565b905060006108378588610eed565b905060006108458383610f44565b9050600061085b82670de0b6b3a7640000610ed7565b90506108678a82610f77565b9a9950505050505050505050565b606060006108838484610fd1565b90506060855167ffffffffffffffff8111801561089f57600080fd5b506040519080825280602002602001820160405280156108c9578160200160208202803683370190505b50905060005b865181101561091d576108fe838883815181106108e857fe5b6020026020010151610e8f90919063ffffffff16565b82828151811061090a57fe5b60209081029190910101526001016108cf565b5095945050505050565b6000606080855167ffffffffffffffff8111801561094457600080fd5b5060405190808252806020026020018201604052801561096e578160200160208202803683370190505b5090506000805b8951811015610a23576109d48a828151811061098d57fe5b60200260200101516109ce8a84815181106109a457fe5b60200260200101518d85815181106109b857fe5b602002602001015161101990919063ffffffff16565b90610fd1565b8382815181106109e057fe5b602002602001018181525050610a19610a128a83815181106109fe57fe5b60200260200101518584815181106108e857fe5b8390611019565b9150600101610975565b5060006060610a368b8b8b87878c61102b565b915091506000670de0b6b3a76400008311610a52576000610a6e565b610a6e610a6784670de0b6b3a7640000610ed7565b8a90610e8f565b9c919b50909950505050505050505050565b6000610aa2610a9787670429d069189e0000610e8f565b831115610130610ec5565b6000610aae8784611019565b90506000610abc8883610eed565b90506000610aca8887610fd1565b90506000610ad88383610f44565b9050610867610ae6826111b0565b8990610e8f565b670de0b6b3a764000060005b8351811015610b4f57610b45610b3e858381518110610b1457fe5b6020026020010151858481518110610b2857fe5b60200260200101516111dc90919063ffffffff16565b8390610e8f565b9150600101610af9565b506107ac60008211610137610ec5565b60008080610b7785610b718189610ed7565b90610eed565b9050610b906709b6e64a8ec60000821015610132610ec5565b6000610bae610ba7670de0b6b3a76400008a610fd1565b8390610f44565b90506000610bc5610bbe836111b0565b8b90610e8f565b90506000610bd28a6111b0565b90506000610be08383610f77565b90506000610bee8483610ed7565b9050610bfa828a610f77565b9650610c10610c098389610ed7565b8290611019565b97505050505050509550959350505050565b6000606080855167ffffffffffffffff81118015610c3f57600080fd5b50604051908082528060200260200182016040528015610c69578160200160208202803683370190505b5090506000805b8951811015610d2757610cc98a8281518110610c8857fe5b6020026020010151610b718a8481518110610c9f57fe5b60200260200101518d8581518110610cb357fe5b6020026020010151610ed790919063ffffffff16565b838281518110610cd557fe5b602002602001018181525050610d1d610a128a8381518110610cf357fe5b6020026020010151858481518110610d0757fe5b6020026020010151610f7790919063ffffffff16565b9150600101610c70565b5060006060610d3a8b8b8b87878c611224565b915091506000610a6e610d4c846111b0565b8a90610f77565b60008080610d6585610b718189611019565b9050610d7e6729a2241af62c0000821115610133610ec5565b6000610d95610ba7670de0b6b3a76400008a610eed565b90506000610db5610dae83670de0b6b3a7640000610ed7565b8b90610f77565b90506000610dc28a6111b0565b90506000610dd08383610f77565b90506000610dde8483610ed7565b90506000610dfe610df7670de0b6b3a76400008c610ed7565b8490610eed565b83810398509050610e0f8282611019565b9850505050505050509550959350505050565b6000838311610e3357506000610754565b6000610e3f8585610eed565b90506000610e55670de0b6b3a764000088610fd1565b9050610e69826709b6e64a8ec60000611373565b91506000610e778383610f44565b90506000610e87610bbe836111b0565b905061086781875b6000828202610eb3841580610eac575083858381610ea957fe5b04145b6003610ec5565b670de0b6b3a764000090049392505050565b81610ed357610ed38161138a565b5050565b6000610ee7838311156001610ec5565b50900390565b6000610efc8215156004610ec5565b82610f09575060006107ac565b670de0b6b3a764000083810290610f2c90858381610f2357fe5b04146005610ec5565b826001820381610f3857fe5b046001019150506107ac565b600080610f5184846113f7565b90506000610f6b610f6483612710610f77565b6001611019565b90506107548282611019565b6000828202610f91841580610eac575083858381610ea957fe5b80610fa05760009150506107ac565b670de0b6b3a76400007fffffffffffffffffffffffffffffffffffffffffffffffffffffffffffffffff8201610f38565b6000610fe08215156004610ec5565b82610fed575060006107ac565b670de0b6b3a76400008381029061100790858381610f2357fe5b82818161101057fe5b049150506107ac565b60008282016107a98482101583610ec5565b60006060855167ffffffffffffffff8111801561104757600080fd5b50604051908082528060200260200182016040528015611071578160200160208202803683370190505b509050670de0b6b3a7640000915060005b88518110156111a45760008587838151811061109a57fe5b602002602001015111156111265760006110cb6110bf88670de0b6b3a7640000610ed7565b8c85815181106108e857fe5b905060006110df828b8681518110610cb357fe5b905060006110ed8289610f77565b90506111036110fc8383610ed7565b8490611019565b93508086868151811061111257fe5b60200260200101818152505050505061113d565b87828151811061113257fe5b602002602001015190505b60006111668b848151811061114e57fe5b60200260200101516109ce848e87815181106109b857fe5b90506111986111918b858151811061117a57fe5b6020026020010151836111dc90919063ffffffff16565b8690610e8f565b94505050600101611082565b50965096945050505050565b6000670de0b6b3a764000082106111c85760006111d4565b81670de0b6b3a7640000035b90505b919050565b6000806111e984846113f7565b905060006111fc610f6483612710610f77565b905080821015611211576000925050506107ac565b61121b8282610ed7565b925050506107ac565b60006060855167ffffffffffffffff8111801561124057600080fd5b5060405190808252806020026020018201604052801561126a578160200160208202803683370190505b509050670de0b6b3a7640000915060005b88518110156111a457600086828151811061129257fe5b60200260200101518611156113135760006112af6110bf886111b0565b905060006112c3828b8681518110610cb357fe5b905060006112e36112dc670de0b6b3a76400008a610ed7565b8390610eed565b90508181038686815181106112f457fe5b60209081029190910101526113098382611019565b935050505061132a565b87828151811061131f57fe5b602002602001015190505b60006113538b848151811061133b57fe5b60200260200101516109ce848e8781518110610cb357fe5b90506113676111918b858151811061117a57fe5b9450505060010161127b565b60008183101561138357816107a9565b5090919050565b7f08c379a0000000000000000000000000000000000000000000000000000000006000908152602060045260076024526642414c23000030600a808404818106603090810160081b95839006959095019082900491820690940160101b939093010160c81b604452606490fd5b60008161140d5750670de0b6b3a76400006107ac565b8261141a575060006107ac565b6114477f800000000000000000000000000000000000000000000000000000000000000084106006610ec5565b8261146d770bce5086492111aea88f4bb1ca6bcf584181ea8059f7653284106007610ec5565b826000670c7d713b49da00008313801561148e5750670f43fc2c04ee000083125b156114c557600061149e84611534565b9050670de0b6b3a764000080820784020583670de0b6b3a7640000830502019150506114d3565b816114cf8461166b565b0290505b670de0b6b3a764000090056115217ffffffffffffffffffffffffffffffffffffffffffffffffdc702bd3a30fc0000821280159061151a575068070c1cc73b00c800008213155b6008610ec5565b61152a81611a0b565b9695505050505050565b670de0b6b3a7640000026000806ec097ce7bc90715b34b9f1000000000808401907fffffffffffffffffffffffffffffffffff3f68318436f8ea4cb460f0000000008501028161158057fe5b05905060006ec097ce7bc90715b34b9f100000000082800205905081806ec097ce7bc90715b34b9f100000000081840205915060038205016ec097ce7bc90715b34b9f100000000082840205915060058205016ec097ce7bc90715b34b9f100000000082840205915060078205016ec097ce7bc90715b34b9f100000000082840205915060098205016ec097ce7bc90715b34b9f1000000000828402059150600b8205016ec097ce7bc90715b34b9f1000000000828402059150600d8205016ec097ce7bc90715b34b9f1000000000828402059150600f826002919005919091010295945050505050565b6000670de0b6b3a76400008212156116a85761169e826ec097ce7bc90715b34b9f10000000008161169857fe5b0561166b565b60000390506111d7565b60007e1600ef3172e58d2e933ec884fde10064c63b5372d805e203c000000000000083126116f957770195e54c5dd42177f53a27172fa9ec630262827000000000830592506806f05b59d3b2000000015b73011798004d755d3c8bc8e03204cf44619e0000008312611731576b1425982cf597cd205cef7380830592506803782dace9d9000000015b606492830292026e01855144814a7ff805980ff00840008312611779576e01855144814a7ff805980ff008400068056bc75e2d63100000840205925068ad78ebc5ac62000000015b6b02df0ab5a80a22c61ab5a70083126117b4576b02df0ab5a80a22c61ab5a70068056bc75e2d6310000084020592506856bc75e2d631000000015b693f1fce3da636ea5cf85083126117eb57693f1fce3da636ea5cf85068056bc75e2d631000008402059250682b5e3af16b18800000015b690127fa27722cc06cc5e2831261182257690127fa27722cc06cc5e268056bc75e2d6310000084020592506815af1d78b58c400000015b68280e60114edb805d0383126118575768280e60114edb805d0368056bc75e2d631000008402059250680ad78ebc5ac6200000015b680ebc5fb41746121110831261188257680ebc5fb4174612111068056bc75e2d631000009384020592015b6808f00f760a4b2db55d83126118b7576808f00f760a4b2db55d68056bc75e2d6310000084020592506802b5e3af16b1880000015b6806f5f177578893793783126118ec576806f5f177578893793768056bc75e2d63100000840205925068015af1d78b58c40000015b6806248f33704b2866038312611920576806248f33704b28660368056bc75e2d63100000840205925067ad78ebc5ac620000015b6805c548670b9510e7ac8312611954576805c548670b9510e7ac68056bc75e2d6310000084020592506756bc75e2d6310000015b600068056bc75e2d63100000840168056bc75e2d63100000808603028161197757fe5b059050600068056bc75e2d63100000828002059050818068056bc75e2d63100000818402059150600382050168056bc75e2d63100000828402059150600582050168056bc75e2d63100000828402059150600782050168056bc75e2d63100000828402059150600982050168056bc75e2d63100000828402059150600b820501600202606485820105979650505050505050565b6000611a507ffffffffffffffffffffffffffffffffffffffffffffffffdc702bd3a30fc00008312158015611a49575068070c1cc73b00c800008313155b6009610ec5565b6000821215611a8457611a6582600003611a0b565b6ec097ce7bc90715b34b9f100000000081611a7c57fe5b0590506111d7565b60006806f05b59d3b20000008312611ada57507ffffffffffffffffffffffffffffffffffffffffffffffff90fa4a62c4e00000090910190770195e54c5dd42177f53a27172fa9ec630262827000000000611b26565b6803782dace9d90000008312611b2257507ffffffffffffffffffffffffffffffffffffffffffffffffc87d2531627000000909101906b1425982cf597cd205cef7380611b26565b5060015b6064929092029168056bc75e2d6310000068ad78ebc5ac620000008412611b8c577fffffffffffffffffffffffffffffffffffffffffffffff5287143a539e0000009093019268056bc75e2d631000006e01855144814a7ff805980ff008400082020590505b6856bc75e2d6310000008412611bde577fffffffffffffffffffffffffffffffffffffffffffffffa9438a1d29cf0000009093019268056bc75e2d631000006b02df0ab5a80a22c61ab5a70082020590505b682b5e3af16b188000008412611c2e577fffffffffffffffffffffffffffffffffffffffffffffffd4a1c50e94e78000009093019268056bc75e2d63100000693f1fce3da636ea5cf85082020590505b6815af1d78b58c4000008412611c7e577fffffffffffffffffffffffffffffffffffffffffffffffea50e2874a73c000009093019268056bc75e2d63100000690127fa27722cc06cc5e282020590505b680ad78ebc5ac62000008412611ccd577ffffffffffffffffffffffffffffffffffffffffffffffff5287143a539e000009093019268056bc75e2d6310000068280e60114edb805d0382020590505b68056bc75e2d631000008412611d1c577ffffffffffffffffffffffffffffffffffffffffffffffffa9438a1d29cf000009093019268056bc75e2d63100000680ebc5fb4174612111082020590505b6802b5e3af16b18800008412611d6b577ffffffffffffffffffffffffffffffffffffffffffffffffd4a1c50e94e7800009093019268056bc75e2d631000006808f00f760a4b2db55d82020590505b68015af1d78b58c400008412611dba577ffffffffffffffffffffffffffffffffffffffffffffffffea50e2874a73c00009093019268056bc75e2d631000006806f5f177578893793782020590505b68056bc75e2d631000008481019085906002908280020505918201919050600368056bc75e2d631000008783020505918201919050600468056bc75e2d631000008783020505918201919050600568056bc75e2d631000008783020505918201919050600668056bc75e2d631000008783020505918201919050600768056bc75e2d631000008783020505918201919050600868056bc75e2d631000008783020505918201919050600968056bc75e2d631000008783020505918201919050600a68056bc75e2d631000008783020505918201919050600b68056bc75e2d631000008783020505918201919050600c68056bc75e2d631000008783020505918201919050606468056bc75e2d6310000084840205850205969550505050505056fea264697066735822122096b7d924f133f6465fdb233a361e7c87958f945fdea81c84ecf6fed924f8abbe64736f6c63430007010033",
  "linkReferences": {},
  "deployedLinkReferences": {}
}