{
  "_format": "hh-sol-artifact-1",
  "contractName": "WeightedPoolFactory",
  "sourceName": "contracts/WeightedPoolFactory.sol",
  "abi": [
    {
      "inputs": [
        {
          "internalType": "contract IVault",
          "name": "vault",
          "type": "address"
        }
      ],
      "stateMutability": "nonpayable",
      "type": "constructor"
    },
    {
      "anonymous": false,
      "inputs": [
        {
          "indexed": true,
          "internalType": "address",
          "name": "pool",
          "type": "address"
        }
      ],
      "name": "PoolCreated",
      "type": "event"
    },
    {
      "inputs": [
        {
          "internalType": "string",
          "name": "name",
          "type": "string"
        },
        {
          "internalType": "string",
          "name": "symbol",
          "type": "string"
        },
        {
          "internalType": "contract IERC20[]",
          "name": "tokens",
          "type": "address[]"
        },
        {
          "internalType": "uint256[]",
          "name": "weights",
          "type": "uint256[]"
        },
        {
          "internalType": "address[]",
          "name": "assetManagers",
          "type": "address[]"
        },
        {
          "internalType": "uint256",
          "name": "swapFeePercentage",
          "type": "uint256"
        },
        {
          "internalType": "address",
          "name": "owner",
          "type": "address"
        }
      ],
      "name": "create",
      "outputs": [
        {
          "internalType": "address",
          "name": "",
          "type": "address"
        }
      ],
      "stateMutability": "nonpayable",
      "type": "function"
    },
    {
      "inputs": [],
      "name": "getCreationCode",
      "outputs": [
        {
          "internalType": "bytes",
          "name": "",
          "type": "bytes"
        }
      ],
      "stateMutability": "view",
      "type": "function"
    },
    {
      "inputs": [],
      "name": "getCreationCodeContracts",
      "outputs": [
        {
          "internalType": "address",
          "name": "contractA",
          "type": "address"
        },
        {
          "internalType": "address",
          "name": "contractB",
          "type": "address"
        }
      ],
      "stateMutability": "view",
      "type": "function"
    },
    {
      "inputs": [],
      "name": "getPauseConfiguration",
      "outputs": [
        {
          "internalType": "uint256",
          "name": "pauseWindowDuration",
          "type": "uint256"
        },
        {
          "internalType": "uint256",
          "name": "bufferPeriodDuration",
          "type": "uint256"
        }
      ],
      "stateMutability": "view",
      "type": "function"
    },
    {
      "inputs": [],
      "name": "getVault",
      "outputs": [
        {
          "internalType": "contract IVault",
          "name": "",
          "type": "address"
        }
      ],
      "stateMutability": "view",
      "type": "function"
    },
    {
      "inputs": [
        {
          "internalType": "address",
          "name": "pool",
          "type": "address"
        }
      ],
      "name": "isPoolFromFactory",
      "outputs": [
        {
          "internalType": "bool",
          "name": "",
          "type": "bool"
        }
      ],
      "stateMutability": "view",
      "type": "function"
    }
  ],
  "bytecode": "0x6101406040523480156200001257600080fd5b50604051620088e3380380620088e38339810160408190526200003591620001c3565b80604051806020016200004890620001b5565b601f1982820381018352601f909101166040528051819060006002820460a081905280830360e0819052818552909150836200009081620000f9602090811b6200028617901c565b60601b6001600160601b0319166080528285018051838252620000bf82620000f9602090811b6200028617901c565b6001600160601b0319606091821b811660c0529690935290529590951b90911661010052505050426276a700016101205250620001f39050565b80517f602038038060206000396000f3fefefefefefefefefefefefefefefefefefefe808352600091602081018484f09084529150620001476001600160a01b03831615156101ac6200014d565b50919050565b816200015e576200015e8162000162565b5050565b62461bcd60e51b6000908152602060045260076024526642414c23000030600a808404818106603090810160081b95839006959095019082900491820690940160101b939093010160c81b604452606490fd5b617b1e8062000dc583390190565b600060208284031215620001d5578081fd5b81516001600160a01b0381168114620001ec578182fd5b9392505050565b60805160601c60a05160c05160601c60e0516101005160601c61012051610b706200025560003980610173528061019c5250806102645250806102ed52508061014a528061036952508061030e52508061012952806103455250610b706000f3fe608060405234801561001057600080fd5b50600436106100715760003560e01c80636634b753116100505780636634b753146100c057806380773a93146100e05780638d928af81461010057610071565b8062c194db14610076578063174481fa146100945780632da47c40146100aa575b600080fd5b61007e610108565b60405161008b91906109b6565b60405180910390f35b61009c610127565b60405161008b929190610984565b6100b261016d565b60405161008b929190610aa7565b6100d36100ce36600461075e565b6101d7565b60405161008b91906109ab565b6100f36100ee36600461077a565b610202565b60405161008b9190610963565b6100f3610262565b6060610122604051806020016040528060008152506102e5565b905090565b7f00000000000000000000000000000000000000000000000000000000000000007f00000000000000000000000000000000000000000000000000000000000000009091565b600080427f00000000000000000000000000000000000000000000000000000000000000008110156101c957807f000000000000000000000000000000000000000000000000000000000000000003925062278d0091506101d2565b60009250600091505b509091565b73ffffffffffffffffffffffffffffffffffffffff1660009081526020819052604090205460ff1690565b600080600061020f61016d565b9150915061025461021e610262565b8b8b8b8b8b8b89898d6040516020016102409a999897969594939291906109c9565b6040516020818303038152906040526103be565b9a9950505050505050505050565b7f000000000000000000000000000000000000000000000000000000000000000090565b80517f602038038060206000396000f3fefefefefefefefefefefefefefefefefefefe808352600091602081018484f090845291506102df73ffffffffffffffffffffffffffffffffffffffff831615156101ac610449565b50919050565b8051604080517f00000000000000000000000000000000000000000000000000000000000000007f0000000000000000000000000000000000000000000000000000000000000000818101858101848101602090810190965280855293957f00000000000000000000000000000000000000000000000000000000000000009592947f000000000000000000000000000000000000000000000000000000000000000094938801866000828a3c846000888301883c50602089810190898501016103b081838661045b565b505050505050505050919050565b6000806103ca836104d5565b73ffffffffffffffffffffffffffffffffffffffff811660008181526020819052604080822080547fffffffffffffffffffffffffffffffffffffffffffffffffffffffffffffff001660011790555192935090917f83a48fbcfc991335314e74d0496aab6a1987e992ddc85dddbcc4d6dd6ef2e9fc9190a292915050565b81610457576104578161051d565b5050565b5b602081106104995781518352602092830192909101907fffffffffffffffffffffffffffffffffffffffffffffffffffffffffffffffe00161045c565b905182516020929092036101000a7fffffffffffffffffffffffffffffffffffffffffffffffffffffffffffffffff0180199091169116179052565b600060606104e2836102e5565b905060008151602083016000f0905073ffffffffffffffffffffffffffffffffffffffff8116610516573d6000803e3d6000fd5b9392505050565b7f08c379a0000000000000000000000000000000000000000000000000000000006000908152602060045260076024526642414c23000030600a808404818106603090810160081b95839006959095019082900491820690940160101b939093010160c81b604452606490fd5b803561059581610b15565b92915050565b600082601f8301126105ab578081fd5b81356105be6105b982610adc565b610ab5565b8181529150602080830190848101818402860182018710156105df57600080fd5b60005b848110156106075781356105f581610b15565b845292820192908201906001016105e2565b505050505092915050565b600082601f830112610622578081fd5b81356106306105b982610adc565b81815291506020808301908481018184028601820187101561065157600080fd5b60005b8481101561060757813561066781610b15565b84529282019290820190600101610654565b600082601f830112610689578081fd5b81356106976105b982610adc565b8181529150602080830190848101818402860182018710156106b857600080fd5b60005b84811015610607578135845292820192908201906001016106bb565b600082601f8301126106e7578081fd5b813567ffffffffffffffff8111156106fd578182fd5b61072e60207fffffffffffffffffffffffffffffffffffffffffffffffffffffffffffffffe0601f84011601610ab5565b915080825283602082850101111561074557600080fd5b8060208401602084013760009082016020015292915050565b60006020828403121561076f578081fd5b813561051681610b15565b600080600080600080600060e0888a031215610794578283fd5b873567ffffffffffffffff808211156107ab578485fd5b6107b78b838c016106d7565b985060208a01359150808211156107cc578485fd5b6107d88b838c016106d7565b975060408a01359150808211156107ed578485fd5b6107f98b838c01610612565b965060608a013591508082111561080e578485fd5b61081a8b838c01610679565b955060808a013591508082111561082f578485fd5b5061083c8a828b0161059b565b93505060a088013591506108538960c08a0161058a565b905092959891949750929550565b73ffffffffffffffffffffffffffffffffffffffff169052565b6000815180845260208085019450808401835b838110156108c057815173ffffffffffffffffffffffffffffffffffffffff168752958201959082019060010161088e565b509495945050505050565b6000815180845260208085019450808401835b838110156108c0578151875295820195908201906001016108de565b60008151808452815b8181101561091f57602081850181015186830182015201610903565b818111156109305782602083870101525b50601f017fffffffffffffffffffffffffffffffffffffffffffffffffffffffffffffffe0169290920160200192915050565b73ffffffffffffffffffffffffffffffffffffffff91909116815260200190565b73ffffffffffffffffffffffffffffffffffffffff92831681529116602082015260400190565b901515815260200190565b60006020825261051660208301846108fa565b600061014073ffffffffffffffffffffffffffffffffffffffff8d168352602081818501526109fa8285018e6108fa565b91508382036040850152610a0e828d6108fa565b84810360608601528b51808252828d01935090820190845b81811015610a4a57610a388551610afc565b83529383019391830191600101610a26565b50508481036080860152610a5e818c6108cb565b9250505082810360a0840152610a74818961087b565b9150508560c08301528460e083015283610100830152610a98610120830184610861565b9b9a5050505050505050505050565b918252602082015260400190565b60405181810167ffffffffffffffff81118282101715610ad457600080fd5b604052919050565b600067ffffffffffffffff821115610af2578081fd5b5060209081020190565b73ffffffffffffffffffffffffffffffffffffffff1690565b73ffffffffffffffffffffffffffffffffffffffff81168114610b3757600080fd5b5056fea26469706673582212208ac0d92e37f1ce674ffbcb6305d4c8aff97e54614d92a9d87c6a19cdaf71889d64736f6c634300070100336109806040527f6e71edae12b1b97f4d1f60370fef10105fa2faae0126114a169c64845d6126c9610120523480156200003757600080fd5b5060405162007b1e38038062007b1e8339810160408190526200005a9162001404565b8989898988888888888886516002146200007657600162000079565b60025b8989898989898989828289898d8280604051806040016040528060018152602001603160f81b81525085858a336001600160a01b031660001b806080818152505050806001600160a01b031660a0816001600160a01b031660601b81525050508160039080519060200190620000f19291906200115d565b508051620001079060049060208401906200115d565b505060058054601260ff1990911617905550815160209283012060c052805191012060e052507f8b73c3c69bb8fe3d512ecc4cf759cc79239f7b179b0ffacaa9a75d522b39400f6101005260601b6001600160601b03191661014052506200017a90506276a70083111561019462000e9e565b6200018e62278d0082111561019562000e9e565b4290910161016081905201610180528551620001b0906002111560c862000e9e565b620001ca620001be62000eb3565b8751111560c962000e9e565b620001e08662000eb860201b62000f161760201c565b620001eb8462000ec4565b6040516309b2760f60e01b81526000906001600160a01b038c16906309b2760f906200021c908d90600401620015e5565b602060405180830381600087803b1580156200023757600080fd5b505af11580156200024c573d6000803e3d6000fd5b505050506040513d601f19601f82011682018060405250810190620002729190620013eb565b604051633354e3e960e11b81529091506001600160a01b038c16906366a9c7d290620002a79084908b908b9060040162001549565b600060405180830381600087803b158015620002c257600080fd5b505af1158015620002d7573d6000803e3d6000fd5b50505050806101a0818152505050505050505050505050505050505050505050506000875190506200031681885162000f5060201b62000f201760201c565b6101c081905260008080805b848160ff161015620003a15760008b8260ff16815181106200034057fe5b6020026020010151905062000368662386f26fc1000082101561012e62000e9e60201b60201c565b62000382818662000f5f60201b62000f2d1790919060201c565b94508281111562000397578160ff1693508092505b5060010162000322565b50620003ba670de0b6b3a7640000841461013462000e9e565b6106e082905289518a90600090620003ce57fe5b6020026020010151610700818152505089600181518110620003ec57fe5b60200260200101516107208181525050600284116200040d57600062000424565b896002815181106200041b57fe5b60200260200101515b61074052600384116200043957600062000450565b896003815181106200044757fe5b60200260200101515b6107605260048411620004655760006200047c565b896004815181106200047357fe5b60200260200101515b610780526005841162000491576000620004a8565b896005815181106200049f57fe5b60200260200101515b6107a05260068411620004bd576000620004d4565b89600681518110620004cb57fe5b60200260200101515b6107c05260078411620004e957600062000500565b89600781518110620004f757fe5b60200260200101515b6107e05260088411620005155760006200052c565b896008815181106200052357fe5b60200260200101515b61080052600984116200054157600062000558565b896009815181106200054f57fe5b60200260200101515b61082052600a84116200056d57600062000584565b89600a815181106200057b57fe5b60200260200101515b61084052600b841162000599576000620005b0565b89600b81518110620005a757fe5b60200260200101515b61086052600c8411620005c5576000620005dc565b89600c81518110620005d357fe5b60200260200101515b61088052600d8411620005f157600062000608565b89600d81518110620005ff57fe5b60200260200101515b6108a052600e84116200061d57600062000634565b89600e815181106200062b57fe5b60200260200101515b6108c052600f84116200064957600062000660565b89600f815181106200065757fe5b60200260200101515b6108e05260108411620006755760006200068c565b896010815181106200068357fe5b60200260200101515b6109005260118411620006a1576000620006b8565b89601181518110620006af57fe5b60200260200101515b6109205260128411620006cd576000620006e4565b89601281518110620006db57fe5b60200260200101515b6109405260138411620006f957600062000710565b896013815181106200070757fe5b60200260200101515b610960528a518b906000906200072257fe5b60200260200101516001600160a01b03166101e0816001600160a01b031660601b815250508a6001815181106200075557fe5b60200260200101516001600160a01b0316610200816001600160a01b031660601b81525050600284116200078b576000620007a2565b8a6002815181106200079957fe5b60200260200101515b60601b6001600160601b0319166102205260038411620007c4576000620007db565b8a600381518110620007d257fe5b60200260200101515b60601b6001600160601b0319166102405260048411620007fd57600062000814565b8a6004815181106200080b57fe5b60200260200101515b60601b6001600160601b0319166102605260058411620008365760006200084d565b8a6005815181106200084457fe5b60200260200101515b60601b6001600160601b03191661028052600684116200086f57600062000886565b8a6006815181106200087d57fe5b60200260200101515b60601b6001600160601b0319166102a05260078411620008a8576000620008bf565b8a600781518110620008b657fe5b60200260200101515b60601b6001600160601b0319166102c05260088411620008e1576000620008f8565b8a600881518110620008ef57fe5b60200260200101515b60601b6001600160601b0319166102e052600984116200091a57600062000931565b8a6009815181106200092857fe5b60200260200101515b60601b6001600160601b03191661030052600a8411620009535760006200096a565b8a600a815181106200096157fe5b60200260200101515b60601b6001600160601b03191661032052600b84116200098c576000620009a3565b8a600b815181106200099a57fe5b60200260200101515b60601b6001600160601b03191661034052600c8411620009c5576000620009dc565b8a600c81518110620009d357fe5b60200260200101515b60601b6001600160601b03191661036052600d8411620009fe57600062000a15565b8a600d8151811062000a0c57fe5b60200260200101515b60601b6001600160601b03191661038052600e841162000a3757600062000a4e565b8a600e8151811062000a4557fe5b60200260200101515b60601b6001600160601b0319166103a052600f841162000a7057600062000a87565b8a600f8151811062000a7e57fe5b60200260200101515b60601b6001600160601b0319166103c0526010841162000aa957600062000ac0565b8a60108151811062000ab757fe5b60200260200101515b60601b6001600160601b0319166103e0526011841162000ae257600062000af9565b8a60118151811062000af057fe5b60200260200101515b60601b6001600160601b031916610400526012841162000b1b57600062000b32565b8a60128151811062000b2957fe5b60200260200101515b60601b6001600160601b031916610420526013841162000b5457600062000b6b565b8a60138151811062000b6257fe5b60200260200101515b6001600160a01b0316610440816001600160a01b031660601b8152505062000bae8b60008151811062000b9a57fe5b602002602001015162000f7c60201b60201c565b610460528a5162000bc7908c90600190811062000b9a57fe5b610480526002841162000bdc57600062000bee565b62000bee8b60028151811062000b9a57fe5b6104a0526003841162000c0357600062000c15565b62000c158b60038151811062000b9a57fe5b6104c0526004841162000c2a57600062000c3c565b62000c3c8b60048151811062000b9a57fe5b6104e0526005841162000c5157600062000c63565b62000c638b60058151811062000b9a57fe5b610500526006841162000c7857600062000c8a565b62000c8a8b60068151811062000b9a57fe5b610520526007841162000c9f57600062000cb1565b62000cb18b60078151811062000b9a57fe5b610540526008841162000cc657600062000cd8565b62000cd88b60088151811062000b9a57fe5b610560526009841162000ced57600062000cff565b62000cff8b60098151811062000b9a57fe5b61058052600a841162000d1457600062000d26565b62000d268b600a8151811062000b9a57fe5b6105a052600b841162000d3b57600062000d4d565b62000d4d8b600b8151811062000b9a57fe5b6105c052600c841162000d6257600062000d74565b62000d748b600c8151811062000b9a57fe5b6105e052600d841162000d8957600062000d9b565b62000d9b8b600d8151811062000b9a57fe5b61060052600e841162000db057600062000dc2565b62000dc28b600e8151811062000b9a57fe5b61062052600f841162000dd757600062000de9565b62000de98b600f8151811062000b9a57fe5b610640526010841162000dfe57600062000e10565b62000e108b60108151811062000b9a57fe5b610660526011841162000e2557600062000e37565b62000e378b60118151811062000b9a57fe5b610680526012841162000e4c57600062000e5e565b62000e5e8b60128151811062000b9a57fe5b6106a0526013841162000e7357600062000e85565b62000e858b60138151811062000b9a57fe5b6106c052506200166c9c50505050505050505050505050565b8162000eaf5762000eaf8162001050565b5050565b601490565b8062000eaf81620010a3565b62000ed964e8d4a5100082101560cb62000e9e565b62000ef167016345785d8a000082111560ca62000e9e565b62000f108160c06008546200113060201b62000f46179092919060201c565b6008556040517fa9ba3ffe0b6c366b81232caab38605a0699ad5398d6cce76f91ee809e322dafc9062000f45908390620015fa565b60405180910390a150565b62000eaf828214606762000e9e565b600082820162000f73848210158362000e9e565b90505b92915050565b60006001600160a01b03821630141562000fa05750670de0b6b3a76400006200104b565b6000826001600160a01b031663313ce5676040518163ffffffff1660e01b815260040160206040518083038186803b15801562000fdc57600080fd5b505afa15801562000ff1573d6000803e3d6000fd5b505050506040513d601f19601f8201168201806040525081019062001017919062001526565b60ff1690506000620010366012836200114560201b62000f5c1760201c565b905080600a0a670de0b6b3a764000002925050505b919050565b62461bcd60e51b6000908152602060045260076024526642414c23000030600a808404818106603090810160081b95839006959095019082900491820690940160101b939093010160c81b604452606490fd5b600281511015620010b4576200112d565b600081600081518110620010c457fe5b602002602001015190506000600190505b82518110156200112a576000838281518110620010ee57fe5b602002602001015190506200111f816001600160a01b0316846001600160a01b031610606562000e9e60201b60201c565b9150600101620010d5565b50505b50565b6001600160401b03811b1992909216911b1790565b60006200115783831115600162000e9e565b50900390565b828054600181600116156101000203166002900490600052602060002090601f016020900481019282601f10620011a057805160ff1916838001178555620011d0565b82800160010185558215620011d0579182015b82811115620011d0578251825591602001919060010190620011b3565b50620011de929150620011e2565b5090565b5b80821115620011de5760008155600101620011e3565b805162000f768162001656565b600082601f83011262001217578081fd5b81516200122e62001228826200162a565b62001603565b8181529150602080830190848101818402860182018710156200125057600080fd5b60005b848110156200127c578151620012698162001656565b8452928201929082019060010162001253565b505050505092915050565b600082601f83011262001298578081fd5b8151620012a962001228826200162a565b818152915060208083019084810181840286018201871015620012cb57600080fd5b60005b848110156200127c578151620012e48162001656565b84529282019290820190600101620012ce565b600082601f83011262001308578081fd5b81516200131962001228826200162a565b8181529150602080830190848101818402860182018710156200133b57600080fd5b60005b848110156200127c578151845292820192908201906001016200133e565b600082601f8301126200136d578081fd5b81516001600160401b0381111562001383578182fd5b602062001399601f8301601f1916820162001603565b92508183528481838601011115620013b057600080fd5b60005b82811015620013d0578481018201518482018301528101620013b3565b82811115620013e25760008284860101525b50505092915050565b600060208284031215620013fd578081fd5b5051919050565b6000806000806000806000806000806101408b8d03121562001424578586fd5b620014308c8c620011f9565b60208c0151909a506001600160401b03808211156200144d578788fd5b6200145b8e838f016200135c565b9a5060408d015191508082111562001471578788fd5b6200147f8e838f016200135c565b995060608d015191508082111562001495578788fd5b620014a38e838f0162001287565b985060808d0151915080821115620014b9578788fd5b620014c78e838f01620012f7565b975060a08d0151915080821115620014dd578687fd5b50620014ec8d828e0162001206565b95505060c08b0151935060e08b015192506101008b01519150620015158c6101208d01620011f9565b90509295989b9194979a5092959850565b60006020828403121562001538578081fd5b815160ff8116811462000f73578182fd5b60006060820185835260206060818501528186518084526080860191508288019350845b8181101562001595576200158285516200164a565b835293830193918301916001016200156d565b505084810360408601528551808252908201925081860190845b81811015620015d757620015c483516200164a565b85529383019391830191600101620015af565b509298975050505050505050565b6020810160038310620015f457fe5b91905290565b90815260200190565b6040518181016001600160401b03811182821017156200162257600080fd5b604052919050565b60006001600160401b0382111562001640578081fd5b5060209081020190565b6001600160a01b031690565b6001600160a01b03811681146200112d57600080fd5b60805160a05160601c60c05160e05161010051610120516101405160601c61016051610180516101a0516101c0516101e05160601c6102005160601c6102205160601c6102405160601c6102605160601c6102805160601c6102a05160601c6102c05160601c6102e05160601c6103005160601c6103205160601c6103405160601c6103605160601c6103805160601c6103a05160601c6103c05160601c6103e05160601c6104005160601c6104205160601c6104405160601c61046051610480516104a0516104c0516104e05161050051610520516105405161056051610580516105a0516105c0516105e05161060051610620516106405161066051610680516106a0516106c0516106e05161070051610720516107405161076051610780516107a0516107c0516107e05161080051610820516108405161086051610880516108a0516108c0516108e0516109005161092051610940516109605161606662001ab860003980612c7f5280613c22525080612c3c5280613bc1525080612bf95280613b60525080612bb65280613aff525080612b735280613a9e525080612b305280613a3d525080612aed52806139dc525080612aaa528061397b525080612a67528061391a525080612a2452806138b95250806129e1528061385852508061299e52806137f752508061295b528061379652508061291852806137355250806128d552806136d4525080612892528061367352508061284f528061361252508061280c52806135b15250806127c9528061355052508061278f52806134ef525080610b5452508061168d528061261f52508061164a52806125be525080611607528061255d5250806115c452806124fc525080611581528061249b52508061153e528061243a5250806114fb52806123d95250806114b85280612378525080611475528061231752508061143252806122b65250806113ef52806122555250806113ac52806121f4525080611369528061219352508061132652806121325250806112e352806120d15250806112a0528061207052508061125d528061200f52508061120c5280611fae5250806111c95280611f4d52508061118f5280611eec5250806125e45280613be75250806125835280613b865250806125225280613b255250806124c15280613ac45250806124605280613a635250806123ff5280613a0252508061239e52806139a152508061233d52806139405250806122dc52806138df52508061227b528061387e52508061221a528061381d5250806121b952806137bc525080612158528061375b5250806120f752806136fa52508061209652806136995250806120355280613638525080611fd452806135d7525080611f735280613576525080611f125280613515525080611eb152806134b45250806119fe5250806106b75250806111175250806110f3525080610920525080610c8a5250806117bd5250806117ff5250806117de5250806108fc52508061088652506160666000f3fe608060405234801561001057600080fd5b50600436106102765760003560e01c806370a08231116101605780639d2c110c116100d8578063c0ff1a151161008c578063d5c096c411610071578063d5c096c4146104d0578063dd62ed3e146104e3578063f89f27ed146104f657610276565b8063c0ff1a15146104b5578063d505accf146104bd57610276565b8063a6070fea116100bd578063a6070fea14610484578063a9059cbb1461049a578063aaabadc5146104ad57610276565b80639d2c110c1461045e578063a457c2d71461047157610276565b806387ec68171161012f5780638d928af8116101145780638d928af81461044657806395d89b411461044e5780639b02cdde1461045657610276565b806387ec68171461041e578063893d20e81461043157610276565b806370a08231146103c457806374f3b009146103d75780637ecebe00146103f8578063851c1bb31461040b57610276565b80633644e515116101f357806350dd6ed9116101c25780636028bfd4116101a75780636028bfd41461039b578063679aefce146103bc5780636b4dfdc31461030d57610276565b806350dd6ed91461038057806355c676281461039357610276565b80633644e5151461034a57806338e9922e1461035257806338fff2d014610365578063395093511461036d57610276565b806318160ddd1161024a5780631dd746ea1161022f5780631dd746ea1461030d57806323b872dd14610322578063313ce5671461033557610276565b806318160ddd146102ee5780631c0de051146102f657610276565b8062ca060c1461027b57806306fdde03146102a4578063095ea7b3146102b957806316c38b3c146102d9575b600080fd5b61028e610289366004615891565b6104fe565b60405161029b9190615ea9565b60405180910390f35b6102ac610515565b60405161029b9190615f7f565b6102cc6102c736600461579a565b6105ac565b60405161029b9190615e86565b6102ec6102e7366004615939565b6105c3565b005b61028e6105d7565b6102fe6105dd565b60405161029b93929190615e91565b610315610606565b60405161029b9190615e2c565b6102cc6103303660046156e5565b610615565b61033d610689565b60405161029b9190615fab565b61028e610692565b6102ec610360366004615cc5565b61069c565b61028e6106b5565b6102cc61037b36600461579a565b6106d9565b6102ec61038e366004615a70565b610714565b61028e610732565b6103ae6103a9366004615971565b610743565b60405161029b929190615f92565b61028e61077a565b61028e6103d2366004615691565b6107a5565b6103ea6103e5366004615971565b6107c4565b60405161029b929190615e3f565b61028e610406366004615691565b610867565b61028e610419366004615a14565b610882565b6103ae61042c366004615971565b6108d4565b6104396108fa565b60405161029b9190615e18565b61043961091e565b6102ac610942565b61028e6109a3565b61028e61046c366004615bc9565b6109a9565b6102cc61047f36600461579a565b610b07565b61048c610b45565b60405161029b929190615e64565b6102cc6104a836600461579a565b610b79565b610439610b86565b61028e610b90565b6102ec6104cb366004615725565b610c55565b6103ea6104de366004615971565b610d9e565b61028e6104f13660046156ad565b610ecf565b610315610f0c565b600061050c85858585610f72565b50949350505050565b60038054604080516020601f60026000196101006001881615020190951694909404938401819004810282018101909252828152606093909290918301828280156105a15780601f10610576576101008083540402835291602001916105a1565b820191906000526020600020905b81548152906001019060200180831161058457829003601f168201915b505050505090505b90565b60006105b9338484610f8a565b5060015b92915050565b6105cb610ff2565b6105d481611038565b50565b60025490565b60008060006105ea6110d4565b1592506105f56110f1565b91506105ff611115565b9050909192565b6060610610611139565b905090565b6000806106228533610ecf565b9050610646336001600160a01b038716148061063e5750838210155b61019e6116cb565b6106518585856116d9565b336001600160a01b0386161480159061066c57506000198114155b1561067e5761067e8533858403610f8a565b506001949350505050565b60055460ff1690565b60006106106117b9565b6106a4610ff2565b6106ac611856565b6105d48161186b565b7f000000000000000000000000000000000000000000000000000000000000000090565b3360008181526001602090815260408083206001600160a01b038716845290915281205490916105b991859061070f9086610f2d565b610f8a565b61071c610ff2565b610724611856565b61072e82826118d6565b5050565b6008546000906106109060c06119ee565b6000606061075986516107546119fc565b610f20565b61076e89898989898989611a20611af0611b56565b97509795505050505050565b60006106106107876105d7565b61079f610792610b90565b61079a6119fc565b611ce6565b90611d0a565b6001600160a01b0381166000908152602081905260409020545b919050565b606080886107ee6107d361091e565b6001600160a01b0316336001600160a01b03161460cd6116cb565b6108036107f96106b5565b82146101f46116cb565b606061080d611139565b90506108198882611d5b565b600060608061082e8e8e8e8e8e8e8a8f611a20565b92509250925061083e8d84611dbc565b6108488285611af0565b6108528185611af0565b909550935050505b5097509795505050505050565b6001600160a01b031660009081526006602052604090205490565b60007f0000000000000000000000000000000000000000000000000000000000000000826040516020016108b7929190615da2565b604051602081830303815290604052805190602001209050919050565b600060606108e586516107546119fc565b61076e89898989898989611dc6611e4c611b56565b7f000000000000000000000000000000000000000000000000000000000000000090565b7f000000000000000000000000000000000000000000000000000000000000000090565b60048054604080516020601f60026000196101006001881615020190951694909404938401819004810282018101909252828152606093909290918301828280156105a15780601f10610576576101008083540402835291602001916105a1565b60095490565b600083608001516109bb6107d361091e565b6109c66107f96106b5565b60006109d58660200151611ead565b905060006109e68760400151611ead565b90506000875160018111156109f757fe5b1415610a87576000610a0c886060015161264e565b90506000818960600151039050610a308960200151610a2b838761266f565b61267b565b60608901829052610a41888561266f565b9750610a4d878461266f565b9650610a5d89606001518561266f565b60608a01526000610a6f8a8a8a61268d565b9050610a7b81856126c8565b96505050505050610aff565b610a91868361266f565b9550610a9d858261266f565b9450610aad87606001518261266f565b60608801526000610abf8888886126d4565b9050610acb8184612707565b90506000610ad882612713565b905060008282039050610af38a60200151610a2b838861266f565b509450610aff92505050565b509392505050565b600080610b143385610ecf565b9050808310610b2e57610b2933856000610f8a565b610b3b565b610b3b3385858403610f8a565b5060019392505050565b60606000610b51612739565b927f000000000000000000000000000000000000000000000000000000000000000092509050565b60006105b93384846116d9565b6000610610612cab565b60006060610b9c61091e565b6001600160a01b031663f94d4668610bb26106b5565b6040518263ffffffff1660e01b8152600401610bce9190615ea9565b60006040518083038186803b158015610be657600080fd5b505afa158015610bfa573d6000803e3d6000fd5b505050506040513d6000823e601f3d908101601f19168201604052610c2291908101906157c5565b50915050610c3781610c32611139565b611d5b565b6060610c41610b45565b509050610c4e8183612d25565b9250505090565b610c638442111560d16116cb565b6001600160a01b0387166000908152600660209081526040808320549051909291610cba917f0000000000000000000000000000000000000000000000000000000000000000918c918c918c9188918d9101615ed1565b6040516020818303038152906040528051906020012090506000610cdd82612d97565b9050600060018288888860405160008152602001604052604051610d049493929190615f61565b6020604051602081039080840390855afa158015610d26573d6000803e3d6000fd5b5050604051601f1901519150610d6890506001600160a01b03821615801590610d6057508b6001600160a01b0316826001600160a01b0316145b6101f86116cb565b6001600160a01b038b166000908152600660205260409020600185019055610d918b8b8b610f8a565b5050505050505050505050565b60608088610dad6107d361091e565b610db86107f96106b5565b6060610dc2611139565b9050610dcc6105d7565b610e7f5760006060610de18d8d8d868b612db3565b91509150610dfa610df0612e4e565b83101560cc6116cb565b610e0c6000610e07612e4e565b612e55565b610e1f8b610e18612e4e565b8403612e55565b610e298184611e4c565b80610e326119fc565b67ffffffffffffffff81118015610e4857600080fd5b50604051908082528060200260200182016040528015610e72578160200160208202803683370190505b509550955050505061085a565b610e898882611d5b565b6000606080610e9e8e8e8e8e8e8e8a8f611dc6565b925092509250610eae8c84612e55565b610eb88285611e4c565b610ec28185611af0565b909550935061085a915050565b6000610ed961091e565b6001600160a01b0316826001600160a01b03161415610efb57506000196105bd565b610f058383612e5f565b90506105bd565b6060610610612739565b8061072e81612e8a565b61072e81831460676116cb565b6000828201610f3f84821015836116cb565b9392505050565b67ffffffffffffffff811b1992909216911b1790565b6000610f6c8383111560016116cb565b50900390565b6000610f8085858585612f03565b5050949350505050565b6001600160a01b0380841660008181526001602090815260408083209487168084529490915290819020849055517f8c5be1e5ebec7d5bd14f71427d1e84f3dd0314c0f7b2291e5b200ac8c7c3b92590610fe5908590615ea9565b60405180910390a3505050565b60006110216000357fffffffff0000000000000000000000000000000000000000000000000000000016610882565b90506105d46110308233612f7e565b6101916116cb565b8015611058576110536110496110f1565b42106101936116cb565b61106d565b61106d611063611115565b42106101a96116cb565b600780547fffffffffffffffffffffffffffffffffffffffffffffffffffffffffffffff00168215151790556040517f9e3a5e37224532dea67b89face185703738a228a6e8a23dee546960180d3be64906110c9908390615e86565b60405180910390a150565b60006110de611115565b42118061061057505060075460ff161590565b7f000000000000000000000000000000000000000000000000000000000000000090565b7f000000000000000000000000000000000000000000000000000000000000000090565b606060006111456119fc565b905060608167ffffffffffffffff8111801561116057600080fd5b5060405190808252806020026020018201604052801561118a578160200160208202803683370190505b5090507f0000000000000000000000000000000000000000000000000000000000000000816000815181106111bb57fe5b6020026020010181815250507f0000000000000000000000000000000000000000000000000000000000000000816001815181106111f557fe5b6020026020010181815250506002821115611249577f00000000000000000000000000000000000000000000000000000000000000008160028151811061123857fe5b602002602001018181525050611252565b91506105a99050565b6003821115611249577f00000000000000000000000000000000000000000000000000000000000000008160038151811061128957fe5b6020026020010181815250506004821115611249577f0000000000000000000000000000000000000000000000000000000000000000816004815181106112cc57fe5b6020026020010181815250506005821115611249577f00000000000000000000000000000000000000000000000000000000000000008160058151811061130f57fe5b6020026020010181815250506006821115611249577f00000000000000000000000000000000000000000000000000000000000000008160068151811061135257fe5b6020026020010181815250506007821115611249577f00000000000000000000000000000000000000000000000000000000000000008160078151811061139557fe5b6020026020010181815250506008821115611249577f0000000000000000000000000000000000000000000000000000000000000000816008815181106113d857fe5b6020026020010181815250506009821115611249577f00000000000000000000000000000000000000000000000000000000000000008160098151811061141b57fe5b602002602001018181525050600a821115611249577f000000000000000000000000000000000000000000000000000000000000000081600a8151811061145e57fe5b602002602001018181525050600b821115611249577f000000000000000000000000000000000000000000000000000000000000000081600b815181106114a157fe5b602002602001018181525050600c821115611249577f000000000000000000000000000000000000000000000000000000000000000081600c815181106114e457fe5b602002602001018181525050600d821115611249577f000000000000000000000000000000000000000000000000000000000000000081600d8151811061152757fe5b602002602001018181525050600e821115611249577f000000000000000000000000000000000000000000000000000000000000000081600e8151811061156a57fe5b602002602001018181525050600f821115611249577f000000000000000000000000000000000000000000000000000000000000000081600f815181106115ad57fe5b6020026020010181815250506010821115611249577f0000000000000000000000000000000000000000000000000000000000000000816010815181106115f057fe5b6020026020010181815250506011821115611249577f00000000000000000000000000000000000000000000000000000000000000008160118151811061163357fe5b6020026020010181815250506012821115611249577f00000000000000000000000000000000000000000000000000000000000000008160128151811061167657fe5b6020026020010181815250506013821115611249577f0000000000000000000000000000000000000000000000000000000000000000816013815181106116b957fe5b60200260200101818152505091505090565b8161072e5761072e81613067565b6116f06001600160a01b03841615156101986116cb565b6117076001600160a01b03831615156101996116cb565b611712838383611b51565b6001600160a01b03831660009081526020819052604090205461173890826101a06130d4565b6001600160a01b0380851660009081526020819052604080822093909355908416815220546117679082610f2d565b6001600160a01b0380841660008181526020819052604090819020939093559151908516907fddf252ad1be2c89b69c2b068fc378daa952ba7f163c4a11628f55a4df523b3ef90610fe5908590615ea9565b60007f00000000000000000000000000000000000000000000000000000000000000007f00000000000000000000000000000000000000000000000000000000000000007f00000000000000000000000000000000000000000000000000000000000000006118266130ea565b3060405160200161183b959493929190615f05565b60405160208183030381529060405280519060200120905090565b6118696118616110d4565b6101926116cb565b565b61187e64e8d4a5100082101560cb6116cb565b61189467016345785d8a000082111560ca6116cb565b6008546118a3908260c0610f46565b6008556040517fa9ba3ffe0b6c366b81232caab38605a0699ad5398d6cce76f91ee809e322dafc906110c9908390615ea9565b60006118e06106b5565b905060006118ec61091e565b6001600160a01b031663b05f8e4883866040518363ffffffff1660e01b8152600401611919929190615f4a565b60806040518083038186803b15801561193157600080fd5b505afa158015611945573d6000803e3d6000fd5b505050506040513d601f19601f820116820180604052508101906119699190615cdd565b6040517f18e736d40000000000000000000000000000000000000000000000000000000081529094506001600160a01b03851693506318e736d492506119b6915085908790600401615f31565b600060405180830381600087803b1580156119d057600080fd5b505af11580156119e4573d6000803e3d6000fd5b5050505050505050565b1c67ffffffffffffffff1690565b7f000000000000000000000000000000000000000000000000000000000000000090565b600060608060606000611a31610b45565b91509150611a3d6110d4565b15611a75576000611a4e838c612d25565b9050611a608b8484600954858e6130ee565b9350611a6f8b85610f5c61319f565b50611ac1565b611a7d6119fc565b67ffffffffffffffff81118015611a9357600080fd5b50604051908082528060200260200182016040528015611abd578160200160208202803683370190505b5092505b611acd8a83898961320a565b9095509350611add8a8584613297565b6009555050985098509895505050505050565b60005b611afb6119fc565b811015611b5157611b32838281518110611b1157fe5b6020026020010151838381518110611b2557fe5b6020026020010151611d0a565b838281518110611b3e57fe5b6020908102919091010152600101611af3565b505050565b333014611c45576000306001600160a01b0316600036604051611b7a929190615dd2565b6000604051808303816000865af19150503d8060008114611bb7576040519150601f19603f3d011682016040523d82523d6000602084013e611bbc565b606091505b505090508060008114611bcb57fe5b60046000803e6000517fffffffff00000000000000000000000000000000000000000000000000000000167f43adbafb000000000000000000000000000000000000000000000000000000008114611c27573d6000803e3d6000fd5b506020600460003e604060205260243d03602460403e601c3d016000f35b6060611c4f611139565b9050611c5b8782611d5b565b60006060611c738c8c8c8c8c8c898d8d63ffffffff16565b5091509150611c8681848663ffffffff16565b8051601f1982018390526343adbafb7fffffffffffffffffffffffffffffffffffffffffffffffffffffffffffffffc08301526020027fffffffffffffffffffffffffffffffffffffffffffffffffffffffffffffffdc82016044820181fd5b6000828202610f3f841580611d03575083858381611d0057fe5b04145b60036116cb565b6000611d1982151560046116cb565b82611d26575060006105bd565b670de0b6b3a764000083810290611d4990858381611d4057fe5b041460056116cb565b828181611d5257fe5b049150506105bd565b60005b611d666119fc565b811015611b5157611d9d838281518110611d7c57fe5b6020026020010151838381518110611d9057fe5b60200260200101516132b0565b838281518110611da957fe5b6020908102919091010152600101611d5e565b61072e82826132dc565b6000606080611dd3611856565b60606000611ddf610b45565b915091506000611def838c612d25565b90506060611e038c8585600954868f6130ee565b9050611e128c82610f5c61319f565b60006060611e228e878d8d613398565b91509150611e318e8288613411565b60095590975095509350505050985098509895505050505050565b60005b611e576119fc565b811015611b5157611e8e838281518110611e6d57fe5b6020026020010151838381518110611e8157fe5b6020026020010151613420565b838281518110611e9a57fe5b6020908102919091010152600101611e4f565b60007f00000000000000000000000000000000000000000000000000000000000000006001600160a01b0316826001600160a01b03161415611f1057507f00000000000000000000000000000000000000000000000000000000000000006107bf565b7f00000000000000000000000000000000000000000000000000000000000000006001600160a01b0316826001600160a01b03161415611f7157507f00000000000000000000000000000000000000000000000000000000000000006107bf565b7f00000000000000000000000000000000000000000000000000000000000000006001600160a01b0316826001600160a01b03161415611fd257507f00000000000000000000000000000000000000000000000000000000000000006107bf565b7f00000000000000000000000000000000000000000000000000000000000000006001600160a01b0316826001600160a01b0316141561203357507f00000000000000000000000000000000000000000000000000000000000000006107bf565b7f00000000000000000000000000000000000000000000000000000000000000006001600160a01b0316826001600160a01b0316141561209457507f00000000000000000000000000000000000000000000000000000000000000006107bf565b7f00000000000000000000000000000000000000000000000000000000000000006001600160a01b0316826001600160a01b031614156120f557507f00000000000000000000000000000000000000000000000000000000000000006107bf565b7f00000000000000000000000000000000000000000000000000000000000000006001600160a01b0316826001600160a01b0316141561215657507f00000000000000000000000000000000000000000000000000000000000000006107bf565b7f00000000000000000000000000000000000000000000000000000000000000006001600160a01b0316826001600160a01b031614156121b757507f00000000000000000000000000000000000000000000000000000000000000006107bf565b7f00000000000000000000000000000000000000000000000000000000000000006001600160a01b0316826001600160a01b0316141561221857507f00000000000000000000000000000000000000000000000000000000000000006107bf565b7f00000000000000000000000000000000000000000000000000000000000000006001600160a01b0316826001600160a01b0316141561227957507f00000000000000000000000000000000000000000000000000000000000000006107bf565b7f00000000000000000000000000000000000000000000000000000000000000006001600160a01b0316826001600160a01b031614156122da57507f00000000000000000000000000000000000000000000000000000000000000006107bf565b7f00000000000000000000000000000000000000000000000000000000000000006001600160a01b0316826001600160a01b0316141561233b57507f00000000000000000000000000000000000000000000000000000000000000006107bf565b7f00000000000000000000000000000000000000000000000000000000000000006001600160a01b0316826001600160a01b0316141561239c57507f00000000000000000000000000000000000000000000000000000000000000006107bf565b7f00000000000000000000000000000000000000000000000000000000000000006001600160a01b0316826001600160a01b031614156123fd57507f00000000000000000000000000000000000000000000000000000000000000006107bf565b7f00000000000000000000000000000000000000000000000000000000000000006001600160a01b0316826001600160a01b0316141561245e57507f00000000000000000000000000000000000000000000000000000000000000006107bf565b7f00000000000000000000000000000000000000000000000000000000000000006001600160a01b0316826001600160a01b031614156124bf57507f00000000000000000000000000000000000000000000000000000000000000006107bf565b7f00000000000000000000000000000000000000000000000000000000000000006001600160a01b0316826001600160a01b0316141561252057507f00000000000000000000000000000000000000000000000000000000000000006107bf565b7f00000000000000000000000000000000000000000000000000000000000000006001600160a01b0316826001600160a01b0316141561258157507f00000000000000000000000000000000000000000000000000000000000000006107bf565b7f00000000000000000000000000000000000000000000000000000000000000006001600160a01b0316826001600160a01b031614156125e257507f00000000000000000000000000000000000000000000000000000000000000006107bf565b7f00000000000000000000000000000000000000000000000000000000000000006001600160a01b0316826001600160a01b0316141561264357507f00000000000000000000000000000000000000000000000000000000000000006107bf565b6107bf610135613067565b60008061266361265c610732565b849061346e565b9050610f3f8382610f5c565b6000610f3f83836132b0565b61072e612687836134aa565b8261072e565b6000612697611856565b6126c0836126a886602001516134b0565b846126b688604001516134b0565b8860600151613c46565b949350505050565b6000610f3f8383611d0a565b60006126de611856565b6126c0836126ef86602001516134b0565b846126fd88604001516134b0565b8860600151613cc3565b6000610f3f8383613420565b60006105bd612732612723610732565b670de0b6b3a764000090610f5c565b8390613420565b606060006127456119fc565b905060608167ffffffffffffffff8111801561276057600080fd5b5060405190808252806020026020018201604052801561278a578160200160208202803683370190505b5090507f0000000000000000000000000000000000000000000000000000000000000000816000815181106127bb57fe5b6020026020010181815250507f0000000000000000000000000000000000000000000000000000000000000000816001815181106127f557fe5b6020026020010181815250506002821115611249577f00000000000000000000000000000000000000000000000000000000000000008160028151811061283857fe5b6020026020010181815250506003821115611249577f00000000000000000000000000000000000000000000000000000000000000008160038151811061287b57fe5b6020026020010181815250506004821115611249577f0000000000000000000000000000000000000000000000000000000000000000816004815181106128be57fe5b6020026020010181815250506005821115611249577f00000000000000000000000000000000000000000000000000000000000000008160058151811061290157fe5b6020026020010181815250506006821115611249577f00000000000000000000000000000000000000000000000000000000000000008160068151811061294457fe5b6020026020010181815250506007821115611249577f00000000000000000000000000000000000000000000000000000000000000008160078151811061298757fe5b6020026020010181815250506008821115611249577f0000000000000000000000000000000000000000000000000000000000000000816008815181106129ca57fe5b6020026020010181815250506009821115611249577f000000000000000000000000000000000000000000000000000000000000000081600981518110612a0d57fe5b602002602001018181525050600a821115611249577f000000000000000000000000000000000000000000000000000000000000000081600a81518110612a5057fe5b602002602001018181525050600b821115611249577f000000000000000000000000000000000000000000000000000000000000000081600b81518110612a9357fe5b602002602001018181525050600c821115611249577f000000000000000000000000000000000000000000000000000000000000000081600c81518110612ad657fe5b602002602001018181525050600d821115611249577f000000000000000000000000000000000000000000000000000000000000000081600d81518110612b1957fe5b602002602001018181525050600e821115611249577f000000000000000000000000000000000000000000000000000000000000000081600e81518110612b5c57fe5b602002602001018181525050600f821115611249577f000000000000000000000000000000000000000000000000000000000000000081600f81518110612b9f57fe5b6020026020010181815250506010821115611249577f000000000000000000000000000000000000000000000000000000000000000081601081518110612be257fe5b6020026020010181815250506011821115611249577f000000000000000000000000000000000000000000000000000000000000000081601181518110612c2557fe5b6020026020010181815250506012821115611249577f000000000000000000000000000000000000000000000000000000000000000081601281518110612c6857fe5b6020026020010181815250506013821115611249577f0000000000000000000000000000000000000000000000000000000000000000816013815181106116b957fe5b6000612cb561091e565b6001600160a01b031663aaabadc56040518163ffffffff1660e01b815260040160206040518083038186803b158015612ced57600080fd5b505afa158015612d01573d6000803e3d6000fd5b505050506040513d601f19601f820116820180604052508101906106109190615a54565b670de0b6b3a764000060005b8351811015612d8757612d7d612d76858381518110612d4c57fe5b6020026020010151858481518110612d6057fe5b6020026020010151613d3990919063ffffffff16565b83906132b0565b9150600101612d31565b506105bd600082116101376116cb565b6000612da16117b9565b826040516020016108b7929190615de2565b60006060612dbf611856565b6000612dca84613d88565b9050612de56000826003811115612ddd57fe5b1460ce6116cb565b6060612df085613d9e565b9050612e04612dfd6119fc565b8251610f20565b612e0e8187611d5b565b6060612e18610b45565b5090506000612e278284612d25565b90506000612e378261079a6119fc565b600992909255509a91995090975050505050505050565b620f424090565b61072e8282613db4565b6001600160a01b03918216600090815260016020908152604080832093909416825291909152205490565b600281511015612e99576105d4565b600081600081518110612ea857fe5b602002602001015190506000600190505b8251811015611b51576000838281518110612ed057fe5b60200260200101519050612ef9816001600160a01b0316846001600160a01b03161060656116cb565b9150600101612eb9565b60006060806000612f1385613e42565b91509150612f29612f226119fc565b8351610f20565b612f338287611d5b565b60006060612f528a8a86612f456105d7565b612f4d610732565b613e65565b91509150612f5f81613fce565b612f6d8383101560d06116cb565b509350909150505b94509492505050565b600073ba1ba1ba1ba1ba1ba1ba1ba1ba1ba1ba1ba1ba1b612f9d6108fa565b6001600160a01b031614158015612fb85750612fb883614012565b15612fe057612fc56108fa565b6001600160a01b0316336001600160a01b03161490506105bd565b612fe8612cab565b6001600160a01b0316639be2a8848484306040518463ffffffff1660e01b815260040161301793929190615eb2565b60206040518083038186803b15801561302f57600080fd5b505afa158015613043573d6000803e3d6000fd5b505050506040513d601f19601f82011682018060405250810190610f059190615955565b7f08c379a0000000000000000000000000000000000000000000000000000000006000908152602060045260076024526642414c23000030600a808404818106603090810160081b95839006959095019082900491820690940160101b939093010160c81b604452606490fd5b60006130e384841115836116cb565b5050900390565b4690565b6060806130f96119fc565b67ffffffffffffffff8111801561310f57600080fd5b50604051908082528060200260200182016040528015613139578160200160208202803683370190505b50905082613148579050613195565b61317b88878151811061315757fe5b602002602001015188888151811061316b57fe5b6020026020010151878787614076565b81878151811061318757fe5b602090810291909101015290505b9695505050505050565b60005b6131aa6119fc565b811015613204576131e58482815181106131c057fe5b60200260200101518483815181106131d457fe5b60200260200101518463ffffffff16565b8482815181106131f157fe5b60209081029190910101526001016131a2565b50505050565b60006060600061321984613d88565b9050600081600381111561322957fe5b14156132445761323a8787866140ee565b9250925050612f75565b600181600381111561325257fe5b14156132625761323a87856141e5565b600281600381111561327057fe5b14156132825761323a87878787614217565b61328d610150613067565b5094509492505050565b60006132a68484610f5c61319f565b6126c08285612d25565b60008282026132ca841580611d03575083858381611d0057fe5b670de0b6b3a764000090049392505050565b6132f36001600160a01b038316151561019b6116cb565b6132ff82600083611b51565b6001600160a01b03821660009081526020819052604090205461332590826101a16130d4565b6001600160a01b03831660009081526020819052604090205560025461334b9082614285565b6002556040516000906001600160a01b038416907fddf252ad1be2c89b69c2b068fc378daa952ba7f163c4a11628f55a4df523b3ef9061338c908590615ea9565b60405180910390a35050565b6000606060006133a784613d88565b905060018160038111156133b757fe5b14156133c95761323a87878787612f03565b60028160038111156133d757fe5b14156133e85761323a878786614293565b60038160038111156133f657fe5b14156134065761323a87856142f6565b61328d610136613067565b60006132a68484610f2d61319f565b600061342f82151560046116cb565b8261343c575060006105bd565b670de0b6b3a76400008381029061345690858381611d4057fe5b82600182038161346257fe5b046001019150506105bd565b6000828202613488841580611d03575083858381611d0057fe5b806134975760009150506105bd565b670de0b6b3a76400006000198201613462565b50600090565b60007f00000000000000000000000000000000000000000000000000000000000000006001600160a01b0316826001600160a01b0316141561351357507f00000000000000000000000000000000000000000000000000000000000000006107bf565b7f00000000000000000000000000000000000000000000000000000000000000006001600160a01b0316826001600160a01b0316141561357457507f00000000000000000000000000000000000000000000000000000000000000006107bf565b7f00000000000000000000000000000000000000000000000000000000000000006001600160a01b0316826001600160a01b031614156135d557507f00000000000000000000000000000000000000000000000000000000000000006107bf565b7f00000000000000000000000000000000000000000000000000000000000000006001600160a01b0316826001600160a01b0316141561363657507f00000000000000000000000000000000000000000000000000000000000000006107bf565b7f00000000000000000000000000000000000000000000000000000000000000006001600160a01b0316826001600160a01b0316141561369757507f00000000000000000000000000000000000000000000000000000000000000006107bf565b7f00000000000000000000000000000000000000000000000000000000000000006001600160a01b0316826001600160a01b031614156136f857507f00000000000000000000000000000000000000000000000000000000000000006107bf565b7f00000000000000000000000000000000000000000000000000000000000000006001600160a01b0316826001600160a01b0316141561375957507f00000000000000000000000000000000000000000000000000000000000000006107bf565b7f00000000000000000000000000000000000000000000000000000000000000006001600160a01b0316826001600160a01b031614156137ba57507f00000000000000000000000000000000000000000000000000000000000000006107bf565b7f00000000000000000000000000000000000000000000000000000000000000006001600160a01b0316826001600160a01b0316141561381b57507f00000000000000000000000000000000000000000000000000000000000000006107bf565b7f00000000000000000000000000000000000000000000000000000000000000006001600160a01b0316826001600160a01b0316141561387c57507f00000000000000000000000000000000000000000000000000000000000000006107bf565b7f00000000000000000000000000000000000000000000000000000000000000006001600160a01b0316826001600160a01b031614156138dd57507f00000000000000000000000000000000000000000000000000000000000000006107bf565b7f00000000000000000000000000000000000000000000000000000000000000006001600160a01b0316826001600160a01b0316141561393e57507f00000000000000000000000000000000000000000000000000000000000000006107bf565b7f00000000000000000000000000000000000000000000000000000000000000006001600160a01b0316826001600160a01b0316141561399f57507f00000000000000000000000000000000000000000000000000000000000000006107bf565b7f00000000000000000000000000000000000000000000000000000000000000006001600160a01b0316826001600160a01b03161415613a0057507f00000000000000000000000000000000000000000000000000000000000000006107bf565b7f00000000000000000000000000000000000000000000000000000000000000006001600160a01b0316826001600160a01b03161415613a6157507f00000000000000000000000000000000000000000000000000000000000000006107bf565b7f00000000000000000000000000000000000000000000000000000000000000006001600160a01b0316826001600160a01b03161415613ac257507f00000000000000000000000000000000000000000000000000000000000000006107bf565b7f00000000000000000000000000000000000000000000000000000000000000006001600160a01b0316826001600160a01b03161415613b2357507f00000000000000000000000000000000000000000000000000000000000000006107bf565b7f00000000000000000000000000000000000000000000000000000000000000006001600160a01b0316826001600160a01b03161415613b8457507f00000000000000000000000000000000000000000000000000000000000000006107bf565b7f00000000000000000000000000000000000000000000000000000000000000006001600160a01b0316826001600160a01b03161415613be557507f00000000000000000000000000000000000000000000000000000000000000006107bf565b7f00000000000000000000000000000000000000000000000000000000000000006001600160a01b0316826001600160a01b0316141561264357507f00000000000000000000000000000000000000000000000000000000000000006107bf565b6000613c68613c5d87670429d069189e00006132b0565b8311156101306116cb565b6000613c748784610f2d565b90506000613c828883613420565b90506000613c908887611d0a565b90506000613c9e838361431b565b9050613cb3613cac82614347565b89906132b0565b9450505050505b95945050505050565b6000613ce5613cda85670429d069189e00006132b0565b8311156101316116cb565b6000613cfb613cf48685610f5c565b8690613420565b90506000613d098588613420565b90506000613d17838361431b565b90506000613d2d82670de0b6b3a7640000610f5c565b9050613cb38a8261346e565b600080613d46848461436d565b90506000613d60613d598361271061346e565b6001610f2d565b905080821015613d75576000925050506105bd565b613d7f8282610f5c565b925050506105bd565b6000818060200190518101906105bd9190615abe565b606081806020019051810190610f3f9190615b84565b613dc060008383611b51565b600254613dcd9082610f2d565b6002556001600160a01b038216600090815260208190526040902054613df39082610f2d565b6001600160a01b0383166000818152602081905260408082209390935591519091907fddf252ad1be2c89b69c2b068fc378daa952ba7f163c4a11628f55a4df523b3ef9061338c908590615ea9565b6060600082806020019051810190613e5a9190615ada565b909590945092505050565b6000606080855167ffffffffffffffff81118015613e8257600080fd5b50604051908082528060200260200182016040528015613eac578160200160208202803683370190505b5090506000805b8951811015613f7157613f0c8a8281518110613ecb57fe5b602002602001015161079f8a8481518110613ee257fe5b60200260200101518d8581518110613ef657fe5b6020026020010151610f2d90919063ffffffff16565b838281518110613f1857fe5b602002602001018181525050613f67613f608a8381518110613f3657fe5b6020026020010151858481518110613f4a57fe5b60200260200101516132b090919063ffffffff16565b8390610f2d565b9150600101613eb3565b5060006060613f848b8b8b87878c6144a0565b915091506000670de0b6b3a76400008311613fa0576000613fbc565b613fbc613fb584670de0b6b3a7640000610f5c565b8a906132b0565b9c919b50909950505050505050505050565b613fdb81516107546119fc565b60005b613fe66119fc565b81101561072e5761400a81838381518110613ffd57fe5b602002602001015161072e565b600101613fde565b600061403d7f38e9922e00000000000000000000000000000000000000000000000000000000610882565b8214806105bd575061406e7f50dd6ed900000000000000000000000000000000000000000000000000000000610882565b909114919050565b600083831161408757506000613cba565b60006140938585613420565b905060006140a9670de0b6b3a764000088611d0a565b90506140bd826709b6e64a8ec6000061463b565b915060006140cb838361431b565b905060006140e26140db83614347565b8b906132b0565b9050613cb381876132b0565b600060606140fa611856565b60008061410685614652565b9150915061411e6141156119fc565b821060646116cb565b60008061416289848151811061413057fe5b602002602001015189858151811061414457fe5b6020026020010151866141556105d7565b61415d610732565b614669565b91509150614170838261072e565b606061417a6119fc565b67ffffffffffffffff8111801561419057600080fd5b506040519080825280602002602001820160405280156141ba578160200160208202803683370190505b509050828185815181106141ca57fe5b60209081029190910101529399939850929650505050505050565b6000606060006141f484614725565b9050606061420a86836142056105d7565b61473b565b9196919550909350505050565b60006060614223611856565b6060600061423085613e42565b9150915061424182516107546119fc565b61424b8287611d5b565b6000606061426a8a8a8661425d6105d7565b614265610732565b6147d7565b9150915061427c8383111560cf6116cb565b612f6d81613fce565b6000610f3f838360016130d4565b600060606000806142a385614652565b915091506142b26141156119fc565b6000806141628984815181106142c457fe5b60200260200101518985815181106142d857fe5b6020026020010151866142e96105d7565b6142f1610732565b6148f2565b60006060600061430584614725565b9050606061420a86836143166105d7565b6149c1565b600080614328848461436d565b9050600061433b613d598361271061346e565b9050613cba8282610f2d565b6000670de0b6b3a7640000821061435f5760006105bd565b50670de0b6b3a76400000390565b6000816143835750670de0b6b3a76400006105bd565b82614390575060006105bd565b6143bd7f8000000000000000000000000000000000000000000000000000000000000000841060066116cb565b826143e3770bce5086492111aea88f4bb1ca6bcf584181ea8059f76532841060076116cb565b826000670c7d713b49da0000831380156144045750670f43fc2c04ee000083125b1561443b57600061441484614a53565b9050670de0b6b3a764000080820784020583670de0b6b3a764000083050201915050614449565b8161444584614b8a565b0290505b670de0b6b3a764000090056144977ffffffffffffffffffffffffffffffffffffffffffffffffdc702bd3a30fc00008212801590614490575068070c1cc73b00c800008213155b60086116cb565b61319581614f2a565b60006060855167ffffffffffffffff811180156144bc57600080fd5b506040519080825280602002602001820160405280156144e6578160200160208202803683370190505b509050670de0b6b3a7640000915060005b885181101561462f5760008587838151811061450f57fe5b602002602001015111156145b157600061454061453488670de0b6b3a7640000610f5c565b8c8581518110613f4a57fe5b9050600061456a828b868151811061455457fe5b6020026020010151610f5c90919063ffffffff16565b90506000614578828961346e565b905061458e6145878383610f5c565b8490610f2d565b93508086868151811061459d57fe5b6020026020010181815250505050506145c8565b8782815181106145bd57fe5b602002602001015190505b60006145f18b84815181106145d957fe5b602002602001015161079f848e8781518110613ef657fe5b905061462361461c8b858151811061460557fe5b602002602001015183613d3990919063ffffffff16565b86906132b0565b945050506001016144f7565b50965096945050505050565b60008183101561464b5781610f3f565b5090919050565b60008082806020019051810190613e5a9190615b4e565b600080806146818561467b8189610f5c565b90613420565b905061469a6709b6e64a8ec600008210156101326116cb565b60006146b86146b1670de0b6b3a76400008a611d0a565b839061431b565b905060006146c86140db83614347565b905060006146d58a614347565b905060006146e3838361346e565b905060006146f18483610f5c565b90506146fd828a61346e565b965061471361470c8389610f5c565b8290610f2d565b97505050505050509550959350505050565b600081806020019051810190610f3f9190615b21565b606060006147498484611d0a565b90506060855167ffffffffffffffff8111801561476557600080fd5b5060405190808252806020026020018201604052801561478f578160200160208202803683370190505b50905060005b86518110156147cd576147ae83888381518110613f4a57fe5b8282815181106147ba57fe5b6020908102919091010152600101614795565b5095945050505050565b6000606080855167ffffffffffffffff811180156147f457600080fd5b5060405190808252806020026020018201604052801561481e578160200160208202803683370190505b5090506000805b89518110156148c6576148688a828151811061483d57fe5b602002602001015161467b8a848151811061485457fe5b60200260200101518d858151811061455457fe5b83828151811061487457fe5b6020026020010181815250506148bc613f608a838151811061489257fe5b60200260200101518584815181106148a657fe5b602002602001015161346e90919063ffffffff16565b9150600101614825565b50600060606148d98b8b8b87878c6153fa565b915091506000613fbc6148eb84614347565b8a9061346e565b600080806149048561467b8189610f2d565b905061491d6729a2241af62c00008211156101336116cb565b60006149346146b1670de0b6b3a76400008a613420565b9050600061495461494d83670de0b6b3a7640000610f5c565b8b9061346e565b905060006149618a614347565b9050600061496f838361346e565b9050600061497d8483610f5c565b9050600061499d614996670de0b6b3a76400008c610f5c565b8490613420565b838103985090506149ae8282610f2d565b9850505050505050509550959350505050565b606060006149cf8484613420565b90506060855167ffffffffffffffff811180156149eb57600080fd5b50604051908082528060200260200182016040528015614a15578160200160208202803683370190505b50905060005b86518110156147cd57614a34838883815181106148a657fe5b828281518110614a4057fe5b6020908102919091010152600101614a1b565b670de0b6b3a7640000026000806ec097ce7bc90715b34b9f1000000000808401907fffffffffffffffffffffffffffffffffff3f68318436f8ea4cb460f00000000085010281614a9f57fe5b05905060006ec097ce7bc90715b34b9f100000000082800205905081806ec097ce7bc90715b34b9f100000000081840205915060038205016ec097ce7bc90715b34b9f100000000082840205915060058205016ec097ce7bc90715b34b9f100000000082840205915060078205016ec097ce7bc90715b34b9f100000000082840205915060098205016ec097ce7bc90715b34b9f1000000000828402059150600b8205016ec097ce7bc90715b34b9f1000000000828402059150600d8205016ec097ce7bc90715b34b9f1000000000828402059150600f826002919005919091010295945050505050565b6000670de0b6b3a7640000821215614bc757614bbd826ec097ce7bc90715b34b9f100000000081614bb757fe5b05614b8a565b60000390506107bf565b60007e1600ef3172e58d2e933ec884fde10064c63b5372d805e203c00000000000008312614c1857770195e54c5dd42177f53a27172fa9ec630262827000000000830592506806f05b59d3b2000000015b73011798004d755d3c8bc8e03204cf44619e0000008312614c50576b1425982cf597cd205cef7380830592506803782dace9d9000000015b606492830292026e01855144814a7ff805980ff00840008312614c98576e01855144814a7ff805980ff008400068056bc75e2d63100000840205925068ad78ebc5ac62000000015b6b02df0ab5a80a22c61ab5a7008312614cd3576b02df0ab5a80a22c61ab5a70068056bc75e2d6310000084020592506856bc75e2d631000000015b693f1fce3da636ea5cf8508312614d0a57693f1fce3da636ea5cf85068056bc75e2d631000008402059250682b5e3af16b18800000015b690127fa27722cc06cc5e28312614d4157690127fa27722cc06cc5e268056bc75e2d6310000084020592506815af1d78b58c400000015b68280e60114edb805d038312614d765768280e60114edb805d0368056bc75e2d631000008402059250680ad78ebc5ac6200000015b680ebc5fb417461211108312614da157680ebc5fb4174612111068056bc75e2d631000009384020592015b6808f00f760a4b2db55d8312614dd6576808f00f760a4b2db55d68056bc75e2d6310000084020592506802b5e3af16b1880000015b6806f5f17757889379378312614e0b576806f5f177578893793768056bc75e2d63100000840205925068015af1d78b58c40000015b6806248f33704b2866038312614e3f576806248f33704b28660368056bc75e2d63100000840205925067ad78ebc5ac620000015b6805c548670b9510e7ac8312614e73576805c548670b9510e7ac68056bc75e2d6310000084020592506756bc75e2d6310000015b600068056bc75e2d63100000840168056bc75e2d631000008086030281614e9657fe5b059050600068056bc75e2d63100000828002059050818068056bc75e2d63100000818402059150600382050168056bc75e2d63100000828402059150600582050168056bc75e2d63100000828402059150600782050168056bc75e2d63100000828402059150600982050168056bc75e2d63100000828402059150600b820501600202606485820105979650505050505050565b6000614f6f7ffffffffffffffffffffffffffffffffffffffffffffffffdc702bd3a30fc00008312158015614f68575068070c1cc73b00c800008313155b60096116cb565b6000821215614fa357614f8482600003614f2a565b6ec097ce7bc90715b34b9f100000000081614f9b57fe5b0590506107bf565b60006806f05b59d3b20000008312614ff957507ffffffffffffffffffffffffffffffffffffffffffffffff90fa4a62c4e00000090910190770195e54c5dd42177f53a27172fa9ec630262827000000000615045565b6803782dace9d9000000831261504157507ffffffffffffffffffffffffffffffffffffffffffffffffc87d2531627000000909101906b1425982cf597cd205cef7380615045565b5060015b6064929092029168056bc75e2d6310000068ad78ebc5ac6200000084126150ab577fffffffffffffffffffffffffffffffffffffffffffffff5287143a539e0000009093019268056bc75e2d631000006e01855144814a7ff805980ff008400082020590505b6856bc75e2d63100000084126150fd577fffffffffffffffffffffffffffffffffffffffffffffffa9438a1d29cf0000009093019268056bc75e2d631000006b02df0ab5a80a22c61ab5a70082020590505b682b5e3af16b18800000841261514d577fffffffffffffffffffffffffffffffffffffffffffffffd4a1c50e94e78000009093019268056bc75e2d63100000693f1fce3da636ea5cf85082020590505b6815af1d78b58c400000841261519d577fffffffffffffffffffffffffffffffffffffffffffffffea50e2874a73c000009093019268056bc75e2d63100000690127fa27722cc06cc5e282020590505b680ad78ebc5ac620000084126151ec577ffffffffffffffffffffffffffffffffffffffffffffffff5287143a539e000009093019268056bc75e2d6310000068280e60114edb805d0382020590505b68056bc75e2d63100000841261523b577ffffffffffffffffffffffffffffffffffffffffffffffffa9438a1d29cf000009093019268056bc75e2d63100000680ebc5fb4174612111082020590505b6802b5e3af16b1880000841261528a577ffffffffffffffffffffffffffffffffffffffffffffffffd4a1c50e94e7800009093019268056bc75e2d631000006808f00f760a4b2db55d82020590505b68015af1d78b58c4000084126152d9577ffffffffffffffffffffffffffffffffffffffffffffffffea50e2874a73c00009093019268056bc75e2d631000006806f5f177578893793782020590505b68056bc75e2d631000008481019085906002908280020505918201919050600368056bc75e2d631000008783020505918201919050600468056bc75e2d631000008783020505918201919050600568056bc75e2d631000008783020505918201919050600668056bc75e2d631000008783020505918201919050600768056bc75e2d631000008783020505918201919050600868056bc75e2d631000008783020505918201919050600968056bc75e2d631000008783020505918201919050600a68056bc75e2d631000008783020505918201919050600b68056bc75e2d631000008783020505918201919050600c68056bc75e2d631000008783020505918201919050606468056bc75e2d63100000848402058502059695505050505050565b60006060855167ffffffffffffffff8111801561541657600080fd5b50604051908082528060200260200182016040528015615440578160200160208202803683370190505b509050670de0b6b3a7640000915060005b885181101561462f57600086828151811061546857fe5b60200260200101518611156154e257600061548561453488614347565b90506000615499828b868151811061455457fe5b905060006154b2612732670de0b6b3a76400008a610f5c565b90508181038686815181106154c357fe5b60209081029190910101526154d88382610f2d565b93505050506154f9565b8782815181106154ee57fe5b602002602001015190505b60006155228b848151811061550a57fe5b602002602001015161079f848e878151811061455457fe5b905061553661461c8b858151811061460557fe5b94505050600101615451565b80356105bd81616000565b600082601f83011261555d578081fd5b813561557061556b82615fe0565b615fb9565b81815291506020808301908481018184028601820187101561559157600080fd5b60005b848110156155b057813584529282019290820190600101615594565b505050505092915050565b600082601f8301126155cb578081fd5b81516155d961556b82615fe0565b8181529150602080830190848101818402860182018710156155fa57600080fd5b60005b848110156155b0578151845292820192908201906001016155fd565b600082601f830112615629578081fd5b813567ffffffffffffffff81111561563f578182fd5b6156526020601f19601f84011601615fb9565b915080825283602082850101111561566957600080fd5b8060208401602084013760009082016020015292915050565b8035600281106105bd57600080fd5b6000602082840312156156a2578081fd5b8135610f3f81616000565b600080604083850312156156bf578081fd5b82356156ca81616000565b915060208301356156da81616000565b809150509250929050565b6000806000606084860312156156f9578081fd5b833561570481616000565b9250602084013561571481616000565b929592945050506040919091013590565b600080600080600080600060e0888a03121561573f578283fd5b873561574a81616000565b9650602088013561575a81616000565b95506040880135945060608801359350608088013560ff8116811461577d578384fd5b9699959850939692959460a0840135945060c09093013592915050565b600080604083850312156157ac578182fd5b82356157b781616000565b946020939093013593505050565b6000806000606084860312156157d9578081fd5b835167ffffffffffffffff808211156157f0578283fd5b818601915086601f830112615803578283fd5b815161581161556b82615fe0565b80828252602080830192508086018b828387028901011115615831578788fd5b8796505b8487101561585c57805161584881616000565b845260019690960195928101928101615835565b508901519097509350505080821115615873578283fd5b50615880868287016155bb565b925050604084015190509250925092565b600080600080608085870312156158a6578182fd5b843567ffffffffffffffff808211156158bd578384fd5b6158c98883890161554d565b955060208701359150808211156158de578384fd5b6158ea8883890161554d565b945060408701359150808211156158ff578384fd5b61590b8883890161554d565b93506060870135915080821115615920578283fd5b5061592d87828801615619565b91505092959194509250565b60006020828403121561594a578081fd5b8135610f3f81616015565b600060208284031215615966578081fd5b8151610f3f81616015565b600080600080600080600060e0888a03121561598b578081fd5b87359650602088013561599d81616000565b955060408801356159ad81616000565b9450606088013567ffffffffffffffff808211156159c9578283fd5b6159d58b838c0161554d565b955060808a0135945060a08a0135935060c08a01359150808211156159f8578283fd5b50615a058a828b01615619565b91505092959891949750929550565b600060208284031215615a25578081fd5b81357fffffffff0000000000000000000000000000000000000000000000000000000081168114610f3f578182fd5b600060208284031215615a65578081fd5b8151610f3f81616000565b60008060408385031215615a82578182fd5b8235615a8d81616000565b9150602083013567ffffffffffffffff811115615aa8578182fd5b615ab485828601615619565b9150509250929050565b600060208284031215615acf578081fd5b8151610f3f81616023565b600080600060608486031215615aee578081fd5b8351615af981616023565b602085015190935067ffffffffffffffff811115615b15578182fd5b615880868287016155bb565b60008060408385031215615b33578182fd5b8251615b3e81616023565b6020939093015192949293505050565b600080600060608486031215615b62578081fd5b8351615b6d81616023565b602085015160409095015190969495509392505050565b60008060408385031215615b96578182fd5b8251615ba181616023565b602084015190925067ffffffffffffffff811115615bbd578182fd5b615ab4858286016155bb565b600080600060608486031215615bdd578081fd5b833567ffffffffffffffff80821115615bf4578283fd5b8186019150610120808389031215615c0a578384fd5b615c1381615fb9565b9050615c1f8884615682565b8152615c2e8860208501615542565b6020820152615c408860408501615542565b6040820152606083013560608201526080830135608082015260a083013560a0820152615c708860c08501615542565b60c0820152615c828860e08501615542565b60e08201526101008084013583811115615c9a578586fd5b615ca68a828701615619565b9183019190915250976020870135975060409096013595945050505050565b600060208284031215615cd6578081fd5b5035919050565b60008060008060808587031215615cf2578182fd5b8451935060208501519250604085015191506060850151615d1281616000565b939692955090935050565b6000815180845260208085019450808401835b83811015615d4c57815187529582019590820190600101615d30565b509495945050505050565b60008151808452815b81811015615d7c57602081850181015186830182015201615d60565b81811115615d8d5782602083870101525b50601f01601f19169290920160200192915050565b9182527fffffffff0000000000000000000000000000000000000000000000000000000016602082015260240190565b6000828483379101908152919050565b7f190100000000000000000000000000000000000000000000000000000000000081526002810192909252602282015260420190565b6001600160a01b0391909116815260200190565b600060208252610f3f6020830184615d1d565b600060408252615e526040830185615d1d565b8281036020840152613cba8185615d1d565b600060408252615e776040830185615d1d565b90508260208301529392505050565b901515815260200190565b92151583526020830191909152604082015260600190565b90815260200190565b9283526001600160a01b03918216602084015216604082015260600190565b9586526001600160a01b0394851660208701529290931660408501526060840152608083019190915260a082015260c00190565b9485526020850193909352604084019190915260608301526001600160a01b0316608082015260a00190565b6000838252604060208301526126c06040830184615d57565b9182526001600160a01b0316602082015260400190565b93845260ff9290921660208401526040830152606082015260800190565b600060208252610f3f6020830184615d57565b6000838252604060208301526126c06040830184615d1d565b60ff91909116815260200190565b60405181810167ffffffffffffffff81118282101715615fd857600080fd5b604052919050565b600067ffffffffffffffff821115615ff6578081fd5b5060209081020190565b6001600160a01b03811681146105d457600080fd5b80151581146105d457600080fd5b600481106105d457600080fdfea26469706673582212203adae3ea4617d46d748026851835f2a12bd5fe5630aac2e77603fab2e8e5469964736f6c63430007010033",
  "linkReferences": {},
  "deployedLinkReferences": {}
}