{
  "_format": "hh-sol-artifact-1",
  "contractName": "InvestmentPool",
  "sourceName": "contracts/smart/InvestmentPool.sol",
  "abi": [
    {
      "inputs": [
        {
          "components": [
            {
              "internalType": "contract IVault",
              "name": "vault",
              "type": "address"
            },
            {
              "internalType": "string",
              "name": "name",
              "type": "string"
            },
            {
              "internalType": "string",
              "name": "symbol",
              "type": "string"
            },
            {
              "internalType": "contract IERC20[]",
              "name": "tokens",
              "type": "address[]"
            },
            {
              "internalType": "uint256[]",
              "name": "normalizedWeights",
              "type": "uint256[]"
            },
            {
              "internalType": "address[]",
              "name": "assetManagers",
              "type": "address[]"
            },
            {
              "internalType": "uint256",
              "name": "swapFeePercentage",
              "type": "uint256"
            },
            {
              "internalType": "uint256",
              "name": "pauseWindowDuration",
              "type": "uint256"
            },
            {
              "internalType": "uint256",
              "name": "bufferPeriodDuration",
              "type": "uint256"
            },
            {
              "internalType": "address",
              "name": "owner",
              "type": "address"
            },
            {
              "internalType": "bool",
              "name": "swapEnabledOnStart",
              "type": "bool"
            },
            {
              "internalType": "uint256",
              "name": "managementSwapFeePercentage",
              "type": "uint256"
            }
          ],
          "internalType": "struct InvestmentPool.NewPoolParams",
          "name": "params",
          "type": "tuple"
        }
      ],
      "stateMutability": "nonpayable",
      "type": "constructor"
    },
    {
      "anonymous": false,
      "inputs": [
        {
          "indexed": true,
          "internalType": "address",
          "name": "owner",
          "type": "address"
        },
        {
          "indexed": true,
          "internalType": "address",
          "name": "spender",
          "type": "address"
        },
        {
          "indexed": false,
          "internalType": "uint256",
          "name": "value",
          "type": "uint256"
        }
      ],
      "name": "Approval",
      "type": "event"
    },
    {
      "anonymous": false,
      "inputs": [
        {
          "indexed": false,
          "internalType": "uint256",
          "name": "startTime",
          "type": "uint256"
        },
        {
          "indexed": false,
          "internalType": "uint256",
          "name": "endTime",
          "type": "uint256"
        },
        {
          "indexed": false,
          "internalType": "uint256[]",
          "name": "startWeights",
          "type": "uint256[]"
        },
        {
          "indexed": false,
          "internalType": "uint256[]",
          "name": "endWeights",
          "type": "uint256[]"
        }
      ],
      "name": "GradualWeightUpdateScheduled",
      "type": "event"
    },
    {
      "anonymous": false,
      "inputs": [
        {
          "indexed": false,
          "internalType": "uint256",
          "name": "managementFeePercentage",
          "type": "uint256"
        }
      ],
      "name": "ManagementFeePercentageChanged",
      "type": "event"
    },
    {
      "anonymous": false,
      "inputs": [
        {
          "indexed": false,
          "internalType": "contract IERC20[]",
          "name": "tokens",
          "type": "address[]"
        },
        {
          "indexed": false,
          "internalType": "uint256[]",
          "name": "amounts",
          "type": "uint256[]"
        }
      ],
      "name": "ManagementFeesCollected",
      "type": "event"
    },
    {
      "anonymous": false,
      "inputs": [
        {
          "indexed": false,
          "internalType": "bool",
          "name": "paused",
          "type": "bool"
        }
      ],
      "name": "PausedStateChanged",
      "type": "event"
    },
    {
      "anonymous": false,
      "inputs": [
        {
          "indexed": false,
          "internalType": "bool",
          "name": "swapEnabled",
          "type": "bool"
        }
      ],
      "name": "SwapEnabledSet",
      "type": "event"
    },
    {
      "anonymous": false,
      "inputs": [
        {
          "indexed": false,
          "internalType": "uint256",
          "name": "swapFeePercentage",
          "type": "uint256"
        }
      ],
      "name": "SwapFeePercentageChanged",
      "type": "event"
    },
    {
      "anonymous": false,
      "inputs": [
        {
          "indexed": true,
          "internalType": "address",
          "name": "from",
          "type": "address"
        },
        {
          "indexed": true,
          "internalType": "address",
          "name": "to",
          "type": "address"
        },
        {
          "indexed": false,
          "internalType": "uint256",
          "name": "value",
          "type": "uint256"
        }
      ],
      "name": "Transfer",
      "type": "event"
    },
    {
      "inputs": [],
      "name": "DOMAIN_SEPARATOR",
      "outputs": [
        {
          "internalType": "bytes32",
          "name": "",
          "type": "bytes32"
        }
      ],
      "stateMutability": "view",
      "type": "function"
    },
    {
      "inputs": [
        {
          "internalType": "address",
          "name": "owner",
          "type": "address"
        },
        {
          "internalType": "address",
          "name": "spender",
          "type": "address"
        }
      ],
      "name": "allowance",
      "outputs": [
        {
          "internalType": "uint256",
          "name": "",
          "type": "uint256"
        }
      ],
      "stateMutability": "view",
      "type": "function"
    },
    {
      "inputs": [
        {
          "internalType": "address",
          "name": "spender",
          "type": "address"
        },
        {
          "internalType": "uint256",
          "name": "amount",
          "type": "uint256"
        }
      ],
      "name": "approve",
      "outputs": [
        {
          "internalType": "bool",
          "name": "",
          "type": "bool"
        }
      ],
      "stateMutability": "nonpayable",
      "type": "function"
    },
    {
      "inputs": [
        {
          "internalType": "address",
          "name": "account",
          "type": "address"
        }
      ],
      "name": "balanceOf",
      "outputs": [
        {
          "internalType": "uint256",
          "name": "",
          "type": "uint256"
        }
      ],
      "stateMutability": "view",
      "type": "function"
    },
    {
      "inputs": [
        {
          "internalType": "uint256[]",
          "name": "balances",
          "type": "uint256[]"
        },
        {
          "internalType": "uint256[]",
          "name": "normalizedWeights",
          "type": "uint256[]"
        },
        {
          "internalType": "uint256[]",
          "name": "scalingFactors",
          "type": "uint256[]"
        },
        {
          "internalType": "bytes",
          "name": "userData",
          "type": "bytes"
        }
      ],
      "name": "calculateExactTokensInForBPTOut",
      "outputs": [
        {
          "internalType": "uint256",
          "name": "",
          "type": "uint256"
        }
      ],
      "stateMutability": "nonpayable",
      "type": "function"
    },
    {
      "inputs": [],
      "name": "decimals",
      "outputs": [
        {
          "internalType": "uint8",
          "name": "",
          "type": "uint8"
        }
      ],
      "stateMutability": "view",
      "type": "function"
    },
    {
      "inputs": [
        {
          "internalType": "address",
          "name": "spender",
          "type": "address"
        },
        {
          "internalType": "uint256",
          "name": "amount",
          "type": "uint256"
        }
      ],
      "name": "decreaseAllowance",
      "outputs": [
        {
          "internalType": "bool",
          "name": "",
          "type": "bool"
        }
      ],
      "stateMutability": "nonpayable",
      "type": "function"
    },
    {
      "inputs": [
        {
          "internalType": "bytes4",
          "name": "selector",
          "type": "bytes4"
        }
      ],
      "name": "getActionId",
      "outputs": [
        {
          "internalType": "bytes32",
          "name": "",
          "type": "bytes32"
        }
      ],
      "stateMutability": "view",
      "type": "function"
    },
    {
      "inputs": [],
      "name": "getAuthorizer",
      "outputs": [
        {
          "internalType": "contract IAuthorizer",
          "name": "",
          "type": "address"
        }
      ],
      "stateMutability": "view",
      "type": "function"
    },
    {
      "inputs": [],
      "name": "getCollectedManagementFees",
      "outputs": [
        {
          "internalType": "contract IERC20[]",
          "name": "tokens",
          "type": "address[]"
        },
        {
          "internalType": "uint256[]",
          "name": "collectedFees",
          "type": "uint256[]"
        }
      ],
      "stateMutability": "view",
      "type": "function"
    },
    {
      "inputs": [],
      "name": "getGradualWeightUpdateParams",
      "outputs": [
        {
          "internalType": "uint256",
          "name": "startTime",
          "type": "uint256"
        },
        {
          "internalType": "uint256",
          "name": "endTime",
          "type": "uint256"
        },
        {
          "internalType": "uint256[]",
          "name": "endWeights",
          "type": "uint256[]"
        }
      ],
      "stateMutability": "view",
      "type": "function"
    },
    {
      "inputs": [],
      "name": "getInvariant",
      "outputs": [
        {
          "internalType": "uint256",
          "name": "",
          "type": "uint256"
        }
      ],
      "stateMutability": "view",
      "type": "function"
    },
    {
      "inputs": [],
      "name": "getLastInvariant",
      "outputs": [
        {
          "internalType": "uint256",
          "name": "",
          "type": "uint256"
        }
      ],
      "stateMutability": "pure",
      "type": "function"
    },
    {
      "inputs": [],
      "name": "getManagementSwapFeePercentage",
      "outputs": [
        {
          "internalType": "uint256",
          "name": "",
          "type": "uint256"
        }
      ],
      "stateMutability": "view",
      "type": "function"
    },
    {
      "inputs": [],
      "name": "getMinimumWeightChangeDuration",
      "outputs": [
        {
          "internalType": "uint256",
          "name": "",
          "type": "uint256"
        }
      ],
      "stateMutability": "pure",
      "type": "function"
    },
    {
      "inputs": [],
      "name": "getNormalizedWeights",
      "outputs": [
        {
          "internalType": "uint256[]",
          "name": "",
          "type": "uint256[]"
        }
      ],
      "stateMutability": "view",
      "type": "function"
    },
    {
      "inputs": [],
      "name": "getNormalizedWeightsAndMaxWeightIndex",
      "outputs": [
        {
          "internalType": "uint256[]",
          "name": "normalizedWeights",
          "type": "uint256[]"
        },
        {
          "internalType": "uint256",
          "name": "maxWeightTokenIndex",
          "type": "uint256"
        }
      ],
      "stateMutability": "view",
      "type": "function"
    },
    {
      "inputs": [],
      "name": "getOwner",
      "outputs": [
        {
          "internalType": "address",
          "name": "",
          "type": "address"
        }
      ],
      "stateMutability": "view",
      "type": "function"
    },
    {
      "inputs": [],
      "name": "getPausedState",
      "outputs": [
        {
          "internalType": "bool",
          "name": "paused",
          "type": "bool"
        },
        {
          "internalType": "uint256",
          "name": "pauseWindowEndTime",
          "type": "uint256"
        },
        {
          "internalType": "uint256",
          "name": "bufferPeriodEndTime",
          "type": "uint256"
        }
      ],
      "stateMutability": "view",
      "type": "function"
    },
    {
      "inputs": [],
      "name": "getPoolId",
      "outputs": [
        {
          "internalType": "bytes32",
          "name": "",
          "type": "bytes32"
        }
      ],
      "stateMutability": "view",
      "type": "function"
    },
    {
      "inputs": [],
      "name": "getRate",
      "outputs": [
        {
          "internalType": "uint256",
          "name": "",
          "type": "uint256"
        }
      ],
      "stateMutability": "view",
      "type": "function"
    },
    {
      "inputs": [],
      "name": "getScalingFactors",
      "outputs": [
        {
          "internalType": "uint256[]",
          "name": "",
          "type": "uint256[]"
        }
      ],
      "stateMutability": "view",
      "type": "function"
    },
    {
      "inputs": [],
      "name": "getSwapEnabled",
      "outputs": [
        {
          "internalType": "bool",
          "name": "",
          "type": "bool"
        }
      ],
      "stateMutability": "view",
      "type": "function"
    },
    {
      "inputs": [],
      "name": "getSwapFeePercentage",
      "outputs": [
        {
          "internalType": "uint256",
          "name": "",
          "type": "uint256"
        }
      ],
      "stateMutability": "view",
      "type": "function"
    },
    {
      "inputs": [],
      "name": "getVault",
      "outputs": [
        {
          "internalType": "contract IVault",
          "name": "",
          "type": "address"
        }
      ],
      "stateMutability": "view",
      "type": "function"
    },
    {
      "inputs": [
        {
          "internalType": "address",
          "name": "spender",
          "type": "address"
        },
        {
          "internalType": "uint256",
          "name": "addedValue",
          "type": "uint256"
        }
      ],
      "name": "increaseAllowance",
      "outputs": [
        {
          "internalType": "bool",
          "name": "",
          "type": "bool"
        }
      ],
      "stateMutability": "nonpayable",
      "type": "function"
    },
    {
      "inputs": [],
      "name": "name",
      "outputs": [
        {
          "internalType": "string",
          "name": "",
          "type": "string"
        }
      ],
      "stateMutability": "view",
      "type": "function"
    },
    {
      "inputs": [
        {
          "internalType": "address",
          "name": "owner",
          "type": "address"
        }
      ],
      "name": "nonces",
      "outputs": [
        {
          "internalType": "uint256",
          "name": "",
          "type": "uint256"
        }
      ],
      "stateMutability": "view",
      "type": "function"
    },
    {
      "inputs": [
        {
          "internalType": "bytes32",
          "name": "poolId",
          "type": "bytes32"
        },
        {
          "internalType": "address",
          "name": "sender",
          "type": "address"
        },
        {
          "internalType": "address",
          "name": "recipient",
          "type": "address"
        },
        {
          "internalType": "uint256[]",
          "name": "balances",
          "type": "uint256[]"
        },
        {
          "internalType": "uint256",
          "name": "lastChangeBlock",
          "type": "uint256"
        },
        {
          "internalType": "uint256",
          "name": "protocolSwapFeePercentage",
          "type": "uint256"
        },
        {
          "internalType": "bytes",
          "name": "userData",
          "type": "bytes"
        }
      ],
      "name": "onExitPool",
      "outputs": [
        {
          "internalType": "uint256[]",
          "name": "",
          "type": "uint256[]"
        },
        {
          "internalType": "uint256[]",
          "name": "",
          "type": "uint256[]"
        }
      ],
      "stateMutability": "nonpayable",
      "type": "function"
    },
    {
      "inputs": [
        {
          "internalType": "bytes32",
          "name": "poolId",
          "type": "bytes32"
        },
        {
          "internalType": "address",
          "name": "sender",
          "type": "address"
        },
        {
          "internalType": "address",
          "name": "recipient",
          "type": "address"
        },
        {
          "internalType": "uint256[]",
          "name": "balances",
          "type": "uint256[]"
        },
        {
          "internalType": "uint256",
          "name": "lastChangeBlock",
          "type": "uint256"
        },
        {
          "internalType": "uint256",
          "name": "protocolSwapFeePercentage",
          "type": "uint256"
        },
        {
          "internalType": "bytes",
          "name": "userData",
          "type": "bytes"
        }
      ],
      "name": "onJoinPool",
      "outputs": [
        {
          "internalType": "uint256[]",
          "name": "",
          "type": "uint256[]"
        },
        {
          "internalType": "uint256[]",
          "name": "",
          "type": "uint256[]"
        }
      ],
      "stateMutability": "nonpayable",
      "type": "function"
    },
    {
      "inputs": [
        {
          "components": [
            {
              "internalType": "enum IVault.SwapKind",
              "name": "kind",
              "type": "uint8"
            },
            {
              "internalType": "contract IERC20",
              "name": "tokenIn",
              "type": "address"
            },
            {
              "internalType": "contract IERC20",
              "name": "tokenOut",
              "type": "address"
            },
            {
              "internalType": "uint256",
              "name": "amount",
              "type": "uint256"
            },
            {
              "internalType": "bytes32",
              "name": "poolId",
              "type": "bytes32"
            },
            {
              "internalType": "uint256",
              "name": "lastChangeBlock",
              "type": "uint256"
            },
            {
              "internalType": "address",
              "name": "from",
              "type": "address"
            },
            {
              "internalType": "address",
              "name": "to",
              "type": "address"
            },
            {
              "internalType": "bytes",
              "name": "userData",
              "type": "bytes"
            }
          ],
          "internalType": "struct IPoolSwapStructs.SwapRequest",
          "name": "swapRequest",
          "type": "tuple"
        },
        {
          "internalType": "uint256",
          "name": "currentBalanceTokenIn",
          "type": "uint256"
        },
        {
          "internalType": "uint256",
          "name": "currentBalanceTokenOut",
          "type": "uint256"
        }
      ],
      "name": "onSwap",
      "outputs": [
        {
          "internalType": "uint256",
          "name": "",
          "type": "uint256"
        }
      ],
      "stateMutability": "nonpayable",
      "type": "function"
    },
    {
      "inputs": [
        {
          "internalType": "address",
          "name": "owner",
          "type": "address"
        },
        {
          "internalType": "address",
          "name": "spender",
          "type": "address"
        },
        {
          "internalType": "uint256",
          "name": "value",
          "type": "uint256"
        },
        {
          "internalType": "uint256",
          "name": "deadline",
          "type": "uint256"
        },
        {
          "internalType": "uint8",
          "name": "v",
          "type": "uint8"
        },
        {
          "internalType": "bytes32",
          "name": "r",
          "type": "bytes32"
        },
        {
          "internalType": "bytes32",
          "name": "s",
          "type": "bytes32"
        }
      ],
      "name": "permit",
      "outputs": [],
      "stateMutability": "nonpayable",
      "type": "function"
    },
    {
      "inputs": [
        {
          "internalType": "bytes32",
          "name": "poolId",
          "type": "bytes32"
        },
        {
          "internalType": "address",
          "name": "sender",
          "type": "address"
        },
        {
          "internalType": "address",
          "name": "recipient",
          "type": "address"
        },
        {
          "internalType": "uint256[]",
          "name": "balances",
          "type": "uint256[]"
        },
        {
          "internalType": "uint256",
          "name": "lastChangeBlock",
          "type": "uint256"
        },
        {
          "internalType": "uint256",
          "name": "protocolSwapFeePercentage",
          "type": "uint256"
        },
        {
          "internalType": "bytes",
          "name": "userData",
          "type": "bytes"
        }
      ],
      "name": "queryExit",
      "outputs": [
        {
          "internalType": "uint256",
          "name": "bptIn",
          "type": "uint256"
        },
        {
          "internalType": "uint256[]",
          "name": "amountsOut",
          "type": "uint256[]"
        }
      ],
      "stateMutability": "view",
      "type": "function"
    },
    {
      "inputs": [
        {
          "internalType": "bytes32",
          "name": "poolId",
          "type": "bytes32"
        },
        {
          "internalType": "address",
          "name": "sender",
          "type": "address"
        },
        {
          "internalType": "address",
          "name": "recipient",
          "type": "address"
        },
        {
          "internalType": "uint256[]",
          "name": "balances",
          "type": "uint256[]"
        },
        {
          "internalType": "uint256",
          "name": "lastChangeBlock",
          "type": "uint256"
        },
        {
          "internalType": "uint256",
          "name": "protocolSwapFeePercentage",
          "type": "uint256"
        },
        {
          "internalType": "bytes",
          "name": "userData",
          "type": "bytes"
        }
      ],
      "name": "queryJoin",
      "outputs": [
        {
          "internalType": "uint256",
          "name": "bptOut",
          "type": "uint256"
        },
        {
          "internalType": "uint256[]",
          "name": "amountsIn",
          "type": "uint256[]"
        }
      ],
      "stateMutability": "view",
      "type": "function"
    },
    {
      "inputs": [
        {
          "internalType": "contract IERC20",
          "name": "token",
          "type": "address"
        },
        {
          "internalType": "bytes",
          "name": "poolConfig",
          "type": "bytes"
        }
      ],
      "name": "setAssetManagerPoolConfig",
      "outputs": [],
      "stateMutability": "nonpayable",
      "type": "function"
    },
    {
      "inputs": [
        {
          "internalType": "bool",
          "name": "paused",
          "type": "bool"
        }
      ],
      "name": "setPaused",
      "outputs": [],
      "stateMutability": "nonpayable",
      "type": "function"
    },
    {
      "inputs": [
        {
          "internalType": "bool",
          "name": "swapEnabled",
          "type": "bool"
        }
      ],
      "name": "setSwapEnabled",
      "outputs": [],
      "stateMutability": "nonpayable",
      "type": "function"
    },
    {
      "inputs": [
        {
          "internalType": "uint256",
          "name": "swapFeePercentage",
          "type": "uint256"
        }
      ],
      "name": "setSwapFeePercentage",
      "outputs": [],
      "stateMutability": "nonpayable",
      "type": "function"
    },
    {
      "inputs": [],
      "name": "symbol",
      "outputs": [
        {
          "internalType": "string",
          "name": "",
          "type": "string"
        }
      ],
      "stateMutability": "view",
      "type": "function"
    },
    {
      "inputs": [],
      "name": "totalSupply",
      "outputs": [
        {
          "internalType": "uint256",
          "name": "",
          "type": "uint256"
        }
      ],
      "stateMutability": "view",
      "type": "function"
    },
    {
      "inputs": [
        {
          "internalType": "address",
          "name": "recipient",
          "type": "address"
        },
        {
          "internalType": "uint256",
          "name": "amount",
          "type": "uint256"
        }
      ],
      "name": "transfer",
      "outputs": [
        {
          "internalType": "bool",
          "name": "",
          "type": "bool"
        }
      ],
      "stateMutability": "nonpayable",
      "type": "function"
    },
    {
      "inputs": [
        {
          "internalType": "address",
          "name": "sender",
          "type": "address"
        },
        {
          "internalType": "address",
          "name": "recipient",
          "type": "address"
        },
        {
          "internalType": "uint256",
          "name": "amount",
          "type": "uint256"
        }
      ],
      "name": "transferFrom",
      "outputs": [
        {
          "internalType": "bool",
          "name": "",
          "type": "bool"
        }
      ],
      "stateMutability": "nonpayable",
      "type": "function"
    },
    {
      "inputs": [
        {
          "internalType": "uint256",
          "name": "startTime",
          "type": "uint256"
        },
        {
          "internalType": "uint256",
          "name": "endTime",
          "type": "uint256"
        },
        {
          "internalType": "uint256[]",
          "name": "endWeights",
          "type": "uint256[]"
        }
      ],
      "name": "updateWeightsGradually",
      "outputs": [],
      "stateMutability": "nonpayable",
      "type": "function"
    },
    {
      "inputs": [
        {
          "internalType": "address",
          "name": "recipient",
          "type": "address"
        }
      ],
      "name": "withdrawCollectedManagementFees",
      "outputs": [],
      "stateMutability": "nonpayable",
      "type": "function"
    }
  ],
  "bytecode": "0x6101e06040527f6e71edae12b1b97f4d1f60370fef10105fa2faae0126114a169c64845d6126c9610120523480156200003757600080fd5b5060405162006c2338038062006c238339810160408190526200005a9162000e70565b805160208201516040830151606084015160a085015160c086015160e0870151610100880151610120890151855189906002146200009a5760016200009d565b60025b8989898989898989828289898d8280604051806040016040528060018152602001603160f81b81525085858a336001600160a01b031660001b806080818152505050806001600160a01b031660a0816001600160a01b031660601b815250505081600390805190602001906200011592919062000bb8565b5080516200012b90600490602084019062000bb8565b505060058054601260ff1990911617905550815160209283012060c052805191012060e052507f8b73c3c69bb8fe3d512ecc4cf759cc79239f7b179b0ffacaa9a75d522b39400f6101005260601b6001600160601b03191661014052506200019e90506276a70083111561019462000484565b620001b262278d0082111561019562000484565b4290910161016081905201610180528551620001d4906002111560c862000484565b620001ee620001e262000499565b8751111560c962000484565b62000204866200049e60201b620014f11760201c565b6200020f84620004aa565b6040516309b2760f60e01b81526000906001600160a01b038c16906309b2760f9062000240908d90600401620010f6565b602060405180830381600087803b1580156200025b57600080fd5b505af115801562000270573d6000803e3d6000fd5b505050506040513d601f19601f8201168201806040525081019062000296919062000e57565b604051633354e3e960e11b81529091506001600160a01b038c16906366a9c7d290620002cb9084908b908b906004016200105a565b600060405180830381600087803b158015620002e657600080fd5b505af1158015620002fb573d6000803e3d6000fd5b50505050806101a0818152505050505050505050505050505050505050505050506001600a819055506000816060015151905062000350818360800151518460a00151516200053660201b620014fb1760201c565b620003806200037a8260016200036562000556565b6200055c60201b62001513179092919060201c565b6200056f565b62000398816200038f62000594565b1460c962000484565b608082015160608301514291620003b591839182918190620005bf565b60005b828110156200040157620003f784606001518281518110620003d657fe5b60200260200101516000600c6200080060201b62001522179092919060201c565b50600101620003b8565b506101408301516200041390620008b0565b62000437670de0b6b3a764000084610160015111156101526200048460201b60201c565b610160830180516101c052516040517feba99e9e36df79031493efd8473cfce5475d3a135878665490df8b01406932109162000473916200110b565b60405180910390a1505050620011bd565b81620004955762000495816200090b565b5050565b603290565b8062000495816200095e565b620004bf64e8d4a5100082101560cb62000484565b620004d767016345785d8a000082111560ca62000484565b620004f68160c0600854620009e860201b620015ef179092919060201c565b6008556040517fa9ba3ffe0b6c366b81232caab38605a0699ad5398d6cce76f91ee809e322dafc906200052b9083906200110b565b60405180910390a150565b6200055182841480156200054957508183145b606762000484565b505050565b60085490565b81811b607f821b198416175b9392505050565b6200058e816000600854620009fd60201b62001605179092919060201c565b60085550565b6000620005ba6001620005a662000556565b62000a1860201b620016311790919060201c565b905090565b600080805b845181101562000786576000858281518110620005dd57fe5b6020026020010151905062000605662386f26fc1000082101561012e6200048460201b60201c565b60008583815181106200061457fe5b6020026020010151905062000742620006b4826001600160a01b031663313ce5676040518163ffffffff1660e01b815260040160206040518083038186803b1580156200066057600080fd5b505afa15801562000675573d6000803e3d6000fd5b505050506040513d601f19601f820116820180604052508101906200069b919062000ff0565b60ff16601262000a2560201b620016381790919060201c565b60606200072d620006d08662000a3d60201b6200164e1760201c565b604062000718620007008f8b81518110620006e757fe5b602002602001015162000a8060201b620016721760201c565b60008c620009e860201b620015ef179092919060201c565b62000ab260201b62001692179092919060201c565b62000ac460201b620016a4179092919060201c565b6001600160a01b0382166000908152600b6020908152604090912091909155620007799086908490620016b362000ad3821b17901c565b94505050600101620005c4565b506200079f670de0b6b3a7640000831461013462000484565b620007b86200037a876028620007188b60088262000556565b7f0f3631f9dab08169d1db21c6dc5f32536fb2b0a6b9bb5330d71c52132f968be087878787604051620007ef949392919062001114565b60405180910390a150505050505050565b6001600160a01b0382166000908152600284016020526040812054806200088f57505082546040805180820182526001600160a01b03858116808352602080840187815260008781526001808c018452878220965187546001600160a01b0319169616959095178655905194840194909455948201808955908352600288019094529190209190915562000568565b60001901600090815260018086016020526040822001839055905062000568565b620008da6200037a826000620008c562000556565b62000ae760201b620016c5179092919060201c565b7f5a9e84f78f7957cb4ed7478eb0fcad35ee4ecbe2e0f298420b28a3955392573f816040516200052b91906200104f565b62461bcd60e51b6000908152602060045260076024526642414c23000030600a808404818106603090810160081b95839006959095019082900491820690940160101b939093010160c81b604452606490fd5b6002815110156200096f57620009e5565b6000816000815181106200097f57fe5b602002602001015190506000600190505b825181101562000551576000838281518110620009a957fe5b60200260200101519050620009da816001600160a01b0316846001600160a01b03161060656200048460201b60201c565b915060010162000990565b50565b6001600160401b03811b1992909216911b1790565b6001600160c01b03828116821b90821b198416179392505050565b81811c607f165b92915050565b600062000a3783831115600162000484565b50900390565b600062000a1f670de0b6b3a764000062000a6c63ffffffff80168562000b1060201b620016ec1790919060201c565b62000b6560201b6200173a1790919060201c565b600062000a1f670de0b6b3a764000062000a6c6001600160401b0380168562000b1060201b620016ec1790919060201c565b63ffffffff811b1992909216911b1790565b601f811b1992909216911b1790565b600082820162000568848210158362000484565b60006001821b198416828462000aff57600062000b02565b60015b60ff16901b17949350505050565b600082820262000b3884158062000b3057508385838162000b2d57fe5b04145b600362000484565b8062000b4957600091505062000a1f565b670de0b6b3a764000060001982015b0460010191505062000a1f565b600062000b76821515600462000484565b8262000b855750600062000a1f565b670de0b6b3a76400008381029062000bab9085838162000ba157fe5b0414600562000484565b82600182038162000b5857fe5b828054600181600116156101000203166002900490600052602060002090601f016020900481019282601f1062000bfb57805160ff191683800117855562000c2b565b8280016001018555821562000c2b579182015b8281111562000c2b57825182559160200191906001019062000c0e565b5062000c3992915062000c3d565b5090565b5b8082111562000c39576000815560010162000c3e565b805162000a1f81620011a7565b600082601f83011262000c72578081fd5b815162000c8962000c83826200117b565b62001154565b81815291506020808301908481018184028601820187101562000cab57600080fd5b60005b8481101562000cd757815162000cc481620011a7565b8452928201929082019060010162000cae565b505050505092915050565b600082601f83011262000cf3578081fd5b815162000d0462000c83826200117b565b81815291506020808301908481018184028601820187101562000d2657600080fd5b60005b8481101562000cd757815162000d3f81620011a7565b8452928201929082019060010162000d29565b600082601f83011262000d63578081fd5b815162000d7462000c83826200117b565b81815291506020808301908481018184028601820187101562000d9657600080fd5b60005b8481101562000cd75781518452928201929082019060010162000d99565b8051801515811462000a1f57600080fd5b600082601f83011262000dd9578081fd5b81516001600160401b0381111562000def578182fd5b602062000e05601f8301601f1916820162001154565b9250818352848183860101111562000e1c57600080fd5b60005b8281101562000e3c57848101820151848201830152810162000e1f565b8281111562000e4e5760008284860101525b50505092915050565b60006020828403121562000e69578081fd5b5051919050565b60006020828403121562000e82578081fd5b81516001600160401b038082111562000e99578283fd5b818401915061018080838703121562000eb0578384fd5b62000ebb8162001154565b905062000ec9868462000c54565b815260208301518281111562000edd578485fd5b62000eeb8782860162000dc8565b60208301525060408301518281111562000f03578485fd5b62000f118782860162000dc8565b60408301525060608301518281111562000f29578485fd5b62000f378782860162000ce2565b60608301525060808301518281111562000f4f578485fd5b62000f5d8782860162000d52565b60808301525060a08301518281111562000f75578485fd5b62000f838782860162000c61565b60a08301525060c083015160c082015260e083015160e082015261010091508183015182820152610120915062000fbd8683850162000c54565b82820152610140915062000fd48683850162000db7565b9181019190915261016091820151918101919091529392505050565b60006020828403121562001002578081fd5b815160ff8116811462000568578182fd5b6000815180845260208085019450808401835b83811015620010445781518752958201959082019060010162001026565b509495945050505050565b901515815260200190565b60006060820185835260206060818501528186518084526080860191508288019350845b81811015620010a6576200109385516200119b565b835293830193918301916001016200107e565b505084810360408601528551808252908201925081860190845b81811015620010e857620010d583516200119b565b85529383019391830191600101620010c0565b509298975050505050505050565b60208101600383106200110557fe5b91905290565b90815260200190565b60008582528460208301526080604083015262001135608083018562001013565b828103606084015262001149818562001013565b979650505050505050565b6040518181016001600160401b03811182821017156200117357600080fd5b604052919050565b60006001600160401b0382111562001191578081fd5b5060209081020190565b6001600160a01b031690565b6001600160a01b0381168114620009e557600080fd5b60805160a05160601c60c05160e05161010051610120516101405160601c61016051610180516101a0516101c0516159df6200124460003980610f3d52806136ea5250806108d652508061192a525080611906525080610f1952508061123c525080611c25525080611c67525080611c46525080610ef5525080610e7f52506159df6000f3fe608060405234801561001057600080fd5b50600436106102f35760003560e01c806374f3b00911610191578063a457c2d7116100e3578063c0ff1a1511610097578063dd62ed3e11610071578063dd62ed3e146105cb578063e01af92c146105de578063f89f27ed146105f1576102f3565b8063c0ff1a151461059d578063d505accf146105a5578063d5c096c4146105b8576102f3565b8063a9059cbb116100c8578063a9059cbb1461057a578063aaabadc51461058d578063b322c79b14610595576102f3565b8063a457c2d714610551578063a6070fea14610564576102f3565b8063893d20e81161014557806395d89b411161011f57806395d89b411461052e5780639b02cdde146105365780639d2c110c1461053e576102f3565b8063893d20e8146105095780638d928af81461051e57806390605f3a14610526576102f3565b80637ecebe00116101765780637ecebe00146104d0578063851c1bb3146104e357806387ec6817146104f6576102f3565b806374f3b009146104985780637beed220146104b9576102f3565b806338e9922e1161024a57806350dd6ed9116101fe5780636028bfd4116101d85780636028bfd41461045c578063679aefce1461047d57806370a0823114610485576102f3565b806350dd6ed91461042e57806355c67628146104415780635b77155e14610449576102f3565b8063395093511161022f57806339509351146104005780633e5692051461041357806347bc4d9214610426576102f3565b806338e9922e146103e557806338fff2d0146103f8576102f3565b80631c0de051116102ac578063313ce56711610286578063313ce567146103b257806332f144f5146103c75780633644e515146103dd576102f3565b80631c0de051146103735780631dd746ea1461038a57806323b872dd1461039f576102f3565b8063095ea7b3116102dd578063095ea7b31461033657806316c38b3c1461035657806318160ddd1461036b576102f3565b8062ca060c146102f857806306fdde0314610321575b600080fd5b61030b610306366004614fcd565b6105f9565b60405161031891906156ab565b60405180910390f35b610329610610565b6040516103189190615882565b610349610344366004614ed6565b6106a7565b6040516103189190615688565b610369610364366004615075565b6106be565b005b61030b6106d2565b61037b6106d8565b60405161031893929190615693565b610392610701565b604051610318919061562e565b6103496103ad366004614e26565b610710565b6103ba610786565b6040516103189190615909565b6103cf61078f565b6040516103189291906155d8565b61030b6108b1565b6103696103f3366004615401565b6108bb565b61030b6108d4565b61034961040e366004614ed6565b6108f8565b610369610421366004615419565b610933565b610349610a44565b61036961043c3660046151ac565b610a59565b61030b610a77565b610369610457366004614dd2565b610a88565b61046f61046a3660046150ad565b610baf565b604051610318929190615895565b61030b610be6565b61030b610493366004614dd2565b610c11565b6104ab6104a63660046150ad565b610c30565b604051610318929190615641565b6104c1610cd3565b604051610318939291906158ae565b61030b6104de366004614dd2565b610e60565b61030b6104f1366004615150565b610e7b565b61046f6105043660046150ad565b610ecd565b610511610ef3565b60405161031891906155c4565b610511610f17565b61030b610f3b565b610329610f5f565b61030b610fc0565b61030b61054c366004615305565b610fcd565b61034961055f366004614ed6565b611068565b61056c6110a6565b604051610318929190615666565b610349610588366004614ed6565b611124565b610511611131565b61030b61113b565b61030b611142565b6103696105b3366004614e66565b611207565b6104ab6105c63660046150ad565b611350565b61030b6105d9366004614dee565b611481565b6103696105ec366004615075565b6114be565b6103926114e7565b600061060785858585611785565b50949350505050565b60038054604080516020601f600260001961010060018816150201909516949094049384018190048102820181019092528281526060939092909183018282801561069c5780601f106106715761010080835404028352916020019161069c565b820191906000526020600020905b81548152906001019060200180831161067f57829003601f168201915b505050505090505b90565b60006106b433848461179d565b5060015b92915050565b6106c6611805565b6106cf8161184b565b50565b60025490565b60008060006106e56118e7565b1592506106f0611904565b91506106fa611928565b9050909192565b606061070b61194c565b905090565b60008061071d8533611481565b9050610741336001600160a01b03871614806107395750838210155b61019e611a99565b61074c858585611aa7565b336001600160a01b0386161480159061076757506000198114155b1561077957610779853385840361179d565b60019150505b9392505050565b60055460ff1690565b60608061079a611b87565b67ffffffffffffffff811180156107b057600080fd5b506040519080825280602002602001820160405280156107da578160200160208202803683370190505b5091506107e5611b87565b67ffffffffffffffff811180156107fb57600080fd5b50604051908082528060200260200182016040528015610825578160200160208202803683370190505b50905060005b610833611b87565b81101561089b57600080610848600c84611b9c565b915091508185848151811061085957fe5b60200260200101906001600160a01b031690816001600160a01b0316815250508084848151811061088657fe5b6020908102919091010152505060010161082b565b506108ad816108a861194c565b611bc0565b9091565b600061070b611c21565b6108c3611805565b6108cb611cbe565b6106cf81611cd3565b7f000000000000000000000000000000000000000000000000000000000000000090565b3360008181526001602090815260408083206001600160a01b038716845290915281205490916106b491859061092e90866116b3565b61179d565b61093b611805565b610943611cbe565b61094b611d3e565b61095d610956611b87565b8251611d57565b426109688185611d64565b935061097983851115610146611a99565b61098d62015180858503101561014b611a99565b6060610997610f17565b6001600160a01b031663f94d46686109ad6108d4565b6040518263ffffffff1660e01b81526004016109c991906156ab565b60006040518083038186803b1580156109e157600080fd5b505afa1580156109f5573d6000803e3d6000fd5b505050506040513d6000823e601f3d908101601f19168201604052610a1d9190810190614f01565b50509050610a358585610a2e611d7b565b8685611edc565b5050610a3f6120a0565b505050565b600061070b6000610a536120a7565b906120ad565b610a61611805565b610a69611cbe565b610a7382826120b7565b5050565b60085460009061070b9060c06121cf565b610a90611805565b610a98611cbe565b610aa0611d3e565b606080610aab61078f565b91509150610ab7610f17565b6001600160a01b0316638bdb3913610acd6108d4565b30866040518060800160405280610ae3896106a4565b81526020018781526020016003604051602001610b00919061586e565b6040516020818303038152906040528152602001600015158152506040518563ffffffff1660e01b8152600401610b3a94939291906156d3565b600060405180830381600087803b158015610b5457600080fd5b505af1158015610b68573d6000803e3d6000fd5b505050507f5cf8dd4ddeaded21c5e3dc4043073fa7659089e0d11d8480344663008dff060f8282604051610b9d9291906155d8565b60405180910390a150506106cf6120a0565b60006060610bc58651610bc0611b87565b611d57565b610bda898989898989896121dd611bc06122aa565b97509795505050505050565b600061070b610bf36106d2565b610c0b610bfe611142565b610c06611b87565b61243a565b90612454565b6001600160a01b0381166000908152602081905260409020545b919050565b60608088610c5a610c3f610f17565b6001600160a01b0316336001600160a01b03161460cd611a99565b610c6f610c656108d4565b82146101f4611a99565b6060610c7961194c565b9050610c85888261249c565b6000606080610c9a8e8e8e8e8e8e8a8f6121dd565b925092509250610caa8d846124fd565b610cb48285611bc0565b610cbe8185611bc0565b909550935050505b5097509795505050505050565b60008060606000610ce26120a7565b9050610cef816008612507565b9350610cfc816028612507565b92506060610d08610f17565b6001600160a01b031663f94d4668610d1e6108d4565b6040518263ffffffff1660e01b8152600401610d3a91906156ab565b60006040518083038186803b158015610d5257600080fd5b505afa158015610d66573d6000803e3d6000fd5b505050506040513d6000823e601f3d908101601f19168201604052610d8e9190810190614f01565b505080519091508067ffffffffffffffff81118015610dac57600080fd5b50604051908082528060200260200182016040528015610dd6578160200160208202803683370190505b50935060005b81811015610e5757610e38610e336040600b6000878681518110610dfc57fe5b60200260200101516001600160a01b03166001600160a01b031681526020019081526020016000205461250790919063ffffffff16565b612511565b858281518110610e4457fe5b6020908102919091010152600101610ddc565b50505050909192565b6001600160a01b031660009081526006602052604090205490565b60007f000000000000000000000000000000000000000000000000000000000000000082604051602001610eb092919061554e565b604051602081830303815290604052805190602001209050919050565b60006060610ede8651610bc0611b87565b610bda8989898989898961252f6125dd6122aa565b7f000000000000000000000000000000000000000000000000000000000000000090565b7f000000000000000000000000000000000000000000000000000000000000000090565b7f000000000000000000000000000000000000000000000000000000000000000090565b60048054604080516020601f600260001961010060018816150201909516949094049384018190048102820181019092528281526060939092909183018282801561069c5780601f106106715761010080835404028352916020019161069c565b60006106a461015361263e565b600080610fec8560200151610135600c6126ab9092919063ffffffff16565b905060006110106110098361100489602001516126e8565b6126fb565b8690611638565b905060006110308760400151610135600c6126ab9092919063ffffffff16565b9050600061104f611048836110048b604001516126e8565b8790611638565b905061105c888483612707565b98975050505050505050565b6000806110753385611481565b905080831061108f5761108a3385600061179d565b61109c565b61109c338585840361179d565b5060019392505050565b606060006110b2611d7b565b9150600090506000826000815181106110c757fe5b602002602001015190506000600190505b835181101561111e57818482815181106110ee57fe5b602002602001015111156111165780925083818151811061110b57fe5b602002602001015191505b6001016110d8565b50509091565b60006106b4338484611aa7565b600061070b61285d565b6201518090565b6000606061114e610f17565b6001600160a01b031663f94d46686111646108d4565b6040518263ffffffff1660e01b815260040161118091906156ab565b60006040518083038186803b15801561119857600080fd5b505afa1580156111ac573d6000803e3d6000fd5b505050506040513d6000823e601f3d908101601f191682016040526111d49190810190614f01565b509150506111e9816111e461194c565b61249c565b60606111f36110a6565b50905061120081836128d7565b9250505090565b6112158442111560d1611a99565b6001600160a01b038716600090815260066020908152604080832054905190929161126c917f0000000000000000000000000000000000000000000000000000000000000000918c918c918c9188918d91016157c0565b604051602081830303815290604052805190602001209050600061128f82612949565b90506000600182888888604051600081526020016040526040516112b69493929190615850565b6020604051602081039080840390855afa1580156112d8573d6000803e3d6000fd5b5050604051601f190151915061131a90506001600160a01b0382161580159061131257508b6001600160a01b0316826001600160a01b0316145b6101f8611a99565b6001600160a01b038b1660009081526006602052604090206001850190556113438b8b8b61179d565b5050505050505050505050565b6060808861135f610c3f610f17565b61136a610c656108d4565b606061137461194c565b905061137e6106d2565b61143157600060606113938d8d8d868b612965565b915091506113ac6113a26129fb565b83101560cc611a99565b6113be60006113b96129fb565b612a02565b6113d18b6113ca6129fb565b8403612a02565b6113db81846125dd565b806113e4611b87565b67ffffffffffffffff811180156113fa57600080fd5b50604051908082528060200260200182016040528015611424578160200160208202803683370190505b5095509550505050610cc6565b61143b888261249c565b60006060806114508e8e8e8e8e8e8a8f61252f565b9250925092506114608c84612a02565b61146a82856125dd565b6114748185611bc0565b9095509350610cc6915050565b600061148b610f17565b6001600160a01b0316826001600160a01b031614156114ad57506000196106b8565b6114b78383612a0c565b90506106b8565b6114c6611805565b6114ce611cbe565b6114d6611d3e565b6114df81612a37565b6106cf6120a0565b606061070b611d7b565b80610a7381612a7e565b610a3f828414801561150c57508183145b6067611a99565b607f811b1992909216911b1790565b6001600160a01b0382166000908152600284016020526040812054806115c757505082546040805180820182526001600160a01b03858116808352602080840187815260008781526001808c018452878220965187547fffffffffffffffffffffffff0000000000000000000000000000000000000000169616959095178655905194840194909455948201808955908352600288019094529190209190915561077f565b60001901600090815260018086016020526040822001839055905061077f565b509392505050565b67ffffffffffffffff811b1992909216911b1790565b77ffffffffffffffffffffffffffffffffffffffffffffffff828116821b90821b198416179392505050565b1c607f1690565b6000611648838311156001611a99565b50900390565b60006106b8670de0b6b3a764000061166c8463ffffffff6116ec8116565b9061173a565b60006106b8670de0b6b3a764000061166c8467ffffffffffffffff6116ec565b63ffffffff811b1992909216911b1790565b601f811b1992909216911b1790565b600082820161077f8482101583611a99565b60006001821b19841682846116db5760006116de565b60015b60ff16901b17949350505050565b600082820261171084158061170957508385838161170657fe5b04145b6003611a99565b8061171f5760009150506106b8565b670de0b6b3a764000060001982015b046001019150506106b8565b60006117498215156004611a99565b82611756575060006106b8565b670de0b6b3a7640000838102906117799085838161177057fe5b04146005611a99565b82600182038161172e57fe5b600061179385858585612af7565b5050949350505050565b6001600160a01b0380841660008181526001602090815260408083209487168084529490915290819020849055517f8c5be1e5ebec7d5bd14f71427d1e84f3dd0314c0f7b2291e5b200ac8c7c3b925906117f89085906156ab565b60405180910390a3505050565b60006118346000357fffffffff0000000000000000000000000000000000000000000000000000000016610e7b565b90506106cf6118438233612b72565b610191611a99565b801561186b5761186661185c611904565b4210610193611a99565b611880565b611880611876611928565b42106101a9611a99565b600780547fffffffffffffffffffffffffffffffffffffffffffffffffffffffffffffff00168215151790556040517f9e3a5e37224532dea67b89face185703738a228a6e8a23dee546960180d3be64906118dc908390615688565b60405180910390a150565b60006118f1611928565b42118061070b57505060075460ff161590565b7f000000000000000000000000000000000000000000000000000000000000000090565b7f000000000000000000000000000000000000000000000000000000000000000090565b606080611957610f17565b6001600160a01b031663f94d466861196d6108d4565b6040518263ffffffff1660e01b815260040161198991906156ab565b60006040518083038186803b1580156119a157600080fd5b505afa1580156119b5573d6000803e3d6000fd5b505050506040513d6000823e601f3d908101601f191682016040526119dd9190810190614f01565b505080519091508067ffffffffffffffff811180156119fb57600080fd5b50604051908082528060200260200182016040528015611a25578160200160208202803683370190505b50925060005b81811015611a9357611a74600b6000858481518110611a4657fe5b60200260200101516001600160a01b03166001600160a01b0316815260200190815260200160002054612c5b565b848281518110611a8057fe5b6020908102919091010152600101611a2b565b50505090565b81610a7357610a738161263e565b611abe6001600160a01b0384161515610198611a99565b611ad56001600160a01b0383161515610199611a99565b611ae0838383610a3f565b6001600160a01b038316600090815260208190526040902054611b0690826101a0612c7d565b6001600160a01b038085166000908152602081905260408082209390935590841681522054611b3590826116b3565b6001600160a01b0380841660008181526020819052604090819020939093559151908516907fddf252ad1be2c89b69c2b068fc378daa952ba7f163c4a11628f55a4df523b3ef906117f89085906156ab565b600061070b6001611b966120a7565b90611631565b600090815260019182016020526040902080549101546001600160a01b0390911691565b60005b611bcb611b87565b811015610a3f57611c02838281518110611be157fe5b6020026020010151838381518110611bf557fe5b6020026020010151612454565b838281518110611c0e57fe5b6020908102919091010152600101611bc3565b60007f00000000000000000000000000000000000000000000000000000000000000007f00000000000000000000000000000000000000000000000000000000000000007f0000000000000000000000000000000000000000000000000000000000000000611c8e612c93565b30604051602001611ca39594939291906157f4565b60405160208183030381529060405280519060200120905090565b611cd1611cc96118e7565b610192611a99565b565b611ce664e8d4a5100082101560cb611a99565b611cfc67016345785d8a000082111560ca611a99565b600854611d0b908260c06115ef565b6008556040517fa9ba3ffe0b6c366b81232caab38605a0699ad5398d6cce76f91ee809e322dafc906118dc9083906156ab565b611d506002600a541415610190611a99565b6002600a55565b610a738183146067611a99565b600081831015611d74578161077f565b5090919050565b606080611d86610f17565b6001600160a01b031663f94d4668611d9c6108d4565b6040518263ffffffff1660e01b8152600401611db891906156ab565b60006040518083038186803b158015611dd057600080fd5b505afa158015611de4573d6000803e3d6000fd5b505050506040513d6000823e601f3d908101601f19168201604052611e0c9190810190614f01565b505080519091508067ffffffffffffffff81118015611e2a57600080fd5b50604051908082528060200260200182016040528015611e54578160200160208202803683370190505b5092506000611e61612c97565b905060005b82811015611ed5576000600b6000868481518110611e8057fe5b60200260200101516001600160a01b03166001600160a01b03168152602001908152602001600020549050611eb58184612d0d565b868381518110611ec157fe5b602090810291909101015250600101611e66565b5050505090565b600080805b8451811015612027576000858281518110611ef857fe5b60200260200101519050611f18662386f26fc1000082101561012e611a99565b6000858381518110611f2657fe5b60200260200101519050611ff8611fb2826001600160a01b031663313ce5676040518163ffffffff1660e01b815260040160206040518083038186803b158015611f6f57600080fd5b505afa158015611f83573d6000803e3d6000fd5b505050506040513d601f19601f82011682018060405250810190611fa791906154a7565b60129060ff16611638565b6060611ff1611fc08661164e565b6040611fea611fe18f8b81518110611fd457fe5b6020026020010151611672565b8b9060006115ef565b9190611692565b91906116a4565b6001600160a01b0382166000908152600b602052604090205561201b85836116b3565b94505050600101611ee1565b5061203e670de0b6b3a76400008314610134611a99565b61205a612055876028611fea8b6008611fea6120a7565b612da6565b7f0f3631f9dab08169d1db21c6dc5f32536fb2b0a6b9bb5330d71c52132f968be08787878760405161208f94939291906158cd565b60405180910390a150505050505050565b6001600a55565b60085490565b1c60019081161490565b60006120c16108d4565b905060006120cd610f17565b6001600160a01b031663b05f8e4883866040518363ffffffff1660e01b81526004016120fa929190615839565b60806040518083038186803b15801561211257600080fd5b505afa158015612126573d6000803e3d6000fd5b505050506040513d601f19601f8201168201806040525081019061214a9190615467565b6040517f18e736d40000000000000000000000000000000000000000000000000000000081529094506001600160a01b03851693506318e736d49250612197915085908790600401615820565b600060405180830381600087803b1580156121b157600080fd5b505af11580156121c5573d6000803e3d6000fd5b5050505050505050565b1c67ffffffffffffffff1690565b60006060806121eb88612dbb565b60006121f685612e1c565b9050612237612203610a44565b806122195750600182600381111561221757fe5b145b8061222f5750600382600381111561222d57fe5b145b61014a611a99565b61224b8b8a612244611d7b565b8989612e32565b9094509250612258611b87565b67ffffffffffffffff8111801561226e57600080fd5b50604051908082528060200260200182016040528015612298578160200160208202803683370190505b50915050985098509895505050505050565b333014612399576000306001600160a01b03166000366040516122ce92919061557e565b6000604051808303816000865af19150503d806000811461230b576040519150601f19603f3d011682016040523d82523d6000602084013e612310565b606091505b50509050806000811461231f57fe5b60046000803e6000517fffffffff00000000000000000000000000000000000000000000000000000000167f43adbafb00000000000000000000000000000000000000000000000000000000811461237b573d6000803e3d6000fd5b506020600460003e604060205260243d03602460403e601c3d016000f35b60606123a361194c565b90506123af878261249c565b600060606123c78c8c8c8c8c8c898d8d63ffffffff16565b50915091506123da81848663ffffffff16565b8051601f1982018390526343adbafb7fffffffffffffffffffffffffffffffffffffffffffffffffffffffffffffffc08301526020027fffffffffffffffffffffffffffffffffffffffffffffffffffffffffffffffdc82016044820181fd5b600082820261077f84158061170957508385838161170657fe5b60006124638215156004611a99565b82612470575060006106b8565b670de0b6b3a76400008381029061248a9085838161177057fe5b82818161249357fe5b049150506106b8565b60005b6124a7611b87565b811015610a3f576124de8382815181106124bd57fe5b60200260200101518383815181106124d157fe5b6020026020010151612e76565b8382815181106124ea57fe5b602090810291909101015260010161249f565b610a738282612ea2565b1c63ffffffff1690565b60006106b863ffffffff61166c84670de0b6b3a76400006116ec8416565b600060608061253c611cbe565b61254588612dbb565b61256c612550610a44565b8061222f5750600361256186612e1c565b600381111561222d57fe5b61257f88612578611d7b565b8787612f5e565b909350915061258c611b87565b67ffffffffffffffff811180156125a257600080fd5b506040519080825280602002602001820160405280156125cc578160200160208202803683370190505b509050985098509895505050505050565b60005b6125e8611b87565b811015610a3f5761261f8382815181106125fe57fe5b602002602001015183838151811061261257fe5b602002602001015161173a565b83828151811061262b57fe5b60209081029190910101526001016125e0565b7f08c379a0000000000000000000000000000000000000000000000000000000006000908152602060045260076024526642414c23000030600a808404818106603090810160081b95839006959095019082900491820690940160101b939093010160c81b604452606490fd5b6001600160a01b03821660009081526002840160205260408120546126d281151584611a99565b6126df8560018303612feb565b95945050505050565b60006106b86126f683613001565b612c5b565b600061077f8383612454565b60008360800151612719610c3f610f17565b612724610c656108d4565b600061273386602001516126e8565b9050600061274487604001516126e8565b905060008751600181111561275557fe5b14156127e557600061276a8860600151613028565b9050600081896060015103905061278e89602001516127898387613049565b613055565b6060890182905261279f8885613049565b97506127ab8784613049565b96506127bb896060015185613049565b60608a015260006127cd8a8a8a613067565b90506127d981856126fb565b965050505050506115e7565b6127ef8683613049565b95506127fb8582613049565b945061280b876060015182613049565b6060880152600061281d88888861308f565b905061282981846130a7565b90506000612836826130b3565b9050600082820390506128518a602001516127898388613049565b5094506115e792505050565b6000612867610f17565b6001600160a01b031663aaabadc56040518163ffffffff1660e01b815260040160206040518083038186803b15801561289f57600080fd5b505afa1580156128b3573d6000803e3d6000fd5b505050506040513d601f19601f8201168201806040525081019061070b9190615190565b670de0b6b3a764000060005b83518110156129395761292f6129288583815181106128fe57fe5b602002602001015185848151811061291257fe5b60200260200101516130d990919063ffffffff16565b8390612e76565b91506001016128e3565b506106b860008211610137611a99565b6000612953611c21565b82604051602001610eb092919061558e565b60006060612971611cbe565b600061297c84612e1c565b9050612997600082600381111561298f57fe5b1460ce611a99565b60606129a285613128565b90506129af610956611b87565b6129b9818761249c565b60606129c36110a6565b50905060006129d282846128d7565b905060006129e282610c06611b87565b60099290925550945090925050505b9550959350505050565b620f424090565b610a73828261313e565b6001600160a01b03918216600090815260016020908152604080832093909416825291909152205490565b612a4f612055826000612a486120a7565b91906116c5565b7f5a9e84f78f7957cb4ed7478eb0fcad35ee4ecbe2e0f298420b28a3955392573f816040516118dc9190615688565b600281511015612a8d576106cf565b600081600081518110612a9c57fe5b602002602001015190506000600190505b8251811015610a3f576000838281518110612ac457fe5b60200260200101519050612aed816001600160a01b0316846001600160a01b0316106065611a99565b9150600101612aad565b60006060806000612b07856131cc565b91509150612b1d612b16611b87565b8351611d57565b612b27828761249c565b60006060612b468a8a86612b396106d2565b612b41610a77565b6131ef565b91509150612b5381613358565b612b618383101560d0611a99565b509350909150505b94509492505050565b600073ba1ba1ba1ba1ba1ba1ba1ba1ba1ba1ba1ba1ba1b612b91610ef3565b6001600160a01b031614158015612bac5750612bac8361339c565b15612bd457612bb9610ef3565b6001600160a01b0316336001600160a01b03161490506106b8565b612bdc61285d565b6001600160a01b0316639be2a8848484306040518463ffffffff1660e01b8152600401612c0b939291906156b4565b60206040518083038186803b158015612c2357600080fd5b505afa158015612c37573d6000803e3d6000fd5b505050506040513d601f19601f820116820180604052508101906114b79190615091565b600080612c6983606061343c565b600a0a670de0b6b3a7640000029392505050565b6000612c8c8484111583611a99565b5050900390565b4690565b60004281612ca36120a7565b90506000612cb2826008612507565b90506000612cc1836028612507565b9050808410612cde57670de0b6b3a76400009450505050506106a4565b818411612cf25760009450505050506106a4565b818103828503612d028183612454565b965050505050505090565b600080612d22612d1d85836121cf565b613443565b90506000612d34610e33866040612507565b9050831580612d4257508082145b15612d4f575090506106b8565b670de0b6b3a76400008410612d675791506106b89050565b80821115612d8a576000612d7d85838503612e76565b90920392506106b8915050565b6000612d9885848403612e76565b9290920192506106b8915050565b600854612db590826000611605565b60085550565b60005b612dc6611b87565b811015610a7357612dfd612ddb600c83612feb565b838381518110612de757fe5b602002602001015161163890919063ffffffff16565b828281518110612e0957fe5b6020908102919091010152600101612dbe565b6000818060200190518101906106b891906151fa565b600060606000612e4184612e1c565b90506003816003811115612e5157fe5b1415612e6a57612e6088613463565b92509250506129f1565b612e6087878787613524565b6000828202612e9084158061170957508385838161170657fe5b670de0b6b3a764000090049392505050565b612eb96001600160a01b038316151561019b611a99565b612ec582600083610a3f565b6001600160a01b038216600090815260208190526040902054612eeb90826101a1612c7d565b6001600160a01b038316600090815260208190526040902055600254612f11908261359d565b6002556040516000906001600160a01b038416907fddf252ad1be2c89b69c2b068fc378daa952ba7f163c4a11628f55a4df523b3ef90612f529085906156ab565b60405180910390a35050565b600060606000612f6d84612e1c565b90506001816003811115612f7d57fe5b1415612f9957612f8f87878787612af7565b9250925050612b69565b6002816003811115612fa757fe5b1415612fb857612f8f8787866135ab565b6003816003811115612fc657fe5b1415612fd657612f8f878561369a565b612fe161013661263e565b5094509492505050565b6000908152600191820160205260409020015490565b6001600160a01b0381166000908152600b6020526040902054610c2b811515610135611a99565b60008061303d613036610a77565b84906116ec565b905061077f8382611638565b600061077f8383612e76565b610a73613061836136cc565b826136dc565b600061307c613074610a44565b610147611a99565b613087848484613743565b949350505050565b600061309c613074610a44565b613087848484613776565b600061077f838361173a565b60006106b86130d26130c3610a77565b670de0b6b3a764000090611638565b839061173a565b6000806130e684846137a9565b905060006131006130f9836127106116ec565b60016116b3565b905080821015613115576000925050506106b8565b61311f8282611638565b925050506106b8565b60608180602001905181019061077f91906152c0565b61314a60008383610a3f565b60025461315790826116b3565b6002556001600160a01b03821660009081526020819052604090205461317d90826116b3565b6001600160a01b0383166000818152602081905260408082209390935591519091907fddf252ad1be2c89b69c2b068fc378daa952ba7f163c4a11628f55a4df523b3ef90612f529085906156ab565b60606000828060200190518101906131e49190615216565b909590945092505050565b6000606080855167ffffffffffffffff8111801561320c57600080fd5b50604051908082528060200260200182016040528015613236578160200160208202803683370190505b5090506000805b89518110156132fb576132968a828151811061325557fe5b6020026020010151610c0b8a848151811061326c57fe5b60200260200101518d858151811061328057fe5b60200260200101516116b390919063ffffffff16565b8382815181106132a257fe5b6020026020010181815250506132f16132ea8a83815181106132c057fe5b60200260200101518584815181106132d457fe5b6020026020010151612e7690919063ffffffff16565b83906116b3565b915060010161323d565b506000606061330e8b8b8b87878c6138e6565b915091506000670de0b6b3a7640000831161332a576000613346565b61334661333f84670de0b6b3a7640000611638565b8a90612e76565b9c919b50909950505050505050505050565b6133658151610bc0611b87565b60005b613370611b87565b811015610a73576133948183838151811061338757fe5b60200260200101516136dc565b600101613368565b60006133c77f3e56920500000000000000000000000000000000000000000000000000000000610e7b565b8214806133fb57506133f87fe01af92c00000000000000000000000000000000000000000000000000000000610e7b565b82145b8061342d575061342a7f5b77155e00000000000000000000000000000000000000000000000000000000610e7b565b82145b806106b857506106b882613a6b565b1c601f1690565b60006106b867ffffffffffffffff61166c84670de0b6b3a76400006116ec565b6000606061346f611cbe565b6134866001600160a01b0384163014610151611a99565b60009150613492611b87565b67ffffffffffffffff811180156134a857600080fd5b506040519080825280602002602001820160405280156134d2578160200160208202803683370190505b50905060005b6134e0611b87565b81101561351e576134f2600c82612feb565b8282815181106134fe57fe5b6020908102919091010152613516600c826000613acf565b6001016134d8565b50915091565b60006060600061353384612e1c565b9050600081600381111561354357fe5b141561355457612f8f878786613ae7565b600181600381111561356257fe5b141561357257612f8f8785613b52565b600281600381111561358057fe5b141561359257612f8f87878787613b77565b612fe161015061263e565b600061077f83836001612c7d565b600060606000806135bb85613be5565b915091506135d36135ca611b87565b82106064611a99565b6000806136178984815181106135e557fe5b60200260200101518985815181106135f957fe5b60200260200101518661360a6106d2565b613612610a77565b613bfc565b9150915061362583826136dc565b606061362f611b87565b67ffffffffffffffff8111801561364557600080fd5b5060405190808252806020026020018201604052801561366f578160200160208202803683370190505b5090508281858151811061367f57fe5b60209081029190910101529399939850929650505050505050565b6000606060006136a984613cd2565b905060606136bf86836136ba6106d2565b613ce8565b9196919550909350505050565b60006106b8600c83610135613d9a565b801561373957600061370e827f0000000000000000000000000000000000000000000000000000000000000000612e76565b9050600061371d600c85612feb565b90506137368461372d83856116b3565b600c9190613acf565b50505b610a738282610a73565b600061374d611cbe565b6130878361375e8660200151613dc1565b8461376c8860400151613dc1565b8860600151613de5565b6000613780611cbe565b613087836137918660200151613dc1565b8461379f8860400151613dc1565b8860600151613e60565b6000816137bf5750670de0b6b3a76400006106b8565b826137cc575060006106b8565b6137f97f800000000000000000000000000000000000000000000000000000000000000084106006611a99565b8261381f770bce5086492111aea88f4bb1ca6bcf584181ea8059f7653284106007611a99565b826000670c7d713b49da0000831380156138405750670f43fc2c04ee000083125b1561387757600061385084613ed6565b9050670de0b6b3a764000080820784020583670de0b6b3a764000083050201915050613885565b816138818461400d565b0290505b670de0b6b3a764000090056138d37ffffffffffffffffffffffffffffffffffffffffffffffffdc702bd3a30fc000082128015906138cc575068070c1cc73b00c800008213155b6008611a99565b6138dc816143ad565b9695505050505050565b60006060855167ffffffffffffffff8111801561390257600080fd5b5060405190808252806020026020018201604052801561392c578160200160208202803683370190505b509050670de0b6b3a7640000915060005b8851811015613a5f5760008587838151811061395557fe5b602002602001015111156139e157600061398661397a88670de0b6b3a7640000611638565b8c85815181106132d457fe5b9050600061399a828b8681518110612de757fe5b905060006139a882896116ec565b90506139be6139b78383611638565b84906116b3565b9350808686815181106139cd57fe5b6020026020010181815250505050506139f8565b8782815181106139ed57fe5b602002602001015190505b6000613a218b8481518110613a0957fe5b6020026020010151610c0b848e878151811061328057fe5b9050613a53613a4c8b8581518110613a3557fe5b6020026020010151836130d990919063ffffffff16565b8690612e76565b9450505060010161393d565b50965096945050505050565b6000613a967f38e9922e00000000000000000000000000000000000000000000000000000000610e7b565b8214806106b85750613ac77f50dd6ed900000000000000000000000000000000000000000000000000000000610e7b565b909114919050565b60009182526001928301602052604090912090910155565b60006060613af3611cbe565b600080613aff85613be5565b91509150613b0e6135ca611b87565b600080613617898481518110613b2057fe5b6020026020010151898581518110613b3457fe5b602002602001015186613b456106d2565b613b4d610a77565b61487d565b600060606000613b6184613cd2565b905060606136bf8683613b726106d2565b614933565b60006060613b83611cbe565b60606000613b90856131cc565b91509150613ba18251610bc0611b87565b613bab828761249c565b60006060613bca8a8a86613bbd6106d2565b613bc5610a77565b6149c5565b91509150613bdc8383111560cf611a99565b612b6181613358565b600080828060200190518101906131e4919061528a565b60008080613c0e8561166c81896116b3565b9050613c276729a2241af62c0000821115610133611a99565b6000613c45613c3e670de0b6b3a76400008a61173a565b8390614aca565b90506000613c65613c5e83670de0b6b3a7640000611638565b8b906116ec565b90506000613c728a614af6565b90506000613c8083836116ec565b90506000613c8e8483611638565b90506000613cae613ca7670de0b6b3a76400008c611638565b849061173a565b83810398509050613cbf82826116b3565b9850505050505050509550959350505050565b60008180602001905181019061077f919061525d565b60606000613cf6848461173a565b90506060855167ffffffffffffffff81118015613d1257600080fd5b50604051908082528060200260200182016040528015613d3c578160200160208202803683370190505b50905060005b8651811015613d9057613d7183888381518110613d5b57fe5b60200260200101516116ec90919063ffffffff16565b828281518110613d7d57fe5b6020908102919091010152600101613d42565b5095945050505050565b600080613da78585614b1c565b9050613db581151584611a99565b60001901949350505050565b600080613dcc612c97565b90506000613dd984613001565b90506130878183612d0d565b6000613e07613dfc87670429d069189e0000612e76565b831115610130611a99565b6000613e1387846116b3565b90506000613e21888361173a565b90506000613e2f8887612454565b90506000613e3d8383614aca565b9050613e52613e4b82614af6565b8990612e76565b9a9950505050505050505050565b6000613e82613e7785670429d069189e0000612e76565b831115610131611a99565b6000613e98613e918685611638565b869061173a565b90506000613ea6858861173a565b90506000613eb48383614aca565b90506000613eca82670de0b6b3a7640000611638565b9050613e528a826116ec565b670de0b6b3a7640000026000806ec097ce7bc90715b34b9f1000000000808401907fffffffffffffffffffffffffffffffffff3f68318436f8ea4cb460f00000000085010281613f2257fe5b05905060006ec097ce7bc90715b34b9f100000000082800205905081806ec097ce7bc90715b34b9f100000000081840205915060038205016ec097ce7bc90715b34b9f100000000082840205915060058205016ec097ce7bc90715b34b9f100000000082840205915060078205016ec097ce7bc90715b34b9f100000000082840205915060098205016ec097ce7bc90715b34b9f1000000000828402059150600b8205016ec097ce7bc90715b34b9f1000000000828402059150600d8205016ec097ce7bc90715b34b9f1000000000828402059150600f826002919005919091010295945050505050565b6000670de0b6b3a764000082121561404a57614040826ec097ce7bc90715b34b9f10000000008161403a57fe5b0561400d565b6000039050610c2b565b60007e1600ef3172e58d2e933ec884fde10064c63b5372d805e203c0000000000000831261409b57770195e54c5dd42177f53a27172fa9ec630262827000000000830592506806f05b59d3b2000000015b73011798004d755d3c8bc8e03204cf44619e00000083126140d3576b1425982cf597cd205cef7380830592506803782dace9d9000000015b606492830292026e01855144814a7ff805980ff0084000831261411b576e01855144814a7ff805980ff008400068056bc75e2d63100000840205925068ad78ebc5ac62000000015b6b02df0ab5a80a22c61ab5a7008312614156576b02df0ab5a80a22c61ab5a70068056bc75e2d6310000084020592506856bc75e2d631000000015b693f1fce3da636ea5cf850831261418d57693f1fce3da636ea5cf85068056bc75e2d631000008402059250682b5e3af16b18800000015b690127fa27722cc06cc5e283126141c457690127fa27722cc06cc5e268056bc75e2d6310000084020592506815af1d78b58c400000015b68280e60114edb805d0383126141f95768280e60114edb805d0368056bc75e2d631000008402059250680ad78ebc5ac6200000015b680ebc5fb41746121110831261422457680ebc5fb4174612111068056bc75e2d631000009384020592015b6808f00f760a4b2db55d8312614259576808f00f760a4b2db55d68056bc75e2d6310000084020592506802b5e3af16b1880000015b6806f5f1775788937937831261428e576806f5f177578893793768056bc75e2d63100000840205925068015af1d78b58c40000015b6806248f33704b28660383126142c2576806248f33704b28660368056bc75e2d63100000840205925067ad78ebc5ac620000015b6805c548670b9510e7ac83126142f6576805c548670b9510e7ac68056bc75e2d6310000084020592506756bc75e2d6310000015b600068056bc75e2d63100000840168056bc75e2d63100000808603028161431957fe5b059050600068056bc75e2d63100000828002059050818068056bc75e2d63100000818402059150600382050168056bc75e2d63100000828402059150600582050168056bc75e2d63100000828402059150600782050168056bc75e2d63100000828402059150600982050168056bc75e2d63100000828402059150600b820501600202606485820105979650505050505050565b60006143f27ffffffffffffffffffffffffffffffffffffffffffffffffdc702bd3a30fc000083121580156143eb575068070c1cc73b00c800008313155b6009611a99565b600082121561442657614407826000036143ad565b6ec097ce7bc90715b34b9f10000000008161441e57fe5b059050610c2b565b60006806f05b59d3b2000000831261447c57507ffffffffffffffffffffffffffffffffffffffffffffffff90fa4a62c4e00000090910190770195e54c5dd42177f53a27172fa9ec6302628270000000006144c8565b6803782dace9d900000083126144c457507ffffffffffffffffffffffffffffffffffffffffffffffffc87d2531627000000909101906b1425982cf597cd205cef73806144c8565b5060015b6064929092029168056bc75e2d6310000068ad78ebc5ac62000000841261452e577fffffffffffffffffffffffffffffffffffffffffffffff5287143a539e0000009093019268056bc75e2d631000006e01855144814a7ff805980ff008400082020590505b6856bc75e2d6310000008412614580577fffffffffffffffffffffffffffffffffffffffffffffffa9438a1d29cf0000009093019268056bc75e2d631000006b02df0ab5a80a22c61ab5a70082020590505b682b5e3af16b1880000084126145d0577fffffffffffffffffffffffffffffffffffffffffffffffd4a1c50e94e78000009093019268056bc75e2d63100000693f1fce3da636ea5cf85082020590505b6815af1d78b58c4000008412614620577fffffffffffffffffffffffffffffffffffffffffffffffea50e2874a73c000009093019268056bc75e2d63100000690127fa27722cc06cc5e282020590505b680ad78ebc5ac6200000841261466f577ffffffffffffffffffffffffffffffffffffffffffffffff5287143a539e000009093019268056bc75e2d6310000068280e60114edb805d0382020590505b68056bc75e2d6310000084126146be577ffffffffffffffffffffffffffffffffffffffffffffffffa9438a1d29cf000009093019268056bc75e2d63100000680ebc5fb4174612111082020590505b6802b5e3af16b1880000841261470d577ffffffffffffffffffffffffffffffffffffffffffffffffd4a1c50e94e7800009093019268056bc75e2d631000006808f00f760a4b2db55d82020590505b68015af1d78b58c40000841261475c577ffffffffffffffffffffffffffffffffffffffffffffffffea50e2874a73c00009093019268056bc75e2d631000006806f5f177578893793782020590505b68056bc75e2d631000008481019085906002908280020505918201919050600368056bc75e2d631000008783020505918201919050600468056bc75e2d631000008783020505918201919050600568056bc75e2d631000008783020505918201919050600668056bc75e2d631000008783020505918201919050600768056bc75e2d631000008783020505918201919050600868056bc75e2d631000008783020505918201919050600968056bc75e2d631000008783020505918201919050600a68056bc75e2d631000008783020505918201919050600b68056bc75e2d631000008783020505918201919050600c68056bc75e2d631000008783020505918201919050606468056bc75e2d63100000848402058502059695505050505050565b6000808061488f8561166c8189611638565b90506148a86709b6e64a8ec60000821015610132611a99565b60006148bf613c3e670de0b6b3a76400008a612454565b905060006148d66148cf83614af6565b8b90612e76565b905060006148e38a614af6565b905060006148f183836116ec565b905060006148ff8483611638565b905061490b828a6116ec565b965061492161491a8389611638565b82906116b3565b97505050505050509550959350505050565b606060006149418484612454565b90506060855167ffffffffffffffff8111801561495d57600080fd5b50604051908082528060200260200182016040528015614987578160200160208202803683370190505b50905060005b8651811015613d90576149a6838883815181106132d457fe5b8282815181106149b257fe5b602090810291909101015260010161498d565b6000606080855167ffffffffffffffff811180156149e257600080fd5b50604051908082528060200260200182016040528015614a0c578160200160208202803683370190505b5090506000805b8951811015614a9e57614a568a8281518110614a2b57fe5b602002602001015161166c8a8481518110614a4257fe5b60200260200101518d8581518110612de757fe5b838281518110614a6257fe5b602002602001018181525050614a946132ea8a8381518110614a8057fe5b6020026020010151858481518110613d5b57fe5b9150600101614a13565b5060006060614ab18b8b8b87878c614b3b565b915091506000613346614ac384614af6565b8a906116ec565b600080614ad784846137a9565b90506000614aea6130f9836127106116ec565b90506126df82826116b3565b6000670de0b6b3a76400008210614b0e5760006106b8565b50670de0b6b3a76400000390565b6001600160a01b03166000908152600291909101602052604090205490565b60006060855167ffffffffffffffff81118015614b5757600080fd5b50604051908082528060200260200182016040528015614b81578160200160208202803683370190505b509050670de0b6b3a7640000915060005b8851811015613a5f576000868281518110614ba957fe5b6020026020010151861115614c23576000614bc661397a88614af6565b90506000614bda828b8681518110612de757fe5b90506000614bf36130d2670de0b6b3a76400008a611638565b9050818103868681518110614c0457fe5b6020908102919091010152614c1983826116b3565b9350505050614c3a565b878281518110614c2f57fe5b602002602001015190505b6000614c638b8481518110614c4b57fe5b6020026020010151610c0b848e8781518110612de757fe5b9050614c77613a4c8b8581518110613a3557fe5b94505050600101614b92565b80356106b88161596a565b600082601f830112614c9e578081fd5b8135614cb1614cac8261593e565b615917565b818152915060208083019084810181840286018201871015614cd257600080fd5b60005b84811015614cf157813584529282019290820190600101614cd5565b505050505092915050565b600082601f830112614d0c578081fd5b8151614d1a614cac8261593e565b818152915060208083019084810181840286018201871015614d3b57600080fd5b60005b84811015614cf157815184529282019290820190600101614d3e565b600082601f830112614d6a578081fd5b813567ffffffffffffffff811115614d80578182fd5b614d936020601f19601f84011601615917565b9150808252836020828501011115614daa57600080fd5b8060208401602084013760009082016020015292915050565b8035600281106106b857600080fd5b600060208284031215614de3578081fd5b813561077f8161596a565b60008060408385031215614e00578081fd5b8235614e0b8161596a565b91506020830135614e1b8161596a565b809150509250929050565b600080600060608486031215614e3a578081fd5b8335614e458161596a565b92506020840135614e558161596a565b929592945050506040919091013590565b600080600080600080600060e0888a031215614e80578283fd5b8735614e8b8161596a565b96506020880135614e9b8161596a565b955060408801359450606088013593506080880135614eb98161599a565b9699959850939692959460a0840135945060c09093013592915050565b60008060408385031215614ee8578182fd5b8235614ef38161596a565b946020939093013593505050565b600080600060608486031215614f15578081fd5b835167ffffffffffffffff80821115614f2c578283fd5b818601915086601f830112614f3f578283fd5b8151614f4d614cac8261593e565b80828252602080830192508086018b828387028901011115614f6d578788fd5b8796505b84871015614f98578051614f848161596a565b845260019690960195928101928101614f71565b508901519097509350505080821115614faf578283fd5b50614fbc86828701614cfc565b925050604084015190509250925092565b60008060008060808587031215614fe2578182fd5b843567ffffffffffffffff80821115614ff9578384fd5b61500588838901614c8e565b9550602087013591508082111561501a578384fd5b61502688838901614c8e565b9450604087013591508082111561503b578384fd5b61504788838901614c8e565b9350606087013591508082111561505c578283fd5b5061506987828801614d5a565b91505092959194509250565b600060208284031215615086578081fd5b813561077f8161597f565b6000602082840312156150a2578081fd5b815161077f8161597f565b600080600080600080600060e0888a0312156150c7578081fd5b8735965060208801356150d98161596a565b955060408801356150e98161596a565b9450606088013567ffffffffffffffff80821115615105578283fd5b6151118b838c01614c8e565b955060808a0135945060a08a0135935060c08a0135915080821115615134578283fd5b506151418a828b01614d5a565b91505092959891949750929550565b600060208284031215615161578081fd5b81357fffffffff000000000000000000000000000000000000000000000000000000008116811461077f578182fd5b6000602082840312156151a1578081fd5b815161077f8161596a565b600080604083850312156151be578182fd5b82356151c98161596a565b9150602083013567ffffffffffffffff8111156151e4578182fd5b6151f085828601614d5a565b9150509250929050565b60006020828403121561520b578081fd5b815161077f8161598d565b60008060006060848603121561522a578081fd5b83516152358161598d565b602085015190935067ffffffffffffffff811115615251578182fd5b614fbc86828701614cfc565b6000806040838503121561526f578182fd5b825161527a8161598d565b6020939093015192949293505050565b60008060006060848603121561529e578081fd5b83516152a98161598d565b602085015160409095015190969495509392505050565b600080604083850312156152d2578182fd5b82516152dd8161598d565b602084015190925067ffffffffffffffff8111156152f9578182fd5b6151f085828601614cfc565b600080600060608486031215615319578081fd5b833567ffffffffffffffff80821115615330578283fd5b8186019150610120808389031215615346578384fd5b61534f81615917565b905061535b8884614dc3565b815261536a8860208501614c83565b602082015261537c8860408501614c83565b6040820152606083013560608201526080830135608082015260a083013560a08201526153ac8860c08501614c83565b60c08201526153be8860e08501614c83565b60e082015261010080840135838111156153d6578586fd5b6153e28a828701614d5a565b9183019190915250976020870135975060409096013595945050505050565b600060208284031215615412578081fd5b5035919050565b60008060006060848603121561542d578081fd5b8335925060208401359150604084013567ffffffffffffffff811115615451578182fd5b61545d86828701614c8e565b9150509250925092565b6000806000806080858703121561547c578182fd5b845193506020850151925060408501519150606085015161549c8161596a565b939692955090935050565b6000602082840312156154b8578081fd5b815161077f8161599a565b6000815180845260208085019450808401835b838110156154f2578151875295820195908201906001016154d6565b509495945050505050565b15159052565b60008151808452815b818110156155285760208185018101518683018201520161550c565b818111156155395782602083870101525b50601f01601f19169290920160200192915050565b9182527fffffffff0000000000000000000000000000000000000000000000000000000016602082015260240190565b6000828483379101908152919050565b7f190100000000000000000000000000000000000000000000000000000000000081526002810192909252602282015260420190565b6001600160a01b0391909116815260200190565b604080825283519082018190526000906020906060840190828701845b8281101561561a5781516001600160a01b0316845292840192908401906001016155f5565b505050838103828501526138dc81866154c3565b60006020825261077f60208301846154c3565b60006040825261565460408301856154c3565b82810360208401526126df81856154c3565b60006040825261567960408301856154c3565b90508260208301529392505050565b901515815260200190565b92151583526020830191909152604082015260600190565b90815260200190565b9283526001600160a01b03918216602084015216604082015260600190565b600085825260206001600160a01b038087168285015280861660408501525060806060840152610100830184516080808601528181518084526101208701915084830193508592505b808310156157445761572e845161595e565b825292840192600192909201919084019061571c565b508387015193507fffffffffffffffffffffffffffffffffffffffffffffffffffffffffffffff809250828682030160a087015261578281856154c3565b935050506040850151818584030160c086015261579f8382615503565b9250505060608401516157b560e08501826154fd565b509695505050505050565b9586526001600160a01b0394851660208701529290931660408501526060840152608083019190915260a082015260c00190565b9485526020850193909352604084019190915260608301526001600160a01b0316608082015260a00190565b6000838252604060208301526130876040830184615503565b9182526001600160a01b0316602082015260400190565b93845260ff9290921660208401526040830152606082015260800190565b602081016004831061587c57fe5b91905290565b60006020825261077f6020830184615503565b60008382526040602083015261308760408301846154c3565b6000848252836020830152606060408301526126df60608301846154c3565b6000858252846020830152608060408301526158ec60808301856154c3565b82810360608401526158fe81856154c3565b979650505050505050565b60ff91909116815260200190565b60405181810167ffffffffffffffff8111828210171561593657600080fd5b604052919050565b600067ffffffffffffffff821115615954578081fd5b5060209081020190565b6001600160a01b031690565b6001600160a01b03811681146106cf57600080fd5b80151581146106cf57600080fd5b600481106106cf57600080fd5b60ff811681146106cf57600080fdfea2646970667358221220ce1eb8ab7e927c57e0b4ecef71ed5c85f9d339a5a69771ce13c732bc5d38c67864736f6c63430007010033",
  "linkReferences": {},
  "deployedLinkReferences": {}
}