{
  "_format": "hh-sol-artifact-1",
  "contractName": "LiquidityBootstrappingPool",
  "sourceName": "contracts/smart/LiquidityBootstrappingPool.sol",
  "abi": [
    {
      "inputs": [
        {
          "internalType": "contract IVault",
          "name": "vault",
          "type": "address"
        },
        {
          "internalType": "string",
          "name": "name",
          "type": "string"
        },
        {
          "internalType": "string",
          "name": "symbol",
          "type": "string"
        },
        {
          "internalType": "contract IERC20[]",
          "name": "tokens",
          "type": "address[]"
        },
        {
          "internalType": "uint256[]",
          "name": "normalizedWeights",
          "type": "uint256[]"
        },
        {
          "internalType": "uint256",
          "name": "swapFeePercentage",
          "type": "uint256"
        },
        {
          "internalType": "uint256",
          "name": "pauseWindowDuration",
          "type": "uint256"
        },
        {
          "internalType": "uint256",
          "name": "bufferPeriodDuration",
          "type": "uint256"
        },
        {
          "internalType": "address",
          "name": "owner",
          "type": "address"
        },
        {
          "internalType": "bool",
          "name": "swapEnabledOnStart",
          "type": "bool"
        }
      ],
      "stateMutability": "nonpayable",
      "type": "constructor"
    },
    {
      "anonymous": false,
      "inputs": [
        {
          "indexed": true,
          "internalType": "address",
          "name": "owner",
          "type": "address"
        },
        {
          "indexed": true,
          "internalType": "address",
          "name": "spender",
          "type": "address"
        },
        {
          "indexed": false,
          "internalType": "uint256",
          "name": "value",
          "type": "uint256"
        }
      ],
      "name": "Approval",
      "type": "event"
    },
    {
      "anonymous": false,
      "inputs": [
        {
          "indexed": false,
          "internalType": "uint256",
          "name": "startTime",
          "type": "uint256"
        },
        {
          "indexed": false,
          "internalType": "uint256",
          "name": "endTime",
          "type": "uint256"
        },
        {
          "indexed": false,
          "internalType": "uint256[]",
          "name": "startWeights",
          "type": "uint256[]"
        },
        {
          "indexed": false,
          "internalType": "uint256[]",
          "name": "endWeights",
          "type": "uint256[]"
        }
      ],
      "name": "GradualWeightUpdateScheduled",
      "type": "event"
    },
    {
      "anonymous": false,
      "inputs": [
        {
          "indexed": false,
          "internalType": "bool",
          "name": "paused",
          "type": "bool"
        }
      ],
      "name": "PausedStateChanged",
      "type": "event"
    },
    {
      "anonymous": false,
      "inputs": [
        {
          "indexed": false,
          "internalType": "bool",
          "name": "swapEnabled",
          "type": "bool"
        }
      ],
      "name": "SwapEnabledSet",
      "type": "event"
    },
    {
      "anonymous": false,
      "inputs": [
        {
          "indexed": false,
          "internalType": "uint256",
          "name": "swapFeePercentage",
          "type": "uint256"
        }
      ],
      "name": "SwapFeePercentageChanged",
      "type": "event"
    },
    {
      "anonymous": false,
      "inputs": [
        {
          "indexed": true,
          "internalType": "address",
          "name": "from",
          "type": "address"
        },
        {
          "indexed": true,
          "internalType": "address",
          "name": "to",
          "type": "address"
        },
        {
          "indexed": false,
          "internalType": "uint256",
          "name": "value",
          "type": "uint256"
        }
      ],
      "name": "Transfer",
      "type": "event"
    },
    {
      "inputs": [],
      "name": "DOMAIN_SEPARATOR",
      "outputs": [
        {
          "internalType": "bytes32",
          "name": "",
          "type": "bytes32"
        }
      ],
      "stateMutability": "view",
      "type": "function"
    },
    {
      "inputs": [
        {
          "internalType": "address",
          "name": "owner",
          "type": "address"
        },
        {
          "internalType": "address",
          "name": "spender",
          "type": "address"
        }
      ],
      "name": "allowance",
      "outputs": [
        {
          "internalType": "uint256",
          "name": "",
          "type": "uint256"
        }
      ],
      "stateMutability": "view",
      "type": "function"
    },
    {
      "inputs": [
        {
          "internalType": "address",
          "name": "spender",
          "type": "address"
        },
        {
          "internalType": "uint256",
          "name": "amount",
          "type": "uint256"
        }
      ],
      "name": "approve",
      "outputs": [
        {
          "internalType": "bool",
          "name": "",
          "type": "bool"
        }
      ],
      "stateMutability": "nonpayable",
      "type": "function"
    },
    {
      "inputs": [
        {
          "internalType": "address",
          "name": "account",
          "type": "address"
        }
      ],
      "name": "balanceOf",
      "outputs": [
        {
          "internalType": "uint256",
          "name": "",
          "type": "uint256"
        }
      ],
      "stateMutability": "view",
      "type": "function"
    },
    {
      "inputs": [
        {
          "internalType": "uint256[]",
          "name": "balances",
          "type": "uint256[]"
        },
        {
          "internalType": "uint256[]",
          "name": "normalizedWeights",
          "type": "uint256[]"
        },
        {
          "internalType": "uint256[]",
          "name": "scalingFactors",
          "type": "uint256[]"
        },
        {
          "internalType": "bytes",
          "name": "userData",
          "type": "bytes"
        }
      ],
      "name": "calculateExactTokensInForBPTOut",
      "outputs": [
        {
          "internalType": "uint256",
          "name": "",
          "type": "uint256"
        }
      ],
      "stateMutability": "nonpayable",
      "type": "function"
    },
    {
      "inputs": [],
      "name": "decimals",
      "outputs": [
        {
          "internalType": "uint8",
          "name": "",
          "type": "uint8"
        }
      ],
      "stateMutability": "view",
      "type": "function"
    },
    {
      "inputs": [
        {
          "internalType": "address",
          "name": "spender",
          "type": "address"
        },
        {
          "internalType": "uint256",
          "name": "amount",
          "type": "uint256"
        }
      ],
      "name": "decreaseAllowance",
      "outputs": [
        {
          "internalType": "bool",
          "name": "",
          "type": "bool"
        }
      ],
      "stateMutability": "nonpayable",
      "type": "function"
    },
    {
      "inputs": [
        {
          "internalType": "bytes4",
          "name": "selector",
          "type": "bytes4"
        }
      ],
      "name": "getActionId",
      "outputs": [
        {
          "internalType": "bytes32",
          "name": "",
          "type": "bytes32"
        }
      ],
      "stateMutability": "view",
      "type": "function"
    },
    {
      "inputs": [],
      "name": "getAuthorizer",
      "outputs": [
        {
          "internalType": "contract IAuthorizer",
          "name": "",
          "type": "address"
        }
      ],
      "stateMutability": "view",
      "type": "function"
    },
    {
      "inputs": [],
      "name": "getGradualWeightUpdateParams",
      "outputs": [
        {
          "internalType": "uint256",
          "name": "startTime",
          "type": "uint256"
        },
        {
          "internalType": "uint256",
          "name": "endTime",
          "type": "uint256"
        },
        {
          "internalType": "uint256[]",
          "name": "endWeights",
          "type": "uint256[]"
        }
      ],
      "stateMutability": "view",
      "type": "function"
    },
    {
      "inputs": [],
      "name": "getInvariant",
      "outputs": [
        {
          "internalType": "uint256",
          "name": "",
          "type": "uint256"
        }
      ],
      "stateMutability": "view",
      "type": "function"
    },
    {
      "inputs": [],
      "name": "getLastInvariant",
      "outputs": [
        {
          "internalType": "uint256",
          "name": "",
          "type": "uint256"
        }
      ],
      "stateMutability": "view",
      "type": "function"
    },
    {
      "inputs": [],
      "name": "getNormalizedWeights",
      "outputs": [
        {
          "internalType": "uint256[]",
          "name": "",
          "type": "uint256[]"
        }
      ],
      "stateMutability": "view",
      "type": "function"
    },
    {
      "inputs": [],
      "name": "getNormalizedWeightsAndMaxWeightIndex",
      "outputs": [
        {
          "internalType": "uint256[]",
          "name": "normalizedWeights",
          "type": "uint256[]"
        },
        {
          "internalType": "uint256",
          "name": "maxWeightTokenIndex",
          "type": "uint256"
        }
      ],
      "stateMutability": "view",
      "type": "function"
    },
    {
      "inputs": [],
      "name": "getOwner",
      "outputs": [
        {
          "internalType": "address",
          "name": "",
          "type": "address"
        }
      ],
      "stateMutability": "view",
      "type": "function"
    },
    {
      "inputs": [],
      "name": "getPausedState",
      "outputs": [
        {
          "internalType": "bool",
          "name": "paused",
          "type": "bool"
        },
        {
          "internalType": "uint256",
          "name": "pauseWindowEndTime",
          "type": "uint256"
        },
        {
          "internalType": "uint256",
          "name": "bufferPeriodEndTime",
          "type": "uint256"
        }
      ],
      "stateMutability": "view",
      "type": "function"
    },
    {
      "inputs": [],
      "name": "getPoolId",
      "outputs": [
        {
          "internalType": "bytes32",
          "name": "",
          "type": "bytes32"
        }
      ],
      "stateMutability": "view",
      "type": "function"
    },
    {
      "inputs": [],
      "name": "getRate",
      "outputs": [
        {
          "internalType": "uint256",
          "name": "",
          "type": "uint256"
        }
      ],
      "stateMutability": "view",
      "type": "function"
    },
    {
      "inputs": [],
      "name": "getScalingFactors",
      "outputs": [
        {
          "internalType": "uint256[]",
          "name": "",
          "type": "uint256[]"
        }
      ],
      "stateMutability": "view",
      "type": "function"
    },
    {
      "inputs": [],
      "name": "getSwapEnabled",
      "outputs": [
        {
          "internalType": "bool",
          "name": "",
          "type": "bool"
        }
      ],
      "stateMutability": "view",
      "type": "function"
    },
    {
      "inputs": [],
      "name": "getSwapFeePercentage",
      "outputs": [
        {
          "internalType": "uint256",
          "name": "",
          "type": "uint256"
        }
      ],
      "stateMutability": "view",
      "type": "function"
    },
    {
      "inputs": [],
      "name": "getVault",
      "outputs": [
        {
          "internalType": "contract IVault",
          "name": "",
          "type": "address"
        }
      ],
      "stateMutability": "view",
      "type": "function"
    },
    {
      "inputs": [
        {
          "internalType": "address",
          "name": "spender",
          "type": "address"
        },
        {
          "internalType": "uint256",
          "name": "addedValue",
          "type": "uint256"
        }
      ],
      "name": "increaseAllowance",
      "outputs": [
        {
          "internalType": "bool",
          "name": "",
          "type": "bool"
        }
      ],
      "stateMutability": "nonpayable",
      "type": "function"
    },
    {
      "inputs": [],
      "name": "name",
      "outputs": [
        {
          "internalType": "string",
          "name": "",
          "type": "string"
        }
      ],
      "stateMutability": "view",
      "type": "function"
    },
    {
      "inputs": [
        {
          "internalType": "address",
          "name": "owner",
          "type": "address"
        }
      ],
      "name": "nonces",
      "outputs": [
        {
          "internalType": "uint256",
          "name": "",
          "type": "uint256"
        }
      ],
      "stateMutability": "view",
      "type": "function"
    },
    {
      "inputs": [
        {
          "internalType": "bytes32",
          "name": "poolId",
          "type": "bytes32"
        },
        {
          "internalType": "address",
          "name": "sender",
          "type": "address"
        },
        {
          "internalType": "address",
          "name": "recipient",
          "type": "address"
        },
        {
          "internalType": "uint256[]",
          "name": "balances",
          "type": "uint256[]"
        },
        {
          "internalType": "uint256",
          "name": "lastChangeBlock",
          "type": "uint256"
        },
        {
          "internalType": "uint256",
          "name": "protocolSwapFeePercentage",
          "type": "uint256"
        },
        {
          "internalType": "bytes",
          "name": "userData",
          "type": "bytes"
        }
      ],
      "name": "onExitPool",
      "outputs": [
        {
          "internalType": "uint256[]",
          "name": "",
          "type": "uint256[]"
        },
        {
          "internalType": "uint256[]",
          "name": "",
          "type": "uint256[]"
        }
      ],
      "stateMutability": "nonpayable",
      "type": "function"
    },
    {
      "inputs": [
        {
          "internalType": "bytes32",
          "name": "poolId",
          "type": "bytes32"
        },
        {
          "internalType": "address",
          "name": "sender",
          "type": "address"
        },
        {
          "internalType": "address",
          "name": "recipient",
          "type": "address"
        },
        {
          "internalType": "uint256[]",
          "name": "balances",
          "type": "uint256[]"
        },
        {
          "internalType": "uint256",
          "name": "lastChangeBlock",
          "type": "uint256"
        },
        {
          "internalType": "uint256",
          "name": "protocolSwapFeePercentage",
          "type": "uint256"
        },
        {
          "internalType": "bytes",
          "name": "userData",
          "type": "bytes"
        }
      ],
      "name": "onJoinPool",
      "outputs": [
        {
          "internalType": "uint256[]",
          "name": "",
          "type": "uint256[]"
        },
        {
          "internalType": "uint256[]",
          "name": "",
          "type": "uint256[]"
        }
      ],
      "stateMutability": "nonpayable",
      "type": "function"
    },
    {
      "inputs": [
        {
          "components": [
            {
              "internalType": "enum IVault.SwapKind",
              "name": "kind",
              "type": "uint8"
            },
            {
              "internalType": "contract IERC20",
              "name": "tokenIn",
              "type": "address"
            },
            {
              "internalType": "contract IERC20",
              "name": "tokenOut",
              "type": "address"
            },
            {
              "internalType": "uint256",
              "name": "amount",
              "type": "uint256"
            },
            {
              "internalType": "bytes32",
              "name": "poolId",
              "type": "bytes32"
            },
            {
              "internalType": "uint256",
              "name": "lastChangeBlock",
              "type": "uint256"
            },
            {
              "internalType": "address",
              "name": "from",
              "type": "address"
            },
            {
              "internalType": "address",
              "name": "to",
              "type": "address"
            },
            {
              "internalType": "bytes",
              "name": "userData",
              "type": "bytes"
            }
          ],
          "internalType": "struct IPoolSwapStructs.SwapRequest",
          "name": "request",
          "type": "tuple"
        },
        {
          "internalType": "uint256",
          "name": "balanceTokenIn",
          "type": "uint256"
        },
        {
          "internalType": "uint256",
          "name": "balanceTokenOut",
          "type": "uint256"
        }
      ],
      "name": "onSwap",
      "outputs": [
        {
          "internalType": "uint256",
          "name": "",
          "type": "uint256"
        }
      ],
      "stateMutability": "nonpayable",
      "type": "function"
    },
    {
      "inputs": [
        {
          "internalType": "address",
          "name": "owner",
          "type": "address"
        },
        {
          "internalType": "address",
          "name": "spender",
          "type": "address"
        },
        {
          "internalType": "uint256",
          "name": "value",
          "type": "uint256"
        },
        {
          "internalType": "uint256",
          "name": "deadline",
          "type": "uint256"
        },
        {
          "internalType": "uint8",
          "name": "v",
          "type": "uint8"
        },
        {
          "internalType": "bytes32",
          "name": "r",
          "type": "bytes32"
        },
        {
          "internalType": "bytes32",
          "name": "s",
          "type": "bytes32"
        }
      ],
      "name": "permit",
      "outputs": [],
      "stateMutability": "nonpayable",
      "type": "function"
    },
    {
      "inputs": [
        {
          "internalType": "bytes32",
          "name": "poolId",
          "type": "bytes32"
        },
        {
          "internalType": "address",
          "name": "sender",
          "type": "address"
        },
        {
          "internalType": "address",
          "name": "recipient",
          "type": "address"
        },
        {
          "internalType": "uint256[]",
          "name": "balances",
          "type": "uint256[]"
        },
        {
          "internalType": "uint256",
          "name": "lastChangeBlock",
          "type": "uint256"
        },
        {
          "internalType": "uint256",
          "name": "protocolSwapFeePercentage",
          "type": "uint256"
        },
        {
          "internalType": "bytes",
          "name": "userData",
          "type": "bytes"
        }
      ],
      "name": "queryExit",
      "outputs": [
        {
          "internalType": "uint256",
          "name": "bptIn",
          "type": "uint256"
        },
        {
          "internalType": "uint256[]",
          "name": "amountsOut",
          "type": "uint256[]"
        }
      ],
      "stateMutability": "view",
      "type": "function"
    },
    {
      "inputs": [
        {
          "internalType": "bytes32",
          "name": "poolId",
          "type": "bytes32"
        },
        {
          "internalType": "address",
          "name": "sender",
          "type": "address"
        },
        {
          "internalType": "address",
          "name": "recipient",
          "type": "address"
        },
        {
          "internalType": "uint256[]",
          "name": "balances",
          "type": "uint256[]"
        },
        {
          "internalType": "uint256",
          "name": "lastChangeBlock",
          "type": "uint256"
        },
        {
          "internalType": "uint256",
          "name": "protocolSwapFeePercentage",
          "type": "uint256"
        },
        {
          "internalType": "bytes",
          "name": "userData",
          "type": "bytes"
        }
      ],
      "name": "queryJoin",
      "outputs": [
        {
          "internalType": "uint256",
          "name": "bptOut",
          "type": "uint256"
        },
        {
          "internalType": "uint256[]",
          "name": "amountsIn",
          "type": "uint256[]"
        }
      ],
      "stateMutability": "view",
      "type": "function"
    },
    {
      "inputs": [
        {
          "internalType": "contract IERC20",
          "name": "token",
          "type": "address"
        },
        {
          "internalType": "bytes",
          "name": "poolConfig",
          "type": "bytes"
        }
      ],
      "name": "setAssetManagerPoolConfig",
      "outputs": [],
      "stateMutability": "nonpayable",
      "type": "function"
    },
    {
      "inputs": [
        {
          "internalType": "bool",
          "name": "paused",
          "type": "bool"
        }
      ],
      "name": "setPaused",
      "outputs": [],
      "stateMutability": "nonpayable",
      "type": "function"
    },
    {
      "inputs": [
        {
          "internalType": "bool",
          "name": "swapEnabled",
          "type": "bool"
        }
      ],
      "name": "setSwapEnabled",
      "outputs": [],
      "stateMutability": "nonpayable",
      "type": "function"
    },
    {
      "inputs": [
        {
          "internalType": "uint256",
          "name": "swapFeePercentage",
          "type": "uint256"
        }
      ],
      "name": "setSwapFeePercentage",
      "outputs": [],
      "stateMutability": "nonpayable",
      "type": "function"
    },
    {
      "inputs": [],
      "name": "symbol",
      "outputs": [
        {
          "internalType": "string",
          "name": "",
          "type": "string"
        }
      ],
      "stateMutability": "view",
      "type": "function"
    },
    {
      "inputs": [],
      "name": "totalSupply",
      "outputs": [
        {
          "internalType": "uint256",
          "name": "",
          "type": "uint256"
        }
      ],
      "stateMutability": "view",
      "type": "function"
    },
    {
      "inputs": [
        {
          "internalType": "address",
          "name": "recipient",
          "type": "address"
        },
        {
          "internalType": "uint256",
          "name": "amount",
          "type": "uint256"
        }
      ],
      "name": "transfer",
      "outputs": [
        {
          "internalType": "bool",
          "name": "",
          "type": "bool"
        }
      ],
      "stateMutability": "nonpayable",
      "type": "function"
    },
    {
      "inputs": [
        {
          "internalType": "address",
          "name": "sender",
          "type": "address"
        },
        {
          "internalType": "address",
          "name": "recipient",
          "type": "address"
        },
        {
          "internalType": "uint256",
          "name": "amount",
          "type": "uint256"
        }
      ],
      "name": "transferFrom",
      "outputs": [
        {
          "internalType": "bool",
          "name": "",
          "type": "bool"
        }
      ],
      "stateMutability": "nonpayable",
      "type": "function"
    },
    {
      "inputs": [
        {
          "internalType": "uint256",
          "name": "startTime",
          "type": "uint256"
        },
        {
          "internalType": "uint256",
          "name": "endTime",
          "type": "uint256"
        },
        {
          "internalType": "uint256[]",
          "name": "endWeights",
          "type": "uint256[]"
        }
      ],
      "name": "updateWeightsGradually",
      "outputs": [],
      "stateMutability": "nonpayable",
      "type": "function"
    }
  ],
  "bytecode": "0x6102e06040527f6e71edae12b1b97f4d1f60370fef10105fa2faae0126114a169c64845d6126c9610120523480156200003757600080fd5b506040516200644c3803806200644c8339810160408190526200005a9162000d67565b898989898a516001600160401b03811180156200007657600080fd5b50604051908082528060200260200182016040528015620000a1578160200160208202803683370190505b5089898989888651600214620000b9576001620000bc565b60025b8989898989898989828289898d8280604051806040016040528060018152602001603160f81b81525085858a336001600160a01b031660001b806080818152505050806001600160a01b031660a0816001600160a01b031660601b815250505081600390805190602001906200013492919062000b1f565b5080516200014a90600490602084019062000b1f565b505060058054601260ff1990911617905550815160209283012060c052805191012060e052507f8b73c3c69bb8fe3d512ecc4cf759cc79239f7b179b0ffacaa9a75d522b39400f6101005260601b6001600160601b0319166101405250620001bd90506276a70083111561019462000508565b620001d162278d0082111561019562000508565b4290910161016081905201610180528551620001f3906002111560c862000508565b6200020d620002016200051d565b8751111560c962000508565b62000223866200052260201b620011571760201c565b6200022e846200052e565b6040516309b2760f60e01b81526000906001600160a01b038c16906309b2760f906200025f908d9060040162000f7c565b602060405180830381600087803b1580156200027a57600080fd5b505af11580156200028f573d6000803e3d6000fd5b505050506040513d601f19601f82011682018060405250810190620002b5919062000d4e565b604051633354e3e960e11b81529091506001600160a01b038c16906366a9c7d290620002ea9084908b908b9060040162000ee0565b600060405180830381600087803b1580156200030557600080fd5b505af11580156200031a573d6000803e3d6000fd5b50505050806101a0818152505050505050505050505050505050505050505050506001600a8190555060008751905062000361818851620005ba60201b620011611760201c565b6101c0819052875188906000906200037557fe5b60200260200101516001600160a01b03166101e0816001600160a01b031660601b8152505087600181518110620003a857fe5b60200260200101516001600160a01b0316610200816001600160a01b031660601b8152505060028111620003de576000620003f5565b87600281518110620003ec57fe5b60200260200101515b60601b6001600160601b0319166102205260038111620004175760006200042e565b876003815181106200042557fe5b60200260200101515b6001600160a01b0316610240816001600160a01b031660601b8152505062000471886000815181106200045d57fe5b6020026020010151620005c960201b60201c565b6102605287516200048a90899060019081106200045d57fe5b61028052600281116200049f576000620004b1565b620004b1886002815181106200045d57fe5b6102a05260038111620004c6576000620004d8565b620004d8886003815181106200045d57fe5b6102c05242620004eb81808a806200069d565b620004f6836200082b565b50505050505050505050505062001043565b81620005195762000519816200087f565b5050565b600490565b806200051981620008d2565b6200054364e8d4a5100082101560cb62000508565b6200055b67016345785d8a000082111560ca62000508565b6200057a8160c06008546200095f60201b6200116e179092919060201c565b6008556040517fa9ba3ffe0b6c366b81232caab38605a0699ad5398d6cce76f91ee809e322dafc90620005af90839062000f91565b60405180910390a150565b62000519828214606762000508565b60006001600160a01b038216301415620005ed5750670de0b6b3a764000062000698565b6000826001600160a01b031663313ce5676040518163ffffffff1660e01b815260040160206040518083038186803b1580156200062957600080fd5b505afa1580156200063e573d6000803e3d6000fd5b505050506040513d601f19601f8201168201806040525081019062000664919062000e76565b60ff1690506000620006836012836200097460201b620011841760201c565b905080600a0a670de0b6b3a764000002925050505b919050565b600b546000805b83518110156200078e576000848281518110620006bd57fe5b60200260200101519050620006e5662386f26fc1000082101561012e6200050860201b60201c565b62000766620006ff826200099160201b6200119a1760201c565b8360100260800162000751620007348a87815181106200071b57fe5b6020026020010151620009d260201b620011ba1760201c565b86601f0260040189620009ff60201b620011d6179092919060201c565b62000a1160201b620011e8179092919060201c565b935062000782818462000a2160201b620011f81790919060201c565b925050600101620006a4565b50620007a7670de0b6b3a7640000821461013462000508565b620007e08560e0620007cb8960c08762000a3c60201b6200120a179092919060201c565b62000a3c60201b6200120a179092919060201c565b600b556040517f0f3631f9dab08169d1db21c6dc5f32536fb2b0a6b9bb5330d71c52132f968be0906200081b90889088908890889062000f9a565b60405180910390a1505050505050565b6200084a816000600b5462000a4e60201b6200121c179092919060201c565b600b556040517f5a9e84f78f7957cb4ed7478eb0fcad35ee4ecbe2e0f298420b28a3955392573f90620005af90839062000ed5565b62461bcd60e51b6000908152602060045260076024526642414c23000030600a808404818106603090810160081b95839006959095019082900491820690940160101b939093010160c81b604452606490fd5b600281511015620008e3576200095c565b600081600081518110620008f357fe5b602002602001015190506000600190505b8251811015620009595760008382815181106200091d57fe5b602002602001015190506200094e816001600160a01b0316846001600160a01b03161060656200050860201b60201c565b915060010162000904565b50505b50565b6001600160401b03811b1992909216911b1790565b60006200098683831115600162000508565b508082035b92915050565b60006200098b670de0b6b3a7640000620009be61ffff80168562000a7760201b620012431790919060201c565b62000acc60201b620012911790919060201c565b60006200098b670de0b6b3a7640000620009be637fffffff8562000a7760201b620012431790919060201c565b637fffffff811b1992909216911b1790565b61ffff811b1992909216911b1790565b600082820162000a35848210158362000508565b9392505050565b63ffffffff811b1992909216911b1790565b60006001821b198416828462000a6657600062000a69565b60015b60ff16901b17949350505050565b600082820262000a9f84158062000a9757508385838162000a9457fe5b04145b600362000508565b8062000ab05760009150506200098b565b670de0b6b3a764000060001982015b046001019150506200098b565b600062000add821515600462000508565b8262000aec575060006200098b565b670de0b6b3a76400008381029062000b129085838162000b0857fe5b0414600562000508565b82600182038162000abf57fe5b828054600181600116156101000203166002900490600052602060002090601f016020900481019282601f1062000b6257805160ff191683800117855562000b92565b8280016001018555821562000b92579182015b8281111562000b9257825182559160200191906001019062000b75565b5062000ba092915062000ba4565b5090565b5b8082111562000ba0576000815560010162000ba5565b80516200098b816200102d565b600082601f83011262000bd9578081fd5b815162000bf062000bea8262001001565b62000fda565b81815291506020808301908481018184028601820187101562000c1257600080fd5b60005b8481101562000c3e57815162000c2b816200102d565b8452928201929082019060010162000c15565b505050505092915050565b600082601f83011262000c5a578081fd5b815162000c6b62000bea8262001001565b81815291506020808301908481018184028601820187101562000c8d57600080fd5b60005b8481101562000c3e5781518452928201929082019060010162000c90565b805180151581146200098b57600080fd5b600082601f83011262000cd0578081fd5b81516001600160401b0381111562000ce6578182fd5b602062000cfc601f8301601f1916820162000fda565b9250818352848183860101111562000d1357600080fd5b60005b8281101562000d3357848101820151848201830152810162000d16565b8281111562000d455760008284860101525b50505092915050565b60006020828403121562000d60578081fd5b5051919050565b6000806000806000806000806000806101408b8d03121562000d87578586fd5b62000d938c8c62000bbb565b60208c0151909a506001600160401b038082111562000db0578788fd5b62000dbe8e838f0162000cbf565b9a5060408d015191508082111562000dd4578788fd5b62000de28e838f0162000cbf565b995060608d015191508082111562000df8578788fd5b62000e068e838f0162000bc8565b985060808d015191508082111562000e1c578788fd5b5062000e2b8d828e0162000c49565b96505060a08b0151945060c08b0151935060e08b0151925062000e538c6101008d0162000bbb565b915062000e658c6101208d0162000cae565b90509295989b9194979a5092959850565b60006020828403121562000e88578081fd5b815160ff8116811462000a35578182fd5b6000815180845260208085019450808401835b8381101562000eca5781518752958201959082019060010162000eac565b509495945050505050565b901515815260200190565b60006060820185835260206060818501528186518084526080860191508288019350845b8181101562000f2c5762000f19855162001021565b8352938301939183019160010162000f04565b505084810360408601528551808252908201925081860190845b8181101562000f6e5762000f5b835162001021565b8552938301939183019160010162000f46565b509298975050505050505050565b602081016003831062000f8b57fe5b91905290565b90815260200190565b60008582528460208301526080604083015262000fbb608083018562000e99565b828103606084015262000fcf818562000e99565b979650505050505050565b6040518181016001600160401b038111828210171562000ff957600080fd5b604052919050565b60006001600160401b0382111562001017578081fd5b5060209081020190565b6001600160a01b031690565b6001600160a01b03811681146200095c57600080fd5b60805160a05160601c60c05160e05161010051610120516101405160601c61016051610180516101a0516101c0516101e05160601c6102005160601c6102205160601c6102405160601c61026051610280516102a0516102c05161530362001149600039806115c75280612191525080611576528061213052508061153352806120cf5250806114f9528061206e52508061215652806132fb5250806120f552806132b95250806120945280613277525080612033528061323552508061182b52508061074f52508061148152508061145d525080610aee525080610ea25250806116f7525080611739525080611718525080610aca525080610a5452506153036000f3fe608060405234801561001057600080fd5b50600436106102c75760003560e01c806374f3b0091161017b578063a457c2d7116100d8578063d505accf1161008c578063dd62ed3e11610071578063dd62ed3e14610566578063e01af92c14610579578063f89f27ed1461058c576102c7565b8063d505accf14610540578063d5c096c414610553576102c7565b8063a9059cbb116100bd578063a9059cbb1461051d578063aaabadc514610530578063c0ff1a1514610538576102c7565b8063a457c2d7146104f4578063a6070fea14610507576102c7565b8063893d20e81161012f57806395d89b411161011457806395d89b41146104d15780639b02cdde146104d95780639d2c110c146104e1576102c7565b8063893d20e8146104b45780638d928af8146104c9576102c7565b80637ecebe00116101605780637ecebe001461047b578063851c1bb31461048e57806387ec6817146104a1576102c7565b806374f3b009146104435780637beed22014610464576102c7565b806338e9922e1161022957806350dd6ed9116101dd5780636028bfd4116101c25780636028bfd414610407578063679aefce1461042857806370a0823114610430576102c7565b806350dd6ed9146103ec57806355c67628146103ff576102c7565b8063395093511161020e57806339509351146103be5780633e569205146103d157806347bc4d92146103e4576102c7565b806338e9922e146103a357806338fff2d0146103b6576102c7565b80631c0de0511161028057806323b872dd1161026557806323b872dd14610373578063313ce567146103865780633644e5151461039b576102c7565b80631c0de051146103475780631dd746ea1461035e576102c7565b8063095ea7b3116102b1578063095ea7b31461030a57806316c38b3c1461032a57806318160ddd1461033f576102c7565b8062ca060c146102cc57806306fdde03146102f5575b600080fd5b6102df6102da366004614a90565b610594565b6040516102ec91906150f6565b60405180910390f35b6102fd6105ab565b6040516102ec91906151cc565b61031d610318366004614999565b610642565b6040516102ec91906150d3565b61033d610338366004614b38565b610659565b005b6102df61066d565b61034f610673565b6040516102ec939291906150de565b61036661069c565b6040516102ec9190615079565b61031d6103813660046148e4565b6106ab565b61038e610721565b6040516102ec9190615248565b6102df61072a565b61033d6103b1366004614ec4565b610734565b6102df61074d565b61031d6103cc366004614999565b610771565b61033d6103df366004614edc565b6107ac565b61031d610813565b61033d6103fa366004614c6f565b610823565b6102df610841565b61041a610415366004614b70565b610852565b6040516102ec9291906151df565b6102df610889565b6102df61043e366004614890565b6108b4565b610456610451366004614b70565b6108d3565b6040516102ec92919061508c565b61046c610976565b6040516102ec939291906151f8565b6102df610489366004614890565b610a35565b6102df61049c366004614c13565b610a50565b61041a6104af366004614b70565b610aa2565b6104bc610ac8565b6040516102ec9190615065565b6104bc610aec565b6102fd610b10565b6102df610b71565b6102df6104ef366004614dc8565b610b77565b61031d610502366004614999565b610cd5565b61050f610d13565b6040516102ec9291906150b1565b61031d61052b366004614999565b610d91565b6104bc610d9e565b6102df610da8565b61033d61054e366004614924565b610e6d565b610456610561366004614b70565b610fb6565b6102df6105743660046148ac565b6110e7565b61033d610587366004614b38565b611124565b61036661114d565b60006105a2858585856112dc565b50949350505050565b60038054604080516020601f60026000196101006001881615020190951694909404938401819004810282018101909252828152606093909290918301828280156106375780601f1061060c57610100808354040283529160200191610637565b820191906000526020600020905b81548152906001019060200180831161061a57829003601f168201915b505050505090505b90565b600061064f3384846112f4565b5060015b92915050565b61066161135c565b61066a816113a2565b50565b60025490565b600080600061068061143e565b15925061068b61145b565b915061069561147f565b9050909192565b60606106a66114a3565b905090565b6000806106b885336110e7565b90506106dc336001600160a01b03871614806106d45750838210155b61019e611605565b6106e7858585611613565b336001600160a01b0386161480159061070257506000198114155b156107145761071485338584036112f4565b60019150505b9392505050565b60055460ff1690565b60006106a66116f3565b61073c61135c565b610744611790565b61066a816117a5565b7f000000000000000000000000000000000000000000000000000000000000000090565b3360008181526001602090815260408083206001600160a01b0387168452909152812054909161064f9185906107a790866111f8565b6112f4565b6107b461135c565b6107bc611790565b6107c4611810565b6107d66107cf611829565b8251611161565b426107e1818561184d565b93506107f283851115610146611605565b61080584846107ff611864565b85611978565b5061080e611a8d565b505050565b600b546000906106a69082611a94565b61082b61135c565b610833611790565b61083d8282611a9e565b5050565b6008546000906106a69060c0611bb6565b600060606108688651610863611829565b611161565b61087d89898989898989611bc4611c94611cf5565b97509795505050505050565b60006106a661089661066d565b6108ae6108a1610da8565b6108a9611829565b611e85565b90611e9f565b6001600160a01b0381166000908152602081905260409020545b919050565b606080886108fd6108e2610aec565b6001600160a01b0316336001600160a01b03161460cd611605565b61091261090861074d565b82146101f4611605565b606061091c6114a3565b90506109288882611ee7565b600060608061093d8e8e8e8e8e8e8a8f611bc4565b92509250925061094d8d84611f48565b6109578285611c94565b6109618185611c94565b909550935050505b5097509795505050505050565b600b54600090819060609061098c8160c0611f52565b93506109998160e0611f52565b925060006109a5611829565b90508067ffffffffffffffff811180156109be57600080fd5b506040519080825280602002602001820160405280156109e8578160200160208202803683370190505b50925060005b81811015610a2d57610a0e610a098460806010850201611f5c565b611f64565b848281518110610a1a57fe5b60209081029190910101526001016109ee565b505050909192565b6001600160a01b031660009081526006602052604090205490565b60007f000000000000000000000000000000000000000000000000000000000000000082604051602001610a85929190614fef565b604051602081830303815290604052805190602001209050919050565b60006060610ab38651610863611829565b61087d89898989898989611f7e611fce611cf5565b7f000000000000000000000000000000000000000000000000000000000000000090565b7f000000000000000000000000000000000000000000000000000000000000000090565b60048054604080516020601f60026000196101006001881615020190951694909404938401819004810282018101909252828152606093909290918301828280156106375780601f1061060c57610100808354040283529160200191610637565b60095490565b60008360800151610b896108e2610aec565b610b9461090861074d565b6000610ba3866020015161202f565b90506000610bb4876040015161202f565b9050600087516001811115610bc557fe5b1415610c55576000610bda88606001516121c0565b90506000818960600151039050610bfe8960200151610bf983876121e1565b6121ed565b60608901829052610c0f88856121e1565b9750610c1b87846121e1565b9650610c2b8960600151856121e1565b60608a01526000610c3d8a8a8a6121ff565b9050610c498185612227565b96505050505050610ccd565b610c5f86836121e1565b9550610c6b85826121e1565b9450610c7b8760600151826121e1565b60608801526000610c8d888888612233565b9050610c99818461224b565b90506000610ca682612257565b905060008282039050610cc18a60200151610bf983886121e1565b509450610ccd92505050565b509392505050565b600080610ce233856110e7565b9050808310610cfc57610cf7338560006112f4565b610d09565b610d0933858584036112f4565b5060019392505050565b60606000610d1f611864565b915060009050600082600081518110610d3457fe5b602002602001015190506000600190505b8351811015610d8b5781848281518110610d5b57fe5b60200260200101511115610d8357809250838181518110610d7857fe5b602002602001015191505b600101610d45565b50509091565b600061064f338484611613565b60006106a661227d565b60006060610db4610aec565b6001600160a01b031663f94d4668610dca61074d565b6040518263ffffffff1660e01b8152600401610de691906150f6565b60006040518083038186803b158015610dfe57600080fd5b505afa158015610e12573d6000803e3d6000fd5b505050506040513d6000823e601f3d908101601f19168201604052610e3a91908101906149c4565b50915050610e4f81610e4a6114a3565b611ee7565b6060610e59610d13565b509050610e6681836122f7565b9250505090565b610e7b8442111560d1611605565b6001600160a01b0387166000908152600660209081526040808320549051909291610ed2917f0000000000000000000000000000000000000000000000000000000000000000918c918c918c9188918d910161511e565b6040516020818303038152906040528051906020012090506000610ef582612369565b9050600060018288888860405160008152602001604052604051610f1c94939291906151ae565b6020604051602081039080840390855afa158015610f3e573d6000803e3d6000fd5b5050604051601f1901519150610f8090506001600160a01b03821615801590610f7857508b6001600160a01b0316826001600160a01b0316145b6101f8611605565b6001600160a01b038b166000908152600660205260409020600185019055610fa98b8b8b6112f4565b5050505050505050505050565b60608088610fc56108e2610aec565b610fd061090861074d565b6060610fda6114a3565b9050610fe461066d565b6110975760006060610ff98d8d8d868b612385565b915091506110126110086123cb565b83101560cc611605565b611024600061101f6123cb565b6123d2565b6110378b6110306123cb565b84036123d2565b6110418184611fce565b8061104a611829565b67ffffffffffffffff8111801561106057600080fd5b5060405190808252806020026020018201604052801561108a578160200160208202803683370190505b5095509550505050610969565b6110a18882611ee7565b60006060806110b68e8e8e8e8e8e8a8f611f7e565b9250925092506110c68c846123d2565b6110d08285611fce565b6110da8185611c94565b9095509350610969915050565b60006110f1610aec565b6001600160a01b0316826001600160a01b031614156111135750600019610653565b61111d83836123dc565b9050610653565b61112c61135c565b611134611790565b61113c611810565b61114581612407565b61066a611a8d565b60606106a6611864565b8061083d81612449565b61083d8183146067611605565b67ffffffffffffffff811b1992909216911b1790565b6000611194838311156001611605565b50900390565b6000610653670de0b6b3a76400006111b48461ffff611243565b90611291565b6000610653670de0b6b3a76400006111b484637fffffff611243565b637fffffff811b1992909216911b1790565b61ffff811b1992909216911b1790565b600082820161071a8482101583611605565b63ffffffff811b1992909216911b1790565b60006001821b1984168284611232576000611235565b60015b60ff16901b17949350505050565b600082820261126784158061126057508385838161125d57fe5b04145b6003611605565b80611276576000915050610653565b670de0b6b3a764000060001982015b04600101915050610653565b60006112a08215156004611605565b826112ad57506000610653565b670de0b6b3a7640000838102906112d0908583816112c757fe5b04146005611605565b82600182038161128557fe5b60006112ea858585856124c2565b5050949350505050565b6001600160a01b0380841660008181526001602090815260408083209487168084529490915290819020849055517f8c5be1e5ebec7d5bd14f71427d1e84f3dd0314c0f7b2291e5b200ac8c7c3b9259061134f9085906150f6565b60405180910390a3505050565b600061138b6000357fffffffff0000000000000000000000000000000000000000000000000000000016610a50565b905061066a61139a823361253d565b610191611605565b80156113c2576113bd6113b361145b565b4210610193611605565b6113d7565b6113d76113cd61147f565b42106101a9611605565b600780547fffffffffffffffffffffffffffffffffffffffffffffffffffffffffffffff00168215151790556040517f9e3a5e37224532dea67b89face185703738a228a6e8a23dee546960180d3be64906114339083906150d3565b60405180910390a150565b600061144861147f565b4211806106a657505060075460ff161590565b7f000000000000000000000000000000000000000000000000000000000000000090565b7f000000000000000000000000000000000000000000000000000000000000000090565b606060006114af611829565b905060608167ffffffffffffffff811180156114ca57600080fd5b506040519080825280602002602001820160405280156114f4578160200160208202803683370190505b5090507f00000000000000000000000000000000000000000000000000000000000000008160008151811061152557fe5b6020026020010181815250507f00000000000000000000000000000000000000000000000000000000000000008160018151811061155f57fe5b60200260200101818152505060028211156115b3577f0000000000000000000000000000000000000000000000000000000000000000816002815181106115a257fe5b6020026020010181815250506115bc565b915061063f9050565b60038211156115b3577f0000000000000000000000000000000000000000000000000000000000000000816003815181106115f357fe5b60200260200101818152505091505090565b8161083d5761083d81612626565b61162a6001600160a01b0384161515610198611605565b6116416001600160a01b0383161515610199611605565b61164c83838361080e565b6001600160a01b03831660009081526020819052604090205461167290826101a0612693565b6001600160a01b0380851660009081526020819052604080822093909355908416815220546116a190826111f8565b6001600160a01b0380841660008181526020819052604090819020939093559151908516907fddf252ad1be2c89b69c2b068fc378daa952ba7f163c4a11628f55a4df523b3ef9061134f9085906150f6565b60007f00000000000000000000000000000000000000000000000000000000000000007f00000000000000000000000000000000000000000000000000000000000000007f00000000000000000000000000000000000000000000000000000000000000006117606126a9565b30604051602001611775959493929190615152565b60405160208183030381529060405280519060200120905090565b6117a361179b61143e565b610192611605565b565b6117b864e8d4a5100082101560cb611605565b6117ce67016345785d8a000082111560ca611605565b6008546117dd908260c061116e565b6008556040517fa9ba3ffe0b6c366b81232caab38605a0699ad5398d6cce76f91ee809e322dafc906114339083906150f6565b6118226002600a541415610190611605565b6002600a55565b7f000000000000000000000000000000000000000000000000000000000000000090565b60008183101561185d578161071a565b5090919050565b60606000611870611829565b905060608167ffffffffffffffff8111801561188b57600080fd5b506040519080825280602002602001820160405280156118b5578160200160208202803683370190505b50600b549091506118c76000826126ad565b826000815181106118d457fe5b6020026020010181815250506118eb6001826126ad565b826001815181106118f857fe5b60200260200101818152505082600214156119175750915061063f9050565b6119226002826126ad565b8260028151811061192f57fe5b602002602001018181525050826003141561194e5750915061063f9050565b6119596003826126ad565b8260038151811061196657fe5b60209081029190910101525091505090565b600b546000805b8351811015611a1457600084828151811061199657fe5b602002602001015190506119b6662386f26fc1000082101561012e611605565b6119fd6119c28261119a565b836010026080016119f66119e88a87815181106119db57fe5b60200260200101516111ba565b88906004601f8902016111d6565b91906111e8565b9350611a0983826111f8565b92505060010161197f565b50611a2b670de0b6b3a76400008214610134611605565b611a448560e0611a3d858a60c061120a565b919061120a565b600b556040517f0f3631f9dab08169d1db21c6dc5f32536fb2b0a6b9bb5330d71c52132f968be090611a7d908890889088908890615217565b60405180910390a1505050505050565b6001600a55565b1c60019081161490565b6000611aa861074d565b90506000611ab4610aec565b6001600160a01b031663b05f8e4883866040518363ffffffff1660e01b8152600401611ae1929190615197565b60806040518083038186803b158015611af957600080fd5b505afa158015611b0d573d6000803e3d6000fd5b505050506040513d601f19601f82011682018060405250810190611b319190614f2a565b6040517f18e736d40000000000000000000000000000000000000000000000000000000081529094506001600160a01b03851693506318e736d49250611b7e91508590879060040161517e565b600060405180830381600087803b158015611b9857600080fd5b505af1158015611bac573d6000803e3d6000fd5b5050505050505050565b1c67ffffffffffffffff1690565b600060608060606000611bd5610d13565b91509150611be161143e565b15611c19576000611bf2838c6122f7565b9050611c048b8484600954858e612703565b9350611c138b856111846127b2565b50611c65565b611c21611829565b67ffffffffffffffff81118015611c3757600080fd5b50604051908082528060200260200182016040528015611c61578160200160208202803683370190505b5092505b611c718a83898961281d565b9095509350611c818a85846128aa565b6009555050985098509895505050505050565b60005b611c9f611829565b81101561080e57611cd6838281518110611cb557fe5b6020026020010151838381518110611cc957fe5b6020026020010151611e9f565b838281518110611ce257fe5b6020908102919091010152600101611c97565b333014611de4576000306001600160a01b0316600036604051611d1992919061501f565b6000604051808303816000865af19150503d8060008114611d56576040519150601f19603f3d011682016040523d82523d6000602084013e611d5b565b606091505b505090508060008114611d6a57fe5b60046000803e6000517fffffffff00000000000000000000000000000000000000000000000000000000167f43adbafb000000000000000000000000000000000000000000000000000000008114611dc6573d6000803e3d6000fd5b506020600460003e604060205260243d03602460403e601c3d016000f35b6060611dee6114a3565b9050611dfa8782611ee7565b60006060611e128c8c8c8c8c8c898d8d63ffffffff16565b5091509150611e2581848663ffffffff16565b8051601f1982018390526343adbafb7fffffffffffffffffffffffffffffffffffffffffffffffffffffffffffffffc08301526020027fffffffffffffffffffffffffffffffffffffffffffffffffffffffffffffffdc82016044820181fd5b600082820261071a84158061126057508385838161125d57fe5b6000611eae8215156004611605565b82611ebb57506000610653565b670de0b6b3a764000083810290611ed5908583816112c757fe5b828181611ede57fe5b04915050610653565b60005b611ef2611829565b81101561080e57611f29838281518110611f0857fe5b6020026020010151838381518110611f1c57fe5b60200260200101516128c3565b838281518110611f3557fe5b6020908102919091010152600101611eea565b61083d82826128ef565b1c63ffffffff1690565b1c61ffff1690565b600061065361ffff6111b484670de0b6b3a7640000611243565b6000606080611faa611f8e610ac8565b6001600160a01b03168b6001600160a01b031614610148611605565b611fba8b8b8b8b8b8b8b8b6129ab565b925092509250985098509895505050505050565b60005b611fd9611829565b81101561080e57612010838281518110611fef57fe5b602002602001015183838151811061200357fe5b6020026020010151611291565b83828151811061201c57fe5b6020908102919091010152600101611fd1565b60007f00000000000000000000000000000000000000000000000000000000000000006001600160a01b0316826001600160a01b0316141561209257507f00000000000000000000000000000000000000000000000000000000000000006108ce565b7f00000000000000000000000000000000000000000000000000000000000000006001600160a01b0316826001600160a01b031614156120f357507f00000000000000000000000000000000000000000000000000000000000000006108ce565b7f00000000000000000000000000000000000000000000000000000000000000006001600160a01b0316826001600160a01b0316141561215457507f00000000000000000000000000000000000000000000000000000000000000006108ce565b7f00000000000000000000000000000000000000000000000000000000000000006001600160a01b0316826001600160a01b031614156121b557507f00000000000000000000000000000000000000000000000000000000000000006108ce565b6108ce610135612626565b6000806121d56121ce610841565b8490611243565b905061071a8382611184565b600061071a83836128c3565b61083d6121f983612a31565b8261083d565b600061221461220c610813565b610147611605565b61221f848484612a37565b949350505050565b600061071a8383611e9f565b600061224061220c610813565b61221f848484612a6a565b600061071a8383611291565b6000610653612276612267610841565b670de0b6b3a764000090611184565b8390611291565b6000612287610aec565b6001600160a01b031663aaabadc56040518163ffffffff1660e01b815260040160206040518083038186803b1580156122bf57600080fd5b505afa1580156122d3573d6000803e3d6000fd5b505050506040513d601f19601f820116820180604052508101906106a69190614c53565b670de0b6b3a764000060005b83518110156123595761234f61234885838151811061231e57fe5b602002602001015185848151811061233257fe5b6020026020010151612a9d90919063ffffffff16565b83906128c3565b9150600101612303565b5061065360008211610137611605565b60006123736116f3565b82604051602001610a8592919061502f565b600060606123b0612394610ac8565b6001600160a01b0316876001600160a01b031614610148611605565b6123bd8787878787612aec565b915091509550959350505050565b620f424090565b61083d8282612b80565b6001600160a01b03918216600090815260016020908152604080832093909416825291909152205490565b600b546124169082600061121c565b600b556040517f5a9e84f78f7957cb4ed7478eb0fcad35ee4ecbe2e0f298420b28a3955392573f906114339083906150d3565b6002815110156124585761066a565b60008160008151811061246757fe5b602002602001015190506000600190505b825181101561080e57600083828151811061248f57fe5b602002602001015190506124b8816001600160a01b0316846001600160a01b0316106065611605565b9150600101612478565b600060608060006124d285612c0e565b915091506124e86124e1611829565b8351611161565b6124f28287611ee7565b600060606125118a8a8661250461066d565b61250c610841565b612c31565b9150915061251e81612d9a565b61252c8383101560d0611605565b509350909150505b94509492505050565b600073ba1ba1ba1ba1ba1ba1ba1ba1ba1ba1ba1ba1ba1b61255c610ac8565b6001600160a01b031614158015612577575061257783612dde565b1561259f57612584610ac8565b6001600160a01b0316336001600160a01b0316149050610653565b6125a761227d565b6001600160a01b0316639be2a8848484306040518463ffffffff1660e01b81526004016125d6939291906150ff565b60206040518083038186803b1580156125ee57600080fd5b505afa158015612602573d6000803e3d6000fd5b505050506040513d601f19601f8201168201806040525081019061111d9190614b54565b7f08c379a0000000000000000000000000000000000000000000000000000000006000908152602060045260076024526642414c23000030600a808404818106603090810160081b95839006959095019082900491820690940160101b939093010160c81b604452606490fd5b60006126a28484111583611605565b5050900390565b4690565b6000806126c86126c3846004601f880201612e4c565b612e56565b905060006126df610a098560806010890201611f5c565b905060006126ec85612e72565b90506126f9838383612ef1565b9695505050505050565b60608061270e611829565b67ffffffffffffffff8111801561272457600080fd5b5060405190808252806020026020018201604052801561274e578160200160208202803683370190505b5090508261275d5790506126f9565b61279088878151811061276c57fe5b602002602001015188888151811061278057fe5b6020026020010151878787612f65565b81878151811061279c57fe5b6020908102919091010152979650505050505050565b60005b6127bd611829565b811015612817576127f88482815181106127d357fe5b60200260200101518483815181106127e757fe5b60200260200101518463ffffffff16565b84828151811061280457fe5b60209081029190910101526001016127b5565b50505050565b60006060600061282c84612fed565b9050600081600381111561283c57fe5b14156128575761284d878786613003565b9250925050612534565b600181600381111561286557fe5b14156128755761284d87856130fa565b600281600381111561288357fe5b14156128955761284d8787878761312c565b6128a0610150612626565b5094509492505050565b60006128b984846111846127b2565b61221f82856122f7565b60008282026128dd84158061126057508385838161125d57fe5b670de0b6b3a764000090049392505050565b6129066001600160a01b038316151561019b611605565b6129128260008361080e565b6001600160a01b03821660009081526020819052604090205461293890826101a1612693565b6001600160a01b03831660009081526020819052604090205560025461295e908261319a565b6002556040516000906001600160a01b038416907fddf252ad1be2c89b69c2b068fc378daa952ba7f163c4a11628f55a4df523b3ef9061299f9085906150f6565b60405180910390a35050565b60006060806129b8611790565b606060006129c4610d13565b9150915060006129d4838c6122f7565b905060606129e88c8585600954868f612703565b90506129f78c826111846127b2565b60006060612a078e878d8d6131a8565b91509150612a168e8288613221565b60095590975095509350505050985098509895505050505050565b50600090565b6000612a41611790565b61221f83612a528660200151613230565b84612a608860400151613230565b8860600151613352565b6000612a74611790565b61221f83612a858660200151613230565b84612a938860400151613230565b88606001516133bf565b600080612aaa8484613435565b90506000612ac4612abd83612710611243565b60016111f8565b905080821015612ad957600092505050610653565b612ae38282611184565b92505050610653565b60006060612af8611790565b6000612b0384612fed565b9050612b1e6000826003811115612b1657fe5b1460ce611605565b6060612b2985613568565b9050612b366107cf611829565b612b408187611ee7565b6060612b4a610d13565b5090506000612b5982846122f7565b90506000612b69826108a9611829565b600992909255509a91995090975050505050505050565b612b8c6000838361080e565b600254612b9990826111f8565b6002556001600160a01b038216600090815260208190526040902054612bbf90826111f8565b6001600160a01b0383166000818152602081905260408082209390935591519091907fddf252ad1be2c89b69c2b068fc378daa952ba7f163c4a11628f55a4df523b3ef9061299f9085906150f6565b6060600082806020019051810190612c269190614cd9565b909590945092505050565b6000606080855167ffffffffffffffff81118015612c4e57600080fd5b50604051908082528060200260200182016040528015612c78578160200160208202803683370190505b5090506000805b8951811015612d3d57612cd88a8281518110612c9757fe5b60200260200101516108ae8a8481518110612cae57fe5b60200260200101518d8581518110612cc257fe5b60200260200101516111f890919063ffffffff16565b838281518110612ce457fe5b602002602001018181525050612d33612d2c8a8381518110612d0257fe5b6020026020010151858481518110612d1657fe5b60200260200101516128c390919063ffffffff16565b83906111f8565b9150600101612c7f565b5060006060612d508b8b8b87878c61357e565b915091506000670de0b6b3a76400008311612d6c576000612d88565b612d88612d8184670de0b6b3a7640000611184565b8a906128c3565b9c919b50909950505050505050505050565b612da78151610863611829565b60005b612db2611829565b81101561083d57612dd681838381518110612dc957fe5b602002602001015161083d565b600101612daa565b6000612e097fe01af92c00000000000000000000000000000000000000000000000000000000610a50565b821480612e3d5750612e3a7f3e56920500000000000000000000000000000000000000000000000000000000610a50565b82145b80610653575061065382613719565b1c637fffffff1690565b6000610653637fffffff6111b484670de0b6b3a7640000611243565b60004281612e818460c0611f52565b90506000612e908560e0611f52565b905080831115612ead57670de0b6b3a764000093505050506108ce565b81831015612ec157600093505050506108ce565b8181038284038115612edc57612ed78183611e9f565b612ee6565b670de0b6b3a76400005b979650505050505050565b6000811580612eff57508284145b15612f0b57508261071a565b670de0b6b3a76400008210612f2157508161071a565b82841115612f4b576000612f37838587036128c3565b9050612f438582611184565b91505061071a565b6000612f59838686036128c3565b9050612f4385826111f8565b6000838311612f7657506000612fe4565b6000612f828585611291565b90506000612f98670de0b6b3a764000088611e9f565b9050612fac826709b6e64a8ec6000061184d565b91506000612fba838361377d565b90506000612fd1612fca836137a9565b8b906128c3565b9050612fdd81876128c3565b9450505050505b95945050505050565b6000818060200190518101906106539190614cbd565b6000606061300f611790565b60008061301b856137cf565b9150915061303361302a611829565b82106064611605565b60008061307789848151811061304557fe5b602002602001015189858151811061305957fe5b60200260200101518661306a61066d565b613072610841565b6137e6565b91509150613085838261083d565b606061308f611829565b67ffffffffffffffff811180156130a557600080fd5b506040519080825280602002602001820160405280156130cf578160200160208202803683370190505b509050828185815181106130df57fe5b60209081029190910101529399939850929650505050505050565b6000606060006131098461389c565b9050606061311f868361311a61066d565b6138b2565b9196919550909350505050565b60006060613138611790565b6060600061314585612c0e565b915091506131568251610863611829565b6131608287611ee7565b6000606061317f8a8a8661317261066d565b61317a610841565b61394e565b915091506131918383111560cf611605565b61252c81612d9a565b600061071a83836001612693565b6000606060006131b784612fed565b905060018160038111156131c757fe5b14156131d95761284d878787876124c2565b60028160038111156131e757fe5b14156131f85761284d878786613a69565b600381600381111561320657fe5b14156132165761284d8785613acc565b6128a0610136612626565b60006128b984846111f86127b2565b6000807f00000000000000000000000000000000000000000000000000000000000000006001600160a01b0316836001600160a01b0316141561327557506000613346565b7f00000000000000000000000000000000000000000000000000000000000000006001600160a01b0316836001600160a01b031614156132b757506001613346565b7f00000000000000000000000000000000000000000000000000000000000000006001600160a01b0316836001600160a01b031614156132f957506002613346565b7f00000000000000000000000000000000000000000000000000000000000000006001600160a01b0316836001600160a01b0316141561333b57506003613346565b613346610135612626565b61071a81600b546126ad565b600061337461336987670429d069189e00006128c3565b831115610130611605565b600061338087846111f8565b9050600061338e8883611291565b9050600061339c8887611e9f565b905060006133aa838361377d565b9050612fdd6133b8826137a9565b89906128c3565b60006133e16133d685670429d069189e00006128c3565b831115610131611605565b60006133f76133f08685611184565b8690611291565b905060006134058588611291565b90506000613413838361377d565b9050600061342982670de0b6b3a7640000611184565b9050612fdd8a82611243565b60008161344b5750670de0b6b3a7640000610653565b8261345857506000610653565b6134857f800000000000000000000000000000000000000000000000000000000000000084106006611605565b826134ab770bce5086492111aea88f4bb1ca6bcf584181ea8059f7653284106007611605565b826000670c7d713b49da0000831380156134cc5750670f43fc2c04ee000083125b156135035760006134dc84613af1565b9050670de0b6b3a764000080820784020583670de0b6b3a764000083050201915050613511565b8161350d84613c28565b0290505b670de0b6b3a7640000900561355f7ffffffffffffffffffffffffffffffffffffffffffffffffdc702bd3a30fc00008212801590613558575068070c1cc73b00c800008213155b6008611605565b6126f981613fc8565b60608180602001905181019061071a9190614d83565b60006060855167ffffffffffffffff8111801561359a57600080fd5b506040519080825280602002602001820160405280156135c4578160200160208202803683370190505b509050670de0b6b3a7640000915060005b885181101561370d576000858783815181106135ed57fe5b6020026020010151111561368f57600061361e61361288670de0b6b3a7640000611184565b8c8581518110612d1657fe5b90506000613648828b868151811061363257fe5b602002602001015161118490919063ffffffff16565b905060006136568289611243565b905061366c6136658383611184565b84906111f8565b93508086868151811061367b57fe5b6020026020010181815250505050506136a6565b87828151811061369b57fe5b602002602001015190505b60006136cf8b84815181106136b757fe5b60200260200101516108ae848e8781518110612cc257fe5b90506137016136fa8b85815181106136e357fe5b602002602001015183612a9d90919063ffffffff16565b86906128c3565b945050506001016135d5565b50965096945050505050565b60006137447f38e9922e00000000000000000000000000000000000000000000000000000000610a50565b82148061065357506137757f50dd6ed900000000000000000000000000000000000000000000000000000000610a50565b909114919050565b60008061378a8484613435565b9050600061379d612abd83612710611243565b9050612fe482826111f8565b6000670de0b6b3a764000082106137c1576000610653565b50670de0b6b3a76400000390565b60008082806020019051810190612c269190614d4d565b600080806137f8856111b48189611184565b90506138116709b6e64a8ec60000821015610132611605565b600061382f613828670de0b6b3a76400008a611e9f565b839061377d565b9050600061383f612fca836137a9565b9050600061384c8a6137a9565b9050600061385a8383611243565b905060006138688483611184565b9050613874828a611243565b965061388a6138838389611184565b82906111f8565b97505050505050509550959350505050565b60008180602001905181019061071a9190614d20565b606060006138c08484611e9f565b90506060855167ffffffffffffffff811180156138dc57600080fd5b50604051908082528060200260200182016040528015613906578160200160208202803683370190505b50905060005b86518110156139445761392583888381518110612d1657fe5b82828151811061393157fe5b602090810291909101015260010161390c565b5095945050505050565b6000606080855167ffffffffffffffff8111801561396b57600080fd5b50604051908082528060200260200182016040528015613995578160200160208202803683370190505b5090506000805b8951811015613a3d576139df8a82815181106139b457fe5b60200260200101516111b48a84815181106139cb57fe5b60200260200101518d858151811061363257fe5b8382815181106139eb57fe5b602002602001018181525050613a33612d2c8a8381518110613a0957fe5b6020026020010151858481518110613a1d57fe5b602002602001015161124390919063ffffffff16565b915060010161399c565b5060006060613a508b8b8b87878c614498565b915091506000612d88613a62846137a9565b8a90611243565b60006060600080613a79856137cf565b91509150613a8861302a611829565b600080613077898481518110613a9a57fe5b6020026020010151898581518110613aae57fe5b602002602001015186613abf61066d565b613ac7610841565b6145e0565b600060606000613adb8461389c565b9050606061311f8683613aec61066d565b6146af565b670de0b6b3a7640000026000806ec097ce7bc90715b34b9f1000000000808401907fffffffffffffffffffffffffffffffffff3f68318436f8ea4cb460f00000000085010281613b3d57fe5b05905060006ec097ce7bc90715b34b9f100000000082800205905081806ec097ce7bc90715b34b9f100000000081840205915060038205016ec097ce7bc90715b34b9f100000000082840205915060058205016ec097ce7bc90715b34b9f100000000082840205915060078205016ec097ce7bc90715b34b9f100000000082840205915060098205016ec097ce7bc90715b34b9f1000000000828402059150600b8205016ec097ce7bc90715b34b9f1000000000828402059150600d8205016ec097ce7bc90715b34b9f1000000000828402059150600f826002919005919091010295945050505050565b6000670de0b6b3a7640000821215613c6557613c5b826ec097ce7bc90715b34b9f100000000081613c5557fe5b05613c28565b60000390506108ce565b60007e1600ef3172e58d2e933ec884fde10064c63b5372d805e203c00000000000008312613cb657770195e54c5dd42177f53a27172fa9ec630262827000000000830592506806f05b59d3b2000000015b73011798004d755d3c8bc8e03204cf44619e0000008312613cee576b1425982cf597cd205cef7380830592506803782dace9d9000000015b606492830292026e01855144814a7ff805980ff00840008312613d36576e01855144814a7ff805980ff008400068056bc75e2d63100000840205925068ad78ebc5ac62000000015b6b02df0ab5a80a22c61ab5a7008312613d71576b02df0ab5a80a22c61ab5a70068056bc75e2d6310000084020592506856bc75e2d631000000015b693f1fce3da636ea5cf8508312613da857693f1fce3da636ea5cf85068056bc75e2d631000008402059250682b5e3af16b18800000015b690127fa27722cc06cc5e28312613ddf57690127fa27722cc06cc5e268056bc75e2d6310000084020592506815af1d78b58c400000015b68280e60114edb805d038312613e145768280e60114edb805d0368056bc75e2d631000008402059250680ad78ebc5ac6200000015b680ebc5fb417461211108312613e3f57680ebc5fb4174612111068056bc75e2d631000009384020592015b6808f00f760a4b2db55d8312613e74576808f00f760a4b2db55d68056bc75e2d6310000084020592506802b5e3af16b1880000015b6806f5f17757889379378312613ea9576806f5f177578893793768056bc75e2d63100000840205925068015af1d78b58c40000015b6806248f33704b2866038312613edd576806248f33704b28660368056bc75e2d63100000840205925067ad78ebc5ac620000015b6805c548670b9510e7ac8312613f11576805c548670b9510e7ac68056bc75e2d6310000084020592506756bc75e2d6310000015b600068056bc75e2d63100000840168056bc75e2d631000008086030281613f3457fe5b059050600068056bc75e2d63100000828002059050818068056bc75e2d63100000818402059150600382050168056bc75e2d63100000828402059150600582050168056bc75e2d63100000828402059150600782050168056bc75e2d63100000828402059150600982050168056bc75e2d63100000828402059150600b820501600202606485820105979650505050505050565b600061400d7ffffffffffffffffffffffffffffffffffffffffffffffffdc702bd3a30fc00008312158015614006575068070c1cc73b00c800008313155b6009611605565b60008212156140415761402282600003613fc8565b6ec097ce7bc90715b34b9f10000000008161403957fe5b0590506108ce565b60006806f05b59d3b2000000831261409757507ffffffffffffffffffffffffffffffffffffffffffffffff90fa4a62c4e00000090910190770195e54c5dd42177f53a27172fa9ec6302628270000000006140e3565b6803782dace9d900000083126140df57507ffffffffffffffffffffffffffffffffffffffffffffffffc87d2531627000000909101906b1425982cf597cd205cef73806140e3565b5060015b6064929092029168056bc75e2d6310000068ad78ebc5ac620000008412614149577fffffffffffffffffffffffffffffffffffffffffffffff5287143a539e0000009093019268056bc75e2d631000006e01855144814a7ff805980ff008400082020590505b6856bc75e2d631000000841261419b577fffffffffffffffffffffffffffffffffffffffffffffffa9438a1d29cf0000009093019268056bc75e2d631000006b02df0ab5a80a22c61ab5a70082020590505b682b5e3af16b1880000084126141eb577fffffffffffffffffffffffffffffffffffffffffffffffd4a1c50e94e78000009093019268056bc75e2d63100000693f1fce3da636ea5cf85082020590505b6815af1d78b58c400000841261423b577fffffffffffffffffffffffffffffffffffffffffffffffea50e2874a73c000009093019268056bc75e2d63100000690127fa27722cc06cc5e282020590505b680ad78ebc5ac6200000841261428a577ffffffffffffffffffffffffffffffffffffffffffffffff5287143a539e000009093019268056bc75e2d6310000068280e60114edb805d0382020590505b68056bc75e2d6310000084126142d9577ffffffffffffffffffffffffffffffffffffffffffffffffa9438a1d29cf000009093019268056bc75e2d63100000680ebc5fb4174612111082020590505b6802b5e3af16b18800008412614328577ffffffffffffffffffffffffffffffffffffffffffffffffd4a1c50e94e7800009093019268056bc75e2d631000006808f00f760a4b2db55d82020590505b68015af1d78b58c400008412614377577ffffffffffffffffffffffffffffffffffffffffffffffffea50e2874a73c00009093019268056bc75e2d631000006806f5f177578893793782020590505b68056bc75e2d631000008481019085906002908280020505918201919050600368056bc75e2d631000008783020505918201919050600468056bc75e2d631000008783020505918201919050600568056bc75e2d631000008783020505918201919050600668056bc75e2d631000008783020505918201919050600768056bc75e2d631000008783020505918201919050600868056bc75e2d631000008783020505918201919050600968056bc75e2d631000008783020505918201919050600a68056bc75e2d631000008783020505918201919050600b68056bc75e2d631000008783020505918201919050600c68056bc75e2d631000008783020505918201919050606468056bc75e2d63100000848402058502059695505050505050565b60006060855167ffffffffffffffff811180156144b457600080fd5b506040519080825280602002602001820160405280156144de578160200160208202803683370190505b509050670de0b6b3a7640000915060005b885181101561370d57600086828151811061450657fe5b6020026020010151861115614580576000614523613612886137a9565b90506000614537828b868151811061363257fe5b90506000614550612276670de0b6b3a76400008a611184565b905081810386868151811061456157fe5b602090810291909101015261457683826111f8565b9350505050614597565b87828151811061458c57fe5b602002602001015190505b60006145c08b84815181106145a857fe5b60200260200101516108ae848e878151811061363257fe5b90506145d46136fa8b85815181106136e357fe5b945050506001016144ef565b600080806145f2856111b481896111f8565b905061460b6729a2241af62c0000821115610133611605565b6000614622613828670de0b6b3a76400008a611291565b9050600061464261463b83670de0b6b3a7640000611184565b8b90611243565b9050600061464f8a6137a9565b9050600061465d8383611243565b9050600061466b8483611184565b9050600061468b614684670de0b6b3a76400008c611184565b8490611291565b8381039850905061469c82826111f8565b9850505050505050509550959350505050565b606060006146bd8484611291565b90506060855167ffffffffffffffff811180156146d957600080fd5b50604051908082528060200260200182016040528015614703578160200160208202803683370190505b50905060005b86518110156139445761472283888381518110613a1d57fe5b82828151811061472e57fe5b6020908102919091010152600101614709565b80356106538161529d565b600082601f83011261475c578081fd5b813561476f61476a8261527d565b615256565b81815291506020808301908481018184028601820187101561479057600080fd5b60005b848110156147af57813584529282019290820190600101614793565b505050505092915050565b600082601f8301126147ca578081fd5b81516147d861476a8261527d565b8181529150602080830190848101818402860182018710156147f957600080fd5b60005b848110156147af578151845292820192908201906001016147fc565b600082601f830112614828578081fd5b813567ffffffffffffffff81111561483e578182fd5b6148516020601f19601f84011601615256565b915080825283602082850101111561486857600080fd5b8060208401602084013760009082016020015292915050565b80356002811061065357600080fd5b6000602082840312156148a1578081fd5b813561071a8161529d565b600080604083850312156148be578081fd5b82356148c98161529d565b915060208301356148d98161529d565b809150509250929050565b6000806000606084860312156148f8578081fd5b83356149038161529d565b925060208401356149138161529d565b929592945050506040919091013590565b600080600080600080600060e0888a03121561493e578283fd5b87356149498161529d565b965060208801356149598161529d565b95506040880135945060608801359350608088013560ff8116811461497c578384fd5b9699959850939692959460a0840135945060c09093013592915050565b600080604083850312156149ab578182fd5b82356149b68161529d565b946020939093013593505050565b6000806000606084860312156149d8578081fd5b835167ffffffffffffffff808211156149ef578283fd5b818601915086601f830112614a02578283fd5b8151614a1061476a8261527d565b80828252602080830192508086018b828387028901011115614a30578788fd5b8796505b84871015614a5b578051614a478161529d565b845260019690960195928101928101614a34565b508901519097509350505080821115614a72578283fd5b50614a7f868287016147ba565b925050604084015190509250925092565b60008060008060808587031215614aa5578182fd5b843567ffffffffffffffff80821115614abc578384fd5b614ac88883890161474c565b95506020870135915080821115614add578384fd5b614ae98883890161474c565b94506040870135915080821115614afe578384fd5b614b0a8883890161474c565b93506060870135915080821115614b1f578283fd5b50614b2c87828801614818565b91505092959194509250565b600060208284031215614b49578081fd5b813561071a816152b2565b600060208284031215614b65578081fd5b815161071a816152b2565b600080600080600080600060e0888a031215614b8a578081fd5b873596506020880135614b9c8161529d565b95506040880135614bac8161529d565b9450606088013567ffffffffffffffff80821115614bc8578283fd5b614bd48b838c0161474c565b955060808a0135945060a08a0135935060c08a0135915080821115614bf7578283fd5b50614c048a828b01614818565b91505092959891949750929550565b600060208284031215614c24578081fd5b81357fffffffff000000000000000000000000000000000000000000000000000000008116811461071a578182fd5b600060208284031215614c64578081fd5b815161071a8161529d565b60008060408385031215614c81578182fd5b8235614c8c8161529d565b9150602083013567ffffffffffffffff811115614ca7578182fd5b614cb385828601614818565b9150509250929050565b600060208284031215614cce578081fd5b815161071a816152c0565b600080600060608486031215614ced578081fd5b8351614cf8816152c0565b602085015190935067ffffffffffffffff811115614d14578182fd5b614a7f868287016147ba565b60008060408385031215614d32578182fd5b8251614d3d816152c0565b6020939093015192949293505050565b600080600060608486031215614d61578081fd5b8351614d6c816152c0565b602085015160409095015190969495509392505050565b60008060408385031215614d95578182fd5b8251614da0816152c0565b602084015190925067ffffffffffffffff811115614dbc578182fd5b614cb3858286016147ba565b600080600060608486031215614ddc578081fd5b833567ffffffffffffffff80821115614df3578283fd5b8186019150610120808389031215614e09578384fd5b614e1281615256565b9050614e1e8884614881565b8152614e2d8860208501614741565b6020820152614e3f8860408501614741565b6040820152606083013560608201526080830135608082015260a083013560a0820152614e6f8860c08501614741565b60c0820152614e818860e08501614741565b60e08201526101008084013583811115614e99578586fd5b614ea58a828701614818565b9183019190915250976020870135975060409096013595945050505050565b600060208284031215614ed5578081fd5b5035919050565b600080600060608486031215614ef0578081fd5b8335925060208401359150604084013567ffffffffffffffff811115614f14578182fd5b614f208682870161474c565b9150509250925092565b60008060008060808587031215614f3f578182fd5b8451935060208501519250604085015191506060850151614f5f8161529d565b939692955090935050565b6000815180845260208085019450808401835b83811015614f9957815187529582019590820190600101614f7d565b509495945050505050565b60008151808452815b81811015614fc957602081850181015186830182015201614fad565b81811115614fda5782602083870101525b50601f01601f19169290920160200192915050565b9182527fffffffff0000000000000000000000000000000000000000000000000000000016602082015260240190565b6000828483379101908152919050565b7f190100000000000000000000000000000000000000000000000000000000000081526002810192909252602282015260420190565b6001600160a01b0391909116815260200190565b60006020825261071a6020830184614f6a565b60006040825261509f6040830185614f6a565b8281036020840152612fe48185614f6a565b6000604082526150c46040830185614f6a565b90508260208301529392505050565b901515815260200190565b92151583526020830191909152604082015260600190565b90815260200190565b9283526001600160a01b03918216602084015216604082015260600190565b9586526001600160a01b0394851660208701529290931660408501526060840152608083019190915260a082015260c00190565b9485526020850193909352604084019190915260608301526001600160a01b0316608082015260a00190565b60008382526040602083015261221f6040830184614fa4565b9182526001600160a01b0316602082015260400190565b93845260ff9290921660208401526040830152606082015260800190565b60006020825261071a6020830184614fa4565b60008382526040602083015261221f6040830184614f6a565b600084825283602083015260606040830152612fe46060830184614f6a565b6000858252846020830152608060408301526152366080830185614f6a565b8281036060840152612ee68185614f6a565b60ff91909116815260200190565b60405181810167ffffffffffffffff8111828210171561527557600080fd5b604052919050565b600067ffffffffffffffff821115615293578081fd5b5060209081020190565b6001600160a01b038116811461066a57600080fd5b801515811461066a57600080fd5b6004811061066a57600080fdfea2646970667358221220e1227df88d6fc1e2fa75ca891caf22d3b79c5a640897d86ac9c910f8d9a8333664736f6c63430007010033",
  "linkReferences": {},
  "deployedLinkReferences": {}
}